:020000040800F2
:100000003808002081020008932200081518000813
:1000100091220008BD060008EF2B00080000000038
:10002000000000000000000000000000ED260008B5
:10003000BF0600080000000035230008EF26000876
:100040009B0200089B0200089B0200089B0200081C
:100050009B0200089B0200089B0200089B0200080C
:100060009B0200089B0200089B0200089B020008FC
:100070009B0200089B0200089B0200089B020008EC
:100080009B020008000000009B0200089B02000881
:100090009B0200089B0200089B0200089B020008CC
:1000A0009B0200089B0200089B0200089B020008BC
:1000B0009B0200089B0200089B0200089B020008AC
:1000C0009B0200089B0200089B0200089B0200089C
:1000D0009B0200089B0200089B0200089B0200088C
:1000E0009B0200089B0200089B0200089B0200087C
:1000F0009B0200089B0200089B0200080000000011
:10010000000000009B020008000000009B020008A5
:100110009B020008000000009B0200089B020008F0
:100120009B0200089B0200089B0200089B0200083B
:100130009B02000800000000000000009B02000875
:100140009B0200089B020008000000000000000065
:10015000000000000000000000000000000000009F
:100160000000000000000000000000009B020008EA
:100170009B020008000000000000000000000000DA
:10018000000000009B0200080000000000000000CA
:10019000000000000000000000000000000000005F
:1001A00000000000000000009B0200089B02000805
:1001B0009B0200089B0200089B0200080000000050
:1001C000000000009B02000800000000000000008A
:1001D0009B0200089B02000800F002F800F041F8C2
:1001E0000AA090E8000C82448344AAF10107DA4592
:1001F00001D100F036F8AFF2090EBAE80F0013F0A3
:10020000010F18BFFB1A43F001031847E83C000038
:10021000083D0000103A24BF78C878C1FAD85207C8
:1002200024BF30C830C144BF04680C607047000070
:100230000023002400250026103A28BF78C1FBD8EF
:10024000520728BF30C148BF0B607047642900F0D7
:100250007380002070471FB502F056FD1FBD10B51A
:1002600010BD00F0CCF91146FFF7F5FF02F026FDB6
:1002700000F0EAF903B4FFF7F2FF03BC00F0F2F973
:100280000948804709480047FEE7FEE7FEE7FEE72A
:10029000FEE7FEE7FEE7FEE7FEE7FEE70448054966
:1002A000054A064B7047000079270008D90100086D
:1002B00038020020380800203804002038040020CC
:1002C0000FB41CB5074B06AA7B44694600900598FD
:1002D00000F07DF90020694600F08CF91CBC5DF847
:1002E00014FB00002903000070B50446856900680E
:1002F000C10601D5302600E02026C00707D070BD1A
:10030000D4E9012130469047206A401C20626D1ECE
:10031000F6D570BD70B5044685690078C00707D171
:1003200070BDD4E9012120209047206A401C206242
:100330006D1EF6D570BD00002DE9F0410646002483
:1003400010687529314616A510D0AFF3008000283B
:1003500002DA404213A507E031688A0701D512A5E9
:1003600002E0490704D511A5012401E0AFF30080A4
:1003700000210A2206F1240709E0B0FBF2FCB0FBE1
:10038000F2F302FB1C00303078541846491C002858
:10039000F3D123462A463046BDE8F04100F0B9B813
:1003A000000000002D0000002B00000020000000D5
:1003B0002DE9F0474FF0000A89460446C0F820A016
:1003C0002046E1688847002876D0252806D0D4E961
:1003D00001219047206A401C2062F1E7E168204635
:1003E00000258847C4F81CA006460027C4F818A0BA
:1003F0002A2E09D0304602F00BFC38B304EB8708F4
:10040000303EC8F8186019E059F8041B204604EB88
:1004100087029161E1688847012F064618D1E0699B
:10042000002820DA25F020051DE0D8F8180000EBA0
:10043000800006EB40003038C8F818002046E1681C
:100440008847064602F0E4FB0028EED1012F0AD0CF
:100450002E2E08D12046E16888477F1C0646022FD1
:1004600045F02005C4DBA069002803DA404245F0CE
:100470000105A061E80701D025F01005B6B1A6F18D
:100480004100192802D8203645F400654A46314615
:10049000204625604D46FFF7D9FE58B1012806D009
:1004A000ED1D25F0070000F1080989E704E005F1DA
:1004B000040985E730468AE7206ABDE8F0874FF0F7
:1004C000000200B5134694469646203922BFA0E8A4
:1004D0000C50A0E80C50B1F12001BFF4F7AF0907B0
:1004E00028BFA0E80C5048BF0CC05DF804EB8900A1
:1004F00028BF40F8042B08BF704748BF20F8022BE4
:1005000011F0804F18BF00F8012B704770477047FB
:1005100070472DE9F0470D4699469246044600F192
:1005200024080168880604D5E06921F010012160E3
:1005300000E00120A84201DD471B00E00027A1697F
:100540007A1902EB0900081AA0612078C00602D4CB
:100550002046FFF7C9FE002608E0D4E901211AF879
:1005600006009047206A401C761C20624E45F4DB52
:100570002078C0060AD52046FFF7B6FE06E0D4E98B
:10058000012130209047206A401C2062381EA7F1CC
:100590000107F4DC07E0D4E9012118F805009047D1
:1005A000206A401C2062281EA5F10105F3DC2046CC
:1005B000FFF7B0FE2078000602D50220BDE8F087E4
:1005C0000120FBE701694A1C02610878704700B509
:1005D0008FB0CDE901310021059105497944CDE97C
:1005E000031011466846FFF7E3FE0FB000BD0000A0
:1005F000E5FFFFFF0A6802F8010B0A6070477546C5
:1006000000F02CF8AE4605006946534620F007007E
:10061000854618B020B5FFF741FEBDE820404FF0F9
:1006200000064FF000074FF000084FF0000B21F0DC
:100630000701AC46ACE8C009ACE8C009ACE8C009A9
:10064000ACE8C0098D46704710B50446AFF3008092
:100650002046BDE81040FFF70DBE0000004870477F
:10066000D401002001491820ABBEFEE7260002009D
:1006700070470000104800218279C01D012A0BD06C
:10068000022A11D0032A06D18278521CD2B282707B
:100690003C2A00D3817070470278521CD2B202709B
:1006A000182AF8D3017070474278521CD2B24270B7
:1006B0003C2AF8D34170704700000020FEE77047E5
:1006C000002240F6B83306E00021491C89B2994265
:1006D000FBD3521C92B28242F6D3704772B6FEE749
:1006E00070B5044600F0FCF80546601C02D00448D2
:1006F0004068044400F0F4F8401BA042FAD370BDF7
:10070000300000202DE9FC4FDFF8A0A100230125D7
:100710000AF1040B03244FF00F0C0BF1040EBDE0A3
:1007200005FA03F632406FD04F68012F05D0022F33
:1007300003D0112F01D0122F17D1D0F808905F00ED
:1007400004FA07F829EA08090097D1F80C8008FA9A
:1007500007F848EA0908C0F808804768B7430E79E7
:10076000C6F300169E403E434660C6684FEA430803
:1007700004FA08F7BE4301978F6807FA08F7374372
:10078000C7604E68022E01D0122E13D1DE0800EB96
:1007900086060096366A5F07FF0E0CFA07F926EA0E
:1007A0000906D1F8109009FA07F949EA0609009EEE
:1007B000C6F820900668019FBE430F7907F0030733
:1007C00007FA08F7374307604E68F60065D5384EDC
:1007D000376E47F001073766366E23F0030706F0E1
:1007E00001060096334E3E44B146B6689F074FEA75
:1007F00017780CFA08F7BE43B0F1904F05D02E4F92
:10080000B84204D1012717E047E0002714E02B4F3E
:10081000B84201D102270FE0294FB84201D1032786
:100820000AE0284FB84201D1042705E0264FB8421C
:1008300001D1052700E0062707FA08F73743C9F872
:100840000870DAF800605746D1F8048096435FEAF2
:10085000C83800D516433E60DBF800605F46D1F82B
:10086000048096435FEA883800D516433E60DEF880
:1008700000607746D1F8048096435FEAC82800D527
:1008800016433E60094F0C373E68D1F8048096430A
:100890005FEA882800D516433E605B1C0A6832FA7E
:1008A00003F67FF43DAFBDE8FC8F0000000401407B
:1008B0000010024000000140000400480008004809
:1008C000000C00480010004800140048006908406F
:1008D00000D0012070470AB1816170478162704782
:1008E000014880687047000030000020024881689D
:1008F00042681144816070473000002010B5002428
:10090000032000F073F8002000F008F808B101247B
:1009100001E000F025F8204610BD000070B50E4E35
:1009200005460024706898B14FF47A71B1FBF0F07D
:100930000A490968B1FBF0F000F0FCFB40B9102D4A
:1009400006D200222946501E00F030F8356000E043
:100950000124204670BD0000300000203C00002033
:100960000A4882B0016E41F001010166016E01F09A
:1009700001010091816D41F080518165806D00F031
:100980008050009002B000F0A1B8000000100240BA
:10099000002809DB00F01F0201219140400980007E
:1009A00000F1E020C0F8001170470000F0B40E4BD9
:1009B0001B680C46C3F30223C3F10705042D00D9BD
:1009C0000425191D072901D2002300E0DB1E0126A2
:1009D00006FA05F1491E214099409E40761E1640B8
:1009E0003143F0BC02F004B90CED00E0064900F020
:1009F000070208684FF6FF03184040EA0220034A46
:100A000010430860704700000CED00E00000FA059C
:100A10002B492C4B0A6832214A432B4940B1B0F58F
:100A2000007F086829D020F4C06040F480602CE08A
:100A30000868C0F34120022804D051F8800F20F448
:100A4000807022E0D1F8800020F48070C1F880002E
:100A5000086820F4C06040F400700860B2FBF3F056
:100A6000401C00E0401E4A69520501D50028F9D11A
:100A7000486940050AD503207047C0F34120022889
:100A800006D051F8800F40F4807008600020704755
:100A9000D1F8800040F48070C1F88000086820F42C
:100AA000C06040F400700860B2FBF3F0401C00E04E
:100AB000401E4A695205DBD50028F9D1D8E700006D
:100AC0003C00002040420F00007000400248816856
:100AD00041F4804181607047007000402DE9F0478B
:100AE0000E4605004FF0000725D0DFF8AC81D8F89E
:100AF000000000F00F00B0420CD2D8F8001021F036
:100B00000F013143C8F80010D8F8000000F00F00C2
:100B1000B04210D12968614CC80741F2883A5AD0D6
:100B20006868DFF87C91032808D0022820682DD05F
:100B3000400500282CDB0120BDE8F08720688001FB
:100B4000F9D5E06800F00302E068C0F30310401C30
:100B5000032A19D0534A00BFB2FBF0F0E268C2F397
:100B600006225043E268C2F34162521C5200B0FBBD
:100B7000F2F0484517D9A06810F0F00F0CD08807A4
:100B800011D5A86840B10EE0474AE5E78003D0E7F9
:100B900000F092F8484506D9A06820F0F00040F037
:100BA0008000A0608027A068696820F003000843E7
:100BB000A060FFF795FE814606E000BFFFF790FEBC
:100BC000A0EB090151453AD8A068696800F00C0013
:100BD000B0EB810FF2D12868810714D5400703D507
:100BE000A06840F4E060A0602878000705D5A06800
:100BF00020F4605040F4E060A060A068A96820F094
:100C0000F000084304E0802F03D1A06820F0F0003A
:100C1000A060D8F80010404601F00F01B14216D98B
:100C2000016821F00F0131430160FFF759FE0746CB
:100C300007E000BFFFF754FEC11B514501D9032057
:100C40007AE7D8F8000000F00F00B042F2D128781F
:100C5000400705D5A068E96820F4E0600843A0607B
:100C60002878000706D5A068296920F4605040EA7A
:100C7000C100A06000F020F8A1680C4AC1F3031184
:100C8000515C01F01F01C84009490860094800682B
:100C9000BDE8F047FFF742BE0020024000100240CE
:100CA00000B4C4040024F40000366E01E23E0008E3
:100CB0003C00002030000020184910B58868C0F3BF
:100CC00081021748012A0BD08A68164BC2F38102B1
:100CD000022A06D08A68C2F38102032A03D00020C8
:100CE00010BD184610BDCA6802F00304CA68C2F3FA
:100CF0000312521C032C02D0B0FBF2F001E0B3FB54
:100D0000F2F0CA68C968C2F306225043C1F34161D8
:100D1000491C4900B0FBF1F010BD0000001002407A
:100D20000024F40000366E012DE9F84304007AD067
:100D30002078FA4DC00747D0A868E96800F00C0099
:100D400001F003010C2802D0082817D001E0032984
:100D500014D06068B0F5803F17D0B0F5A02F286898
:100D600017D020F480302860286820F48020286084
:100D70006068E0B1FFF7B4FD064614E02868800320
:100D800022D560680028D2D01EE0286840F4803068
:100D9000EDE740F480202860F7E700BFFFF7A0FDF3
:100DA000801B642870D828688003F7D50CE0FFF713
:100DB00097FD064605E000BFFFF792FD801B642803
:100DC000F0D828688003F7D4207880074CD5A8682D
:100DD000E96800F00C0001F003010C2802D004289F
:100DE0000DD001E002290AD0E068002828682BD045
:100DF00040F480702860FFF773FD064619E028680C
:100E0000400502D5E068002891D06868217C20F078
:100E1000FE4040EA01606860C1480068FFF77EFD5F
:100E2000002800D120E076E1FFF75AFD801B022860
:100E3000B8D828684005F7D56868217C20F0FE40C6
:100E400040EA016068600FE020F480702860FFF7DE
:100E500047FD064605E000BFFFF742FD801B022864
:100E6000A0D828684005F7D42078000729D5606904
:100E70000028D5F8940013D040F00100C5F8940084
:100E8000FFF72EFD064606E090E000BFFFF728FDC5
:100E9000801B022886D8D5F894008007F6D510E08C
:100EA00020F00100C5F89400FFF71AFD064604E0A3
:100EB000FFF716FD801B022878D8D5F8940080072C
:100EC000F6D42078400761D5A86D0026C00008D46C
:100ED000A86D40F08050A865A86D012600F08050F4
:100EE000009090480168C90511D40168804641F41A
:100EF00080710160FFF7F4FC074604E0FFF7F0FCA7
:100F0000C01B022852D8D8F80000C005F6D5A0684A
:100F1000012815D00528D5F8900016D020F0010042
:100F2000C5F89000D5F8900020F00400C5F89000B6
:100F3000A06841F28838B8B1FFF7D2FC07460EE04E
:100F4000D5F8900040F00100F0E740F00400C5F84B
:100F50009000F5E7FFF7C4FCC11B414526D8D5F842
:100F600090008007F6D50CE0FFF7BAFC074604E0D6
:100F7000FFF7B6FCC11B414518D8D5F89000800793
:100F8000F6D41EB1A86D20F08050A86520788006A8
:100F900029D5A0690028D5F8980013D040F00100A9
:100FA000C5F89800FFF79CFC064606E077E000BF16
:100FB000FFF796FC801B022877D8D5F898008007A9
:100FC000F6D510E020F00100C5F89800FFF788FC86
:100FD000064604E0FFF784FC801B022865D8D5F89C
:100FE00098008007F6D4E069F0B3A968C1F38101E5
:100FF000032961D00228286820F0807028600BD077
:10100000E86820F00300E860E86847490840E860C5
:10101000FFF766FC04464BE0FFF762FC064604E07F
:10102000FFF75EFC801B02283FD828688001F7D4B8
:10103000F4E908016FF00F0202EB01110843218A65
:101040005204490802EB4151A26841EA02210843D7
:10105000217D4FF07E42490802EB41610843217B2C
:1010600040EAC160E96800E062E0304A11400843AC
:10107000E860286840F080702860E86840F0807080
:10108000E860FFF72DFC044605E000BFFFF728FCF1
:10109000001B022809D828688001F7D548E004E041
:1010A000FFF71EFC001B022802D90320BDE8F883CD
:1010B00028688001F4D43BE00128F7D0E868226A70
:1010C00000F00301914226D1616A00F0F0020901AB
:1010D000103991421FD1A26A00F4FE41B1EB022FF8
:1010E00019D194F82C2000F07841B1EBC26F12D1E5
:1010F000218E00F4C00249084905A1F50011914272
:1011000009D194F8341000F0C06049084906A1F1F3
:10111000007181420CD00120C8E70000001002409D
:101120003000002000700040FFFFEEFE0C809F01A9
:101130000020BBE710B5401EB0F1807F01D3012035
:1011400010BD4FF0E02460610F21601701F050FDE9
:101150000020A06107202061002010BDF0B590F8AC
:101160003C20012A3AD0012580F83C50022280F828
:101170003D2003685A689C68194E1A4FB34201D04B
:10118000BB4204D122F4700C4A6842EA0C02DFF838
:1011900058C002EA0C02D1F800C04CEA020CC3F8B5
:1011A00004C00268B2420DD0B2F1804F0AD00F4B9A
:1011B0009A4207D00E4B9A4204D0BA4202D00D4B4D
:1011C0009A4204D1896824F080031943916080F821
:1011D0003D50002180F83C100846F0BD0220F0BDD3
:1011E000002C0140003401408FFFFFFD000400404F
:1011F000000800400040014010B5040003D094F8FE
:101200003D0010B107E0012010BD002084F83C0033
:10121000204600F023F8022084F83D00211D2068BC
:1012200001F0B2FA012084F8480084F83E0084F806
:101230003F0084F8400084F8410084F8420084F8BC
:10124000430084F8440084F8450084F8460084F89C
:10125000470084F83D00002010BD000010B586B0A6
:10126000044614216846FFF72AF921683348B1F192
:10127000804F0AD0324A91422DD1816D41F0020156
:101280008165806D00F0020056E0816D41F0010142
:101290008165816D01F001010591C16C41F0010191
:1012A000C164C06C694600F0010005904FF4004035
:1012B00000900220019000200290039001200490F1
:1012C0004FF09040FFF71EFA002202211C20FFF78A
:1012D0006DFB1C2010E01B4A914211D1816D41F041
:1012E00010018165806D002200F01000059003213F
:1012F0003620FFF75BFB3620FFF74AFB06B010BD38
:10130000114A91420ED1016E41F480310166006EA6
:10131000002200F48030059003211820FFF746FBDF
:101320001820E9E7094A9142E8D1016E41F4802191
:101330000166006E00F480200590DFE70010024097
:1013400000040040001000400040014000480140FF
:1013500070B5044690F83C00012814D0012584F8AB
:101360003C50022084F83D0022689068344B1840BD
:1013700020F47F4090600868702827D010DC10F0BF
:101380000F0F03D04AE04FF0020070BD4FEA201269
:10139000072A43D2DFE802F050505050483139005C
:1013A000284BC21A984247D009DCB0F5805F35D08F
:1013B000B0F5005F15D0B0F1101F2FD13CE0102A1E
:1013C0003AD0202A38D0502A28D135E0CB68D1E94C
:1013D0000121206801F03DFA2068816841F0770121
:1013E00009E0CB68D1E90121206801F032FA2068D8
:1013F000816841F48041816010E0CA6849682068D2
:1014000001F0D2FB5021206806E0CA6849682068D4
:1014100001F0DBFB6021206801F026FA84F83D50E2
:10142000002084F83C0070BDCA684968206801F05B
:10143000BBFB40212068EFE7226801461046EBE73E
:1014400088FFCEFF2000100030B587B0044614217D
:101450006846FFF734F824681F4D00231F4A022115
:101460004FF09040AC420DD1D46C44F00104D464F0
:10147000D26CCDE9023102F0010205924022CDE9A1
:10148000002110E0164DAC4213D1D46C44F001049D
:10149000D464D26CCDE9023102F00102059204223B
:1014A000CDE90021092104916946FFF72BF907B026
:1014B00030BD0C4DAC42FAD1D46C44F00104D4647C
:1014C000D26CCDE9023102F0010205928022CDE911
:1014D00000210121E7E70000000400400010024065
:1014E000004001400048014070B5044690F83C00BF
:1014F0000D4601280BD0012084F83C000C2A45D071
:1015000007DC5AB1042A1BD0082A78D12CE002202B
:1015100070BD102A4ED0142A71D15DE0206801F010
:10152000ADF92068816941F0080181612068816915
:1015300021F004018161206881692A69114311E069
:10154000206801F0E9F92068816941F40061816156
:101550002068816921F480618161206881692A693C
:1015600041EA022181614AE0206801F01DFA206809
:10157000C16941F00801C1612068C16921F004011D
:10158000C1612068C1692A69114311E0206801F036
:1015900053FA2068C16941F40061C1612068C169E2
:1015A00021F48061C1612068C1692A6941EA022190
:1015B000C16124E0206801F087FA2068016D41F0E4
:1015C000080101652068016D21F0040101652068B2
:1015D000016D2A69114311E0206801F0ADFA20681D
:1015E000016D41F4006101652068016D21F48061A5
:1015F00001652068016D2A6941EA02210165002028
:1016000084F83C0070BD10B5040003D094F83D0090
:1016100010B107E0012010BD002084F83C002046F6
:1016200000F022F8022084F83D00211D206801F01E
:10163000ABF8012084F8480084F83E0084F83F00AD
:1016400084F8400084F8410084F8420084F84300A4
:1016500084F8440084F8450084F8460084F8470084
:1016600084F83D00002010BD7047000030B50446EE
:10167000022269B1042912D0082917D00C291CD0E4
:10168000102921D094F84300012824D0012030BD36
:1016900094F83E000128F9D184F83E201DE094F82A
:1016A0003F000128F2D184F83F2016E094F8400072
:1016B0000128EBD184F840200FE094F84100012884
:1016C000E4D184F8412008E094F842000128DDD1FB
:1016D00084F8422001E084F843200122206801F0D0
:1016E000ABF8194B20681949194A984209D0884229
:1016F00007D0904205D0174DA84202D0164DA842FF
:1017000003D1456C45F400454564206898420CD0EF
:10171000B0F1804F09D0114B984206D0104B98423F
:1017200003D0884201D0904207D181680D4A114010
:10173000062906D0B1F5803F03D0016841F00101D0
:101740000160002030BD0000002C01400034014049
:1017500000400140004401400048014000040040B6
:10176000000800400700010030B504460D4600683F
:10177000002201F061F8224B41F2111120688A0029
:1017800098420BD01F4B984208D01F4B984205D06F
:101790001E4B984202D01E4B984209D1036A0B425D
:1017A00006D1036A134203D1436C23F4004343641C
:1017B0002068036A0B4206D1016A114203D1016815
:1017C00021F00101016001205DB1042D0CD0082D34
:1017D0000DD00C2D0ED0102D0FD084F8430000201A
:1017E00030BD84F83E00FAE784F83F00F7E784F85C
:1017F0004000F4E784F84100F1E784F84200EEE7A6
:10180000002C0140003401400040014000440140F0
:1018100000480140FEE7000000B585B0142168468D
:10182000FEF74DFEC02000900120019002900220A2
:10183000039069460248FEF765FF05B000BD000051
:101840000004004870B50824002500F017FF13E0DD
:101850006806050E002000F0F9FE142001F0DFF903
:10186000142001F0DCF9012000F0F0FE142001F05A
:10187000D6F900F0F7FE0543641EE4B2E8D200207A
:1018800000F0E4FE142001F0CAF900F019FF284628
:1018900070BD10B5002000F007FF142001F0BFF963
:1018A000142001F0BCF9012000F0D0FE142001F05A
:1018B000B6F9002000F0CAFEBDE81040142001F087
:1018C000AEB970B50446082516E000F0BFFE14203E
:1018D00001F0A5F904F0800000F0E6FE142001F00C
:1018E0009EF96006040E142001F099F9012000F021
:1018F000ADFE142001F093F96D1EEDB24FF0000023
:10190000E3D200F0A3FEBDE87040142001F087B9D7
:1019100010B5012000F0C8FE142001F080F9142059
:1019200001F07DF9012000F091FE142001F077F91B
:10193000002000F08BFEBDE81040142001F06FB9CC
:1019400010B5012000F0B0FE142001F068F901206C
:1019500000F07CFE142001F062F9002000F0A4FEEB
:10196000142001F05CF9002000F070FEBDE810408A
:10197000142001F054B910B5002000F067FE1420C7
:1019800001F04DF9002000F08FFE142001F047F91E
:10199000012000F05BFE142001F041F9012000F06D
:1019A00083FEBDE81040142001F039B910B50524BC
:1019B00000F064FE142001F032F9012000F046FE30
:1019C000142001F02CF905E0641EA4B2142001F0EB
:1019D00026F964B100F046FE0028F5D100F036FE8D
:1019E000142001F01CF900F06BFE002010BD00F087
:1019F00067FEFFF7C0FF012010BD00002DE9F04198
:101A000086B014216846FEF75AFD3648C16C41F095
:101A10000401C164C16C01F004010591C16C41F085
:101A20002001C164C16C01F020010591C16C41F03D
:101A30000101C164C16C01F001010591C16C41F06B
:101A40000201C164C16C01F002010591C16C41F059
:101A50000801C164C06C244F00F008004FF47F46B9
:101A60000590012231463846FEF735FFDFF87C80CD
:101A7000002204214046FEF72EFF01250024009697
:101A8000CDE90154694638460394FEF73BFECDE9A3
:101A9000005469464FF090400294FEF733FE072051
:101AA000CDE90004694612480294FEF72BFE04209B
:101AB0000090CDE90154694640460394FEF722FEAA
:101AC000012231463846FEF706FF01220421404636
:101AD000FEF701FF002204214046FEF7FCFE06B09F
:101AE000BDE8F0810010024000080048000C0048EA
:101AF0000004004870B54A4D28684A4CE168401A15
:101B0000322842D32868E06000F090F860702179B4
:101B100030EA010281EA0001A27021EA0001E170CD
:101B2000207101D02A68A2612A68A3690025D21A0F
:101B3000B2F5487F44D2012001292ED002291DD0C0
:101B4000032969D0042920D1A07904281ED00420BB
:101B5000A07134484FF46162C01D017811FB02F19D
:101B600042788078C2EB021201EB82010844E06106
:101B7000BDE8704000212C48FFF778BDA179491CD1
:101B8000C9B2A171042900D1A07170BD6571002195
:101B90002548FFF7E9FD0520F6E72178491CC9B281
:101BA0002170062900D120702078BDE87040401EC9
:101BB00000EB4000C1B21B480322C01D01F035B844
:101BC000022817D0032827D00428DED1A0790428C2
:101BD000DBD1657100211448FFF7C6FD2078032290
:101BE000401E00EB4000C1B20E48C01D01F01DF8C0
:101BF000A57170BDA079012803D0022801D0032867
:101C0000F7D120780322401E00EB4000C1B2054806
:101C1000C01D01F033F8EBE7BDE87040FEF72ABDC8
:101C20003800002000000020A400002070B50E4DF8
:101C3000002401212846FEF749FE00B901240221B3
:101C40002846FEF743FE00B9022404212846FEF789
:101C50003DFE00B9032401214FF09040FEF736FE0F
:101C600000B90424204670BD0004004800B585B0CA
:101C700014216846FEF723FC4FF6FF700090002009
:101C80000321CDE90201019069460248FEF73AFDC1
:101C900005B000BD0008004800B585B014216846B5
:101CA000FEF70DFC4FF6FF7000900120019003201D
:101CB00003900020029069460248FEF723FD05B01C
:101CC00000BD00000008004870B50024064621460B
:101CD000204600F003F900F041F94FF49635304604
:101CE00000F010F9641CAC42F9D370BD30B587B078
:101CF00014216846FEF7E3FB1E48C16C41F0040165
:101D0000C164C16C01F004010591C16C41F0010195
:101D1000C164C16C01F001010591C16C41F0020187
:101D2000C164C06C012500F0020005904FF44870BA
:101D3000CDE9000500240394694602940E48FEF79D
:101D4000E1FC280203940090CDE901544FF0904447
:101D500069462046FEF7D6FCFFF79EFFA06940F4D7
:101D60008070A06104481830016841F40871016076
:101D700007B030BD0010024000040048203AD2B243
:101D8000034B02EB420203EB021200F019B8000011
:101D9000122D0008F0B50E460746002540F23F140C
:101DA00007E021463846FFF7E9FF103C6D1CA4B25E
:101DB000761C3278002A01D0142DF2D3F0BD000039
:101DC0002DE9F04791468A460026044600F086F841
:101DD000DFF84080012700BF00F0C0F85FF0000589
:101DE00039F8160007FA05F10842404601D140884B
:101DF00000E0008800F086F86D1C102DF0D3641C04
:101E0000E4B25146204600F069F8761C182EE3D360
:101E1000BDE8F0872800002010B5FFF767FF00201D
:101E200000F014F8084CA080A088A0F502413039D9
:101E300006D000F009FB002000F008F8A08010BDDB
:101E400000F079FAF7E700002800002070B51D497E
:101E50000A6842F400720A600A6842F480720A60FA
:101E6000184C103C226842F020022260164A106092
:101E7000086840F02000086000BF00BF00BF206875
:101E800040F020002060206840F480702060FFF760
:101E9000EDFE4FF09041886A40F48070886200BF88
:101EA00000BF00BF0848001F006885B2886940F481
:101EB00080708861FFF7F0FE206840F400702060B9
:101EC000284670BD280400481408004801B5BDF834
:101ED00000000149488008BD2800002010B50C46CC
:101EE0000146202000F068F82146BDE8104021207E
:101EF00000F062B801B5BDF800000149088008BDD6
:101F000028000020134A116841F400711160114942
:101F100010390B6843F480730B600B6843F02003A7
:101F20000B600D4B1860106840F02000106000BF7F
:101F300000BF00BF086840F020000860086840F457
:101F40008070086000BF00BF00BF086840F40070E8
:101F500008607047280400481408004814490868BD
:101F600040F400700860086840F480700860104811
:101F70001038026842F0200202600E4B22221A60E2
:101F80000A6842F020020A6000BF00BF00BF01687B
:101F900041F020010160016841F48071016000BFDF
:101FA00000BF00BF016841F400710160704700008C
:101FB0002804004814080048184B10B51A6842F469
:101FC00000721A601A6842F480721A60134A103A5A
:101FD000146844F020041460114C2060186840F02C
:101FE0002000186000BF00BF00BF106840F0200054
:101FF0001060106840F4807010602160186840F034
:102000002000186000BF00BF00BF106840F0200033
:102010001060106840F48070106010BD2804004803
:102020001408004870B5124D044601224FF47F4158
:102030002846FEF750FC0F4E012204213046FEF7E1
:102040004AFC002204213046FEF745FC2102002212
:102050002846FEF740FC012204213046FEF73BFCF7
:102060003046BDE8704000220421FEF734BC000079
:1020700000080048000C00482DE9F0416248016862
:10208000624C6269891A64297ED301686161A17911
:10209000E51D04292FD10168226A891AB1F57A7FDA
:1020A0001DD301682162E169491EE161E2694FF4D3
:1020B0006161B2FBF1F22A70E269B2FBF1F301FB5C
:1020C00013233C22B3FBF2F36B70E369B3FBF1F62D
:1020D00001FB1631B1FBF2F302FB1311A970016889
:1020E000626A891AB1F5FA7F05D300686062607987
:1020F00080F001006071227845A14848FEF7E0F8C1
:1021000046494820FFF746FEA0794FF6E0780128BF
:1021100002D14046FFF7DAFE28780A26B0FBF6F037
:102120003030C2B2E0217820FFF728FE2878B0FBDB
:10213000F6F106FB1102D02178203032FFF71EFEA7
:102140004FF6FF773846FFF7C1FE3A22C0217820CC
:10215000FFF714FEA079022802D14046FFF7B6FE31
:102160006878B021B0FBF6F03030C2B27820FFF7CB
:1021700005FE6878B0FBF6F106FB1102A02178207D
:102180003032FFF7FBFD00E03BE03846FFF79EFEF4
:102190003A2290217820FFF7F1FDA079032802D19F
:1021A0004046FFF793FEA8788021B0FBF6F0303070
:1021B000C2B27820FFF7E2FDA878B0FBF6F106FB8B
:1021C0001102702178203032FFF7D8FD3846FFF732
:1021D0007DFEA079062814D2DFE800F0030505058E
:1021E00007090FA104E013A102E017A100E01BA161
:1021F0000A48FEF765F8BDE8F0410849A820FFF756
:10220000C9BDBDE8F08100003800002000000020BA
:1022100020204E6F20253164000000004000002087
:10222000202020205374616E6462792020202020B9
:10223000000000002020202053657474696E672020
:1022400020202020000000002020202052756E6EEB
:10225000696E672020202020000000002020202020
:1022600050617573652020202020000006490A680F
:1022700006480369D21AC82A04D309680161407963
:10228000FFF7D0BE7047000038000020000000209B
:10229000FEE7FEE710B58EB0002407940894099479
:1022A0000A940B940C941C2168460D94FEF707F9D0
:1022B0001F481E4901604F21C0E9011440F2E73177
:1022C000C0E9031480218161FEF796FF08B1FEF793
:1022D00005FA4FF48050079007A91548FFF738F822
:1022E00008B1FEF7FBF91248FFF78DF908B1FEF7C8
:1022F000F5F90B940BA90E480D94FEF72FFF08B1CA
:10230000FEF7ECF9602000904FF44870CDE901042D
:102310000022694606480494FFF7E6F808B1FEF784
:10232000DDF90348FFF790F80EB010BD000400403F
:10233000A4000020704730B501210020FFF73CFECB
:102340004FF47A70FEF7BCF900210120FFF734FE4C
:1023500041F290711020FFF72FFE4FF41C516020C6
:10236000FFF72AFE01216120FFF726FE0221462009
:10237000FFF722FE48F210011320FFF71DFE48F27E
:10238000FE011220FFF718FE4FF4A0610220FFF7B4
:1023900013FE41F230010320FFF70EFE40F203343A
:1023A00021463020FFF708FE21463120FFF704FECA
:1023B00021463220FFF700FEE51E29463320FFF7B5
:1023C000FBFD03213420FFF7F7FD21463520FFF701
:1023D000F3FD14213620FFF7EFFD21463720FFF7EC
:1023E000EBFD21463820FFF7E7FD21463920FFF7B6
:1023F000E3FD29463A20FFF7DFFD03213B20FFF7ED
:10240000DBFD21463C20FFF7D7FD4FF4A0513D20D6
:10241000FFF7D2FD4FF400719220FFF7CDFD21466A
:102420009320FFF7C9FD40F60D019020FFF7C4FD92
:1024300041F218010320FFF7BFFDBDE8304040F234
:1024400073110720FFF7B8BD10B543F20801E32070
:10245000FFF7B2FD1221E720FFF7AEFD41F2312177
:10246000EF20FFF7A9FD00210120FFF7A5FD4FF4A4
:10247000E0610220FFF7A0FD41F230010320FFF7E9
:102480009BFD00210420FFF797FD40F20721082063
:10249000FFF792FD00210920FFF78EFD00210A20A1
:1024A000FFF78AFD00210C20FFF786FD00210D209B
:1024B000FFF782FD00210F20FFF77EFD0021102095
:1024C000FFF77AFD07211120FFF776FD002112208A
:1024D000FFF772FD00211320FFF76EFDC820FEF705
:1024E000FFF841F290611020FFF766FD40F22721CE
:1024F0001120FFF761FD3220FEF7F2F81D211220B6
:10250000FFF75AFD3220FEF7EBF84FF4006113207D
:10251000FFF752FD14212920FFF74EFD0B212B2040
:10252000FFF74AFD3220FEF7DBF800212020FFF7FD
:1025300043FD00212120FFF73FFD07213020FFF759
:102540003BFD40F207713120FFF736FD06213220B6
:10255000FFF732FD40F204713520FFF72DFD41F603
:1025600004713620FFF728FD04213720FFF724FDF2
:1025700000213820FFF720FD40F206713920FFF7D7
:102580001BFD40F201713C20FFF716FD0F213D209D
:10259000FFF712FD00215020FFF70EFDEF21512023
:1025A000FFF70AFD00215220FFF706FD40F23F1120
:1025B0005320FFF701FD4FF41C516020FFF7FCFC96
:1025C00001216120FFF7F8FC00216A20FFF7F4FCED
:1025D00000218020FFF7F0FC00218120FFF7ECFCB8
:1025E00000218220FFF7E8FC00218320FFF7E4FCB4
:1025F00000218420FFF7E0FC00218520FFF7DCFCB0
:1026000010219020FFF7D8FC00219220FFF7D4FC86
:1026100003219320FFF7D0FC4FF488719520FFF73A
:10262000CBFC00219720FFF7C7FC00219820FFF783
:10263000C3FC41F218010320FFF7BEFCBDE81040C7
:1026400040F273110720FFF7B7BC000008B104483F
:1026500001E003481030016841F04001016070471B
:102660001804004810B580210348FEF72FF901280F
:1026700000D0002010BD00000004004800B585B067
:1026800014216846FDF71BFF802000900020019078
:10269000012002900220039069460248FEF732F8BA
:1026A00005B000BD0004004808B1044801E003483B
:1026B0001030016841F08001016070471804004843
:1026C00000B585B014216846FDF7F9FE8020009022
:1026D00011200190002002900220039069460248D8
:1026E000FEF710F805B000BD000400487047FEF783
:1026F000FDB8000010B5A6B038216846FDF7DFFE32
:1027000014210EA8FDF7DBFE442113A8FDF7D7FE28
:102710004FF40070FEF77CF9012000900004019056
:1027200002200324CDE907041421CDE90A100C90FE
:102730000D9009946846FEF7F7FA08B1FDF7CEFF51
:102740000F20CDE90E04002010901190129002216C
:102750000EA8FEF7C3F908B1FDF7C0FF0548C16C2C
:1027600041F02001C164C06C00F02000249026B02C
:1027700010BD0000001002400248016841F47001E1
:102780000160704788ED00E02DE9F0430268234BBB
:10279000234D244E244C4FF08049984207D04845A1
:1027A00005D0A84203D0B04201D0A04203D122F00C
:1027B00070074A683A431D4FDFF874C0DFF8748031
:1027C00098420DD048450BD0A84209D0B04207D05E
:1027D000A04205D0B84203D0604501D0404503D1A6
:1027E00022F44075CA682A434D6922F080022A43C8
:1027F00002608A68C2620A688262984207D0A04278
:1028000005D0B84203D0604501D0404501D10969E7
:10281000016301214161BDE8F0830000002C01400B
:102820000004004000080040003401400040014026
:10283000004401400048014010B501F01F03012190
:10284000046A99408C430462016A9A401143016210
:1028500010BD10B5846842EA032224F47F440A4381
:102860002243826010BD00008268034B1A400A4375
:1028700042F00701816070478FFFCFFF2DE9F043E1
:10288000026A22F001020262056A436882691C4CF6
:1028900025F0020522400C6822F0030214438A68E6
:1028A000194E2A43174D194FDFF864C0DFF86490C2
:1028B000A84207D0B04205D0B84203D0604501D04D
:1028C000484506D122F00808CA6842EA080222F008
:1028D0000402A84207D0B04205D0B84203D06045F8
:1028E00001D0484505D14D6923F440731D438B69E0
:1028F0002B4343608461496841630262BDE8F08311
:102900008FFFFEFF002C01400034014000400140D9
:102910000044014000480140F0B5026A22F0100274
:102920000262056A42688369194C1B4E23400C6899
:1029300023F4407343EA042425F020038D6843EA1E
:102940000513144DA84201D0B04206D1CF6823F040
:10295000800343EA071323F04003A8420AD0B042A1
:1029600008D00E4DA84205D00D4DA84202D00D4D05
:10297000A84207D14D6922F4406242EA85028D697E
:1029800042EA850242608461496881630362F0BD66
:10299000FF8FFFFE002C0140003401400040014049
:1029A0000044014000480140F0B5026A22F4807200
:1029B0000262056A4368C269194C1B4E22400C68CA
:1029C00022F00302144325F400728D6842EA0522C6
:1029D000144DA84201D0B04206D1CF6822F4006263
:1029E00042EA072222F48062A8420AD0B04208D00C
:1029F0000E4DA84205D00E4DA84202D00D4DA84262
:102A000007D14D6923F4405343EA05138D6943EA26
:102A100005134360C4614968C1630262F0BD0000F0
:102A20008FFFFEFF002C01400034014000400140B8
:102A30000044014000480140F0B5026A22F480528F
:102A40000262056A4268C369194C1B4E23400C6838
:102A500023F4407343EA042425F400538D6843EAC9
:102A60000533144DA84201D0B04206D1CF6823F4FB
:102A7000004343EA073323F48043A8420AD0B0421C
:102A800008D00E4DA84205D00D4DA84202D00D4DE4
:102A9000A84207D14D6922F4404242EA85128D696D
:102AA00042EA85124260C461496801640362F0BD74
:102AB000FF8FFFFE002C0140003401400040014028
:102AC000004401400048014030B5026A22F48032DF
:102AD0000262046A4268036D114D2B400D681D436C
:102AE00024F400330C8943EA04430E4CA0420BD07B
:102AF0000D4CA04208D00D4CA04205D00C4CA04279
:102B000002D00C4CA04204D14C6922F4803242EA3B
:102B100004224260056549688164036230BD00009B
:102B20008FFFFEFF002C01400034014000400140B7
:102B3000004401400048014030B5026A22F480128E
:102B40000262046A4268036D114D24F400142B40A4
:102B50000D6843EA05230D8944EA05540D4DA8424A
:102B60000BD00D4DA84208D00C4DA84205D00C4DFD
:102B7000A84202D00B4DA84204D14D6922F4802214
:102B800042EA8522426003654968C164046230BD3F
:102B9000FF8FFFFE002C0140003401400040014047
:102BA000004401400048014010B5036A046A24F063
:102BB00001040462846924F0F00444EA021423F05E
:102BC0000A020A438461026210BD10B5036A23F051
:102BD000100303628369046A23F4704343EA0232F8
:102BE00024F0A00343EA01118261016210BDFEE7F7
:102BF0000907090E002804DB00F1E02080F800142A
:102C0000704700F00F0000F1E02080F8141D7047BD
:102C100030380A2801D20120704700207047002177
:102C200000E0491C8142FCD3704770B515460E4642
:102C30000446FEF785FEA020FEF743FEFEF7B6FE33
:102C40003046FEF73EFEFEF7B1FEFEF779FEA1200C
:102C5000FEF737FEFEF7AAFE09E0FEF7F3FD04F8E3
:102C6000010B15B1FEF715FE01E0FEF751FE6D1EDA
:102C7000EDB2F2D2BDE87040FEF77DBE70B51546EC
:102C80000E460446FEF75CFEA020FEF71AFEFEF795
:102C90008DFE304602E000BF14F8010BFEF711FE76
:102CA000FEF784FE6D1EEDB2F6D2FEF764FEBDE8BF
:102CB00070404FF4FA70FFF7B2BF0000FDF71EFE40
:102CC000FFF718FDFEF79AFEFFF7A6F84FF6FF7420
:102CD0002046FEF7F9FF2046FFF7F8F81F20FFF720
:102CE00009F9FEF799FDFFF7D5FA032200210548FF
:102CF000FFF79BFFFEF7FEFEFFF7B8FAFFF7BCF900
:102D0000F8E70000070000204FF04070E1EE100AE5
:102D100070470000000000000000000000000000FC
:102D200000000000000000000000000000000000A3
:102D30000000000000000000000000000000000093
:102D4000000000008001800180018001800180017D
:102D500080018001800180018001800180010000EC
:102D60000000800180010000000000000000000061
:102D7000000000000000CC00CC00CC00CC00CC0057
:102D8000CC00000000000000000000000000000077
:102D90000000000000000000000000000000000033
:102DA0000000000000000000000000000000600CB7
:102DB000600C600C30063006FE1FFE1F3006380720
:102DC0001803FE1FFE1F180318038C018C018C01D1
:102DD000000000008000E003F80F9C0E8C1C8C1893
:102DE0008C009800F801E007800E801C8C188C186D
:102DF0009C18B80CF00FE003800080000000000079
:102E000000000000000000000E181B0C110C110641
:102E10001106110311039B018E01C038C06C604480
:102E20006044304430441844186C0C3800000000F2
:102E300000000000E001F003380718061806300310
:102E4000F001F000F8009C310E33061E061C061C33
:102E5000063FFC73F02100000000000000000000AD
:102E60000000000000000C000C000C000C000C0026
:102E70000C00000000000000000000000000000046
:102E80000000000000000000000000000000000042
:102E900000000000000200038001C000C0006000CC
:102EA0006000300030003000300030003000300072
:102EB000300060006000C000C0008001000300021C
:102EC0000000000020006000C000800180010003BD
:102ED00000030006000600060006000600060006C5
:102EE00000060003000380018001C0006000200094
:102EF0000000000000000000000000000000C00012
:102F0000C000D806F807E0013003380700000000D1
:102F100000000000000000000000000000000000B1
:102F20000000000000000000000000000000800120
:102F30008001800180018001FC3FFC3F8001800115
:102F400080018001800100000000000000000000FE
:102F50000000000000000000000000000000000071
:102F60000000000000000000000000000000000061
:102F700000000000800180010001000180000000CD
:102F80000000000000000000000000000000000041
:102F900000000000000000000000E007E007000063
:102FA0000000000000000000000000000000000021
:102FB0000000000000000000000000000000000011
:102FC0000000000000000000000000000000000001
:102FD00000000000C000C000000000000000000071
:102FE00000000000000C000C0006000600060003B4
:102FF000000300038003800180018001C000C00045
:10300000C000600060000000000000000000000040
:1030100000000000E003F007380E180C0C180C1824
:103020000C180C180C180C180C180C180C18180C80
:10303000380EF007E0030000000000000000000070
:103040000000000000018001C001F001980188012A
:103050008001800180018001800180018001800168
:1030600080018001800100000000000000000000DD
:1030700000000000E003F80F180C0C180C180018E2
:103080000018000C000600038001C0006000300042
:103090001800FC1FFC1F00000000000000000000E2
:1030A00000000000E001F807180E0C0C0C0C000CDE
:1030B0000006C003C007000C001800180C180C18FC
:1030C000180CF807E00300000000000000000000FA
:1030D00000000000000C000E000F000F800DC00C5F
:1030E000600C600C300C180C0C0CFC3FFC3F000C0E
:1030F000000C000C000C00000000000000000000AC
:1031000000000000F80FF80F180018000C00EC0386
:10311000FC071C0E001C0018001800180C181C0CD2
:10312000180EF807E0030000000000000000000097
:1031300000000000C007F00F381C181818000C0021
:10314000CC03EC0F3C0E1C1C0C180C180C18181C93
:10315000380EF007E003000000000000000000004F
:1031600000000000FC1FFC1F000C0006000600030E
:1031700080038001C001C000E000600060007000BA
:1031800030003000300000000000000000000000AF
:1031900000000000E003F007380E180C180C180CA3
:1031A0003806F007F007180C0C180C180C180C183F
:1031B000380CF80FE00300000000000000000000E1
:1031C00000000000E003F007380E1C0C0C180C186F
:1031D0000C181C1C381EF81BE0190018000C000C01
:1031E0001C0EF807F00100000000000000000000C5
:1031F000000000000000000000000000000080014E
:10320000800100000000000000000000000000003D
:1032100000008001800100000000000000000000AC
:10322000000000000000000000000000000080011D
:10323000800100000000000000000000000000000D
:1032400000008001800100010001800000000000FA
:10325000000000000000000000000000000000006E
:1032600000000010001C800FE003F8001800F800B8
:10327000E003800F001C00100000000000000000B0
:10328000000000000000000000000000000000003E
:103290000000F81F000000000000F81F0000000000
:1032A000000000000000000000000000000000001E
:1032B000000000000000000000000000000000000E
:1032C000000008003800F001C007001F0018001FB0
:1032D000C007F001380008000000000000000000F6
:1032E00000000000E003F80F180C0C180C18001870
:1032F000000C000600038001C000C000C0000000F8
:103300000000C000C000000000000000000000003D
:10331000000000000000E00718180420C229224A1B
:10332000114409440944094409221113E20C0240E2
:1033300004201818E0070000000000000000000052
:103340000000000080038003C006C006C006600CB9
:10335000600C301830183018F83FF83F1C700C60C3
:103360000C6006C006C00000000000000000000065
:1033700000000000FC03FC0F0C0C0C180C180C18BF
:103380000C0CFC07FC0F0C180C300C300C300C3003
:103390000C18FC1FFC0700000000000000000000EB
:1033A00000000000C007F01F38381C300C700660A9
:1033B00006000600060006000600060006600C7007
:1033C0001C30F01FE00700000000000000000000BB
:1033D00000000000FE03FE0F060E06180618063059
:1033E000063006300630063006300630061806185D
:1033F000060EFE0FFE0300000000000000000000AB
:1034000000000000FC3FFC3F0C000C000C000C0016
:103410000C00FC1FFC1F0C000C000C000C000C002E
:103420000C00FC3FFC3F000000000000000000001A
:1034300000000000F83FF83F1800180018001800BE
:103440001800F81FF81F18001800180018001800BE
:103450001800180018000000000000000000000024
:1034600000000000E00FF83F3C780E6006E007C067
:103470000300030003FE03FE03C007C006C00EC026
:103480003CF0F83FE00F00000000000000000000EA
:10349000000000000C300C300C300C300C300C30C4
:1034A0000C30FC3FFC3F0C300C300C300C300C303E
:1034B0000C300C300C300000000000000000000058
:1034C00000000000800180018001800180018001F6
:1034D00080018001800180018001800180018001E4
:1034E0008001800180010000000000000000000059
:1034F00000000000000600060006000600060006A8
:10350000000600060006000600060006180618065B
:103510003807F003E0010000000000000000000098
:103520000000000006300618060C06060603860199
:10353000C60066007600DE008E0106030606060C55
:1035400006180630066000000000000000000000C1
:1035500000000000180018001800180018001800DB
:10356000180018001800180018001800180018009B
:103570001800F81FF81F0000000000000000000005
:10358000000000000EE01EF01EF01EF036D836D807
:1035900036D836D866CC66CC66CCC6C6C6C6C6C6D5
:1035A000C6C686C386C300000000000000000000FD
:1035B000000000000C301C303C303C306C306C3073
:1035C000CC30CC308C310C330C330C360C360C3CFC
:1035D0000C3C0C380C300000000000000000000023
:1035E00000000000E007F81F1C380E70066003C0E2
:1035F00003C003C003C003C003C003C006600E7055
:103600001C38F81FE0070000000000000000000068
:1036100000000000FC0FFC1F0C380C300C300C308C
:103620000C300C18FC1FFC070C000C000C000C00EC
:103630000C000C000C000000000000000000000066
:1036400000000000E007F81F1C380E70066003E061
:1036500003C003C003C003C003C007E006630E3FFE
:103660001C3CF83FE0F700C0000000000000000034
:1036700000000000FE0FFE1F063806300630063040
:103680000638FE1FFE0706030606060C0618061877
:103690000630063006600000000000000000000058
:1036A00000000000E003F80F1C0C0C180C180C00B4
:1036B0001C00F803E00F001E0038063006300E3004
:1036C0001C1CF80FE00700000000000000000000D4
:1036D00000000000FE7FFE7F8001800180018001EC
:1036E00080018001800180018001800180018001D2
:1036F0008001800180010000000000000000000047
:10370000000000000C300C300C300C300C300C3051
:103710000C300C300C300C300C300C300C300C30C9
:103720001818F81FE007000000000000000000006B
:103730000000000003600630063006300C180C183C
:103740000C18180C180C380E300630067007600381
:103750006003C001C0010000000000000000000084
:10376000000000000360C361C361C3616633663358
:1037700066336633663366336C1B6C1B6C1B2C1A0A
:103780003C1E380E380E0000000000000000000053
:10379000000000000FE00C7018303018700C600E44
:1037A000C00780038003C003E006700C301C1818AB
:1037B0000C300E6007E00000000000000000000078
:1037C0000000000003C006600C301C383818300CB4
:1037D0006006E007C0038001800180018001800154
:1037E0008001800180010000000000000000000056
:1037F00000000000FC7FFC7F006000300018000C1F
:10380000000600038001C0006000300018000C00BA
:103810000600FE7FFE7F00000000000000000000A8
:1038200000000000E003E003600060006000600052
:103830006000600060006000600060006000600088
:10384000600060006000600060006000E003E00372
:103850000000000030003000600060006000C00028
:10386000C000C000C001800180018001000300038E
:103870000003000600060000000000000000000039
:1038800000000000E003E003000300030003000366
:103890000003000300030003000300030003000310
:1038A000000300030003000300030003E003E00340
:1038B000000000000000C001C0016003600360035D
:1038C00030063006180C180C000000000000000044
:1038D00000000000000000000000000000000000E8
:1038E00000000000000000000000000000000000D8
:1038F00000000000000000000000000000000000C8
:1039000000000000FFFFFFFF0000000000000000BB
:10391000000000000C000C000C000C000C000C005F
:103920000000000000000000000000000000000097
:103930000000000000000000000000000000000087
:103940000000000000000000000000000000F00384
:10395000F8071C0C0C0C000FF00FF80C0C0C0C0CE6
:103960001C0FF80FF018000000000000000000001D
:103970000000000018001800180018001800D803F4
:10398000F80F380C181818181818181818181818CC
:10399000380CF80FD8030000000000000000000001
:1039A0000000000000000000000000000000C00354
:1039B000F007300E180C1800180018001800180C2A
:1039C000300EF007C00300000000000000000000FF
:1039D0000000000000180018001800180018C01B94
:1039E000F01F301C1818181818181818181818185C
:1039F000301CF01FC01B0000000000000000000091
:103A00000000000000000000000000000000C003F3
:103A1000F00F300C1818F81FF81F1800180038188D
:103A2000301CF00FC0070000000000000000000084
:103A300000000000800FC00FC000C000C000F007F1
:103A4000F007C000C000C000C000C000C000C0003F
:103A5000C000C000C0000000000000000000000026
:103A60000000000000000000000000000000E00D69
:103A7000F80F180E0C0C0C0C0C0C0C0C0C0C0C0C89
:103A8000180EF80FE00D000C0C0C1C06F807F001E6
:103A90000000000018001800180018001800D807CF
:103AA000F80F381C1818181818181818181818189B
:103AB0001818181818180000000000000000000076
:103AC00000000000C000C000000000000000C000B6
:103AD000C000C000C000C000C000C000C000C000E6
:103AE000C000C000C0000000000000000000000096
:103AF00000000000C000C000000000000000C00086
:103B0000C000C000C000C000C000C000C000C000B5
:103B1000C000C000C000C000C000C000F8007800B5
:103B2000000000000C000C000C000C000C000C0C41
:103B30000C060C038C01CC006C00FC009C018C0377
:103B40000C030C060C0C000000000000000000003C
:103B500000000000C000C000C000C000C000C000E5
:103B6000C000C000C000C000C000C000C000C00055
:103B7000C000C000C0000000000000000000000005
:103B800000000000000000000000000000007C3C7D
:103B9000FF7EC7E383C183C183C183C183C183C166
:103BA00083C183C183C10000000000000000000049
:103BB0000000000000000000000000000000980766
:103BC000F80F381C1818181818181818181818187A
:103BD0001818181818180000000000000000000055
:103BE0000000000000000000000000000000C00312
:103BF000F00F300C1818181818181818181818186A
:103C0000300CF00FC00300000000000000000000B6
:103C10000000000000000000000000000000D803C9
:103C2000F80F380C18181818181818181818181829
:103C3000380CF80FD80318001800180018001800E6
:103C40000000000000000000000000000000C01B99
:103C5000F01F301C181818181818181818181818E9
:103C6000301CF01FC01B00180018001800180018A6
:103C70000000000000000000000000000000B0078D
:103C8000F0037000300030003000300030003000B1
:103C90003000300030000000000000000000000094
:103CA0000000000000000000000000000000E00331
:103CB000F003380E180C3800F003C007000C180C85
:103CC000380EF007E00300000000000000000000D4
:103CD0000000000000008000C000C000C000F0072D
:103CE000F007C000C000C000C000C000C000C0009D
:103CF000C000C007800700000000000000000000B6
:103D00000000000000000000000000000000181883
:103D10001818181818181818181818181818181823
:103D2000381CF01FE0190000000000000000000037
:103D300000000000000000000000000000000C185F
:103D4000180C180C180C300630063006600360039F
:103D50006003C001C001000000000000000000007E
:103D60000000000000000000000000000000C14151
:103D7000C141C36163636363636336363636363687
:103D80001C1C1C1C1C1C000000000000000000008B
:103D900000000000000000000000000000001C38CF
:103DA000381C300C6006600360036003600360062B
:103DB000300C381C1C38000000000000000000001F
:103DC00000000000000000000000000000001830AB
:103DD000301830187018600C600CE00CC006C0067B
:103DE00080038003800380018001C001F000700027
:103DF0000000000000000000000000000000FC1FA8
:103E0000FC1F000C000600038001C00060003000B1
:103E10001800FC1FFC1F0000000000000000000054
:103E20000000000000038001C000C000C000C0000E
:103E3000C000C00060006000300060004000C000B2
:103E4000C000C000C000C000C0008001000300002E
:103E5000000000008001800180018001800180015C
:103E6000800180018001800180018001800180014A
:103E7000800180018001800180018001800180013A
:103E8000000000006000C000C001800180018001CE
:103E9000800180010003000300060003000180018F
:103EA00080018001800180018001C000600000006D
:103EB0000000000000000000000000000000000002
:103EC0000000F010F81F080F0000000000000000C4
:103ED00000000000000000000000000000000000E2
:103EE00000000000000000000000010203040607BB
:103EF00008090000143F00080000002040000000F6
:103F000014020008543F000840000020F807000099
:103F10003002000801000000000000000000000066
:103F20000000000000000000000000000000000091
:103F30000000000000000000000000000000FFFF83
:103F40000000000010000000010000000000000060
:043F50000024F40055
:04000005080001D915
:00000001FF
