:020000040800F2
:100000005808002099020008F33E00080B3400084D
:10001000F13E0008D1160008F54C00080000000071
:10002000000000000000000000000000AD420008D9
:100030001918000800000000F53E0008AF42000853
:10004000B3020008B3020008B3020008B3020008BC
:10005000B3020008B3020008B3020008B3020008AC
:10006000B3020008B3020008B3020008B30200089C
:10007000B3020008B3020008B3020008B30200088C
:10008000B302000800000000B3020008B302000839
:10009000B3020008B3020008B3020008B30200086C
:1000A000B3020008B3020008B3020008B30200085C
:1000B000B3020008B3020008B3020008B30200084C
:1000C000B3020008B3020008B3020008B30200083C
:1000D000B3020008E94C0008B3020008B3020008AC
:1000E000B3020008B3020008B3020008B30200081C
:1000F000B3020008B3020008B302000800000000C9
:1001000000000000B302000800000000B302000875
:10011000B302000800000000B3020008B3020008A8
:10012000B3020008B3020008B3020008B3020008DB
:10013000B30200080000000000000000B302000845
:10014000B3020008B3020008000000000000000035
:10015000000000000000000000000000000000009F
:10016000000000000000000000000000B3020008D2
:10017000B3020008000000000000000000000000C2
:1001800000000000B30200080000000000000000B2
:10019000000000000000000000000000000000005F
:1001A0000000000000000000B3020008B3020008D5
:1001B000B3020008B3020008B30200080000000008
:1001C00000000000B3020008000000000000000072
:1001D000B3020008B302000800F002F800F04CF887
:1001E0000AA090E8000C82448344AAF10107DA4592
:1001F00001D100F041F8AFF2090EBAE80F0013F098
:10020000010F18BFFB1A43F00103184724630000D5
:1002100044630000103A24BF78C878C1FAD8520766
:1002200024BF30C830C144BF04680C607047000070
:100230000023002400250026103A28BF78C1FBD8EF
:10024000520728BF30C148BF0B607047662905F0D0
:100250001A80642900F0F480002070471FB505F073
:1002600008F800F07FFC04000020002104F01CFED0
:10027000E0601FBD10B510BD00F074FD1146FFF722
:10028000EDFF04F0D5FD00F092FD03B4FFF7F2FF9F
:1002900003BC00F0D5FD000009488047094800472D
:1002A000FEE7FEE7FEE7FEE7FEE7FEE7FEE7FEE726
:1002B000FEE7FEE704480549054A064B7047000083
:1002C00051430008D90100085802002058080020B6
:1002D000580400205804002053EA020C00F0698002
:1002E0002DE9F04B4FF00006002B1FBFB3FA83F54A
:1002F00003FA05F424FA05F65E4012BF1643B2FA7B
:1003000082F502FA05F4C5F120051EBF22FA05FCAC
:1003100044EA0C04203556EA044C4FEA144418BF52
:10032000641C4FF000084FF00009904271EB030C81
:1003300039D3002919BFB1FA81F701FA07F6B0FAEB
:1003400080F700FA07F6C7F120071EBF20FA07FC66
:1003500046EA0C062037B6FBF4FCA7EB0507103F76
:1003600007F01F0BCBF120060CFA0BFB2CFA06F65C
:1003700044BFB3460026202FA4BF5E464FF0000BBB
:100380005BEA060C08BF4FF0010B19EB0B09ABFB46
:10039000027C48EB0608C01B06FB02CC0BFB03CC1F
:1003A00071EB0C01C1E70B46024641464846BDE8E9
:1003B000F08B13B54FF000004FF00001AFF3008059
:1003C000BDE81C40704700000FB41CB5074B06AADF
:1003D0007B4469460090059800F0ABFB002069461D
:1003E00000F0BAFB1CBC5DF814FB000085070000A0
:1003F00070B5044685690068C10601D5302600E065
:100400002026C00707D070BDD4E9012130469047AF
:10041000206A401C20626D1EF6D570BD70B5044682
:1004200085690078C00707D170BDD4E9012120207B
:100430009047206A401C20626D1EF6D570BD0000FA
:100440002DE9F0410646002410687529314616A5AD
:1004500010D0AFF30080002802DA404213A507E075
:1004600031688A0701D512A502E0490704D511A514
:10047000012401E0AFF3008000210A2206F12407E5
:1004800009E0B0FBF2FCB0FBF2F302FB1C003030E1
:1004900078541846491C0028F3D123462A46304692
:1004A000BDE8F04100F0D8B8000000002D000000C9
:1004B0002B000000200000002DE9F0474FF0000A5B
:1004C00089460446C0F820A02046E16888470028F5
:1004D00076D0252806D0D4E901219047206A401C17
:1004E0002062F1E7E168204600258847C4F81CA097
:1004F00006460027C4F818A02A2E09D0304604F07A
:1005000033FC38B304EB8708303EC8F8186019E0B4
:1005100059F8041B204604EB87029161E168884783
:10052000012F064618D1E069002820DA25F02005C1
:100530001DE0D8F8180000EB800006EB40003038D2
:10054000C8F818002046E1688847064604F00CFC0D
:100550000028EED1012F0AD02E2E08D12046E168C6
:1005600088477F1C0646022F45F02005C4DBA069A2
:10057000002803DA404245F00105A061E80701D0F8
:1005800025F01005B6B1A6F14100192802D8203691
:1005900045F400654A463146204625604D46FFF742
:1005A00055FE58B1012806D0ED1D25F0070000F1D9
:1005B000080989E704E005F1040985E730468AE780
:1005C000206ABDE8F08710B5431C02E010F8011B5B
:1005D00071B18107FAD14FF0013202C88C1A8C43F5
:1005E00014EAC211F9D0C01A0A0603D0C01E10BD09
:1005F000C01A10BD0A0401D0801E10BD0902FCD033
:10060000401E10BD4FF0000200B5134694469646BA
:10061000203922BFA0E80C50A0E80C50B1F1200115
:10062000BFF4F7AF090728BFA0E80C5048BF0CC0C3
:100630005DF804EB890028BF40F8042B08BF704721
:1006400048BF20F8022B11F0804F18BF00F8012B93
:1006500070477047704770472DE9F0470D4699463F
:100660009246044600F124080168880604D5E06932
:1006700021F01001216000E00120A84201DD471BAC
:1006800000E00027A1697A1902EB0900081AA061AD
:100690002078C00602D42046FFF7AAFE002608E014
:1006A000D4E901211AF806009047206A401C761C04
:1006B00020624E45F4DB2078C0060AD52046FFF7BD
:1006C00097FE06E0D4E9012130209047206A401CC3
:1006D0002062381EA7F10107F4DC07E0D4E901210C
:1006E00018F805009047206A401C2062281EA5F1DA
:1006F0000105F3DC2046FFF791FE2078000602D5C5
:100700000220BDE8F0870120FBE770472DE9FF4F8D
:100710000C461E464FF0FF378BB0D2E90001DDF8E2
:1007200060800A908A46C1F30A5505B93D4600210A
:1007300008464FF00000BAF1000F00F4400005DA5F
:1007400000EB80004FF4400101EA50004FEA90595D
:10075000B9F1010F00DDB9460A9850EA4A000ED0FF
:1007600044F61050A5F2FF3545432F14B8F1000FA1
:100770001ED07542291E1EDDC9F100021CE0B8F131
:10078000010F4FF0000001D0302103E0F24305E0FB
:100790002154401CB042FBDB304600220021215492
:1007A0000B99C1F80880C1E900200FB0BDE8F08FB7
:1007B000BD1B6D1CDEE74A4600DA694206A800F060
:1007C0005BFA06AB93E8070003AB83E807005046EB
:1007D0000A9900F03CFB8DE80700A0F500501F3897
:1007E00000900398002D0ADD42F21F014A4608449A
:1007F000002303A90390684600F0A5FD09E0A0F5D9
:1008000000504A461F38002303A90390684600F0B1
:10081000AFFD8DE807000004000C03D04FF0FF305F
:10082000410800E01046B8F1000F03D0002200920A
:1008300015461EE0751E05D400F098F93032625559
:100840006D1EF9D5B3460122084302D000227F1C59
:1008500004E02078302801D100227F1E002A099769
:1008600084D01DE0112D07DA00F080F93032625596
:100870006D1C50EA0102F5D1084302D00098C8B1BE
:100880000EE00021681E05E0235C625C6354225484
:10089000401E491C8142F7DBAB46A81B401E099055
:1008A000002004F80B000B98099AC0F80880C0E9F2
:1008B000002B7AE711264FF0000857E72DE9F04F9B
:1008C00088460446D21D22F0070191B0D1E900010B
:1008D000CDE90A0104F020FA02460B98C00F01D0BE
:1008E0002D2007E02068810701D52B2002E0202180
:1008F00001EAC000032A099001D0072A05DB03465C
:100900004146204600F078F90BE12078800601D5B9
:10091000E06900E00620B8F1650F814606D0B8F125
:10092000660F18D0B8F1670F70D131E00020B9F12F
:10093000110F009001DB112301E009F101030AAA64
:1009400001A90CA8FFF7E2FEDDE90C70002609F111
:100950000105834647E001204B4600904FF00047D9
:100960000AAA01A90CA8FFF7D1FEDDE90DB00C9988
:100970005D46002610B909F101000D18B9EB05001C
:1009800003D4C0F1FF3609F10105A5EB09002BE006
:10099000B9F1010F01DA4FF001090020B9F1110F8F
:1009A0000090484601DD112300E003460AAA01A990
:1009B0000CA8FFF7ABFEDDE90C704D460026834620
:1009C000207800070AD4AB4500DA5D4601A8012D66
:1009D00004DD411911F8011C302907D04F4502DA16
:1009E00017F1040F04DA012082460FE06D1EEEE7D6
:1009F000002F02DCED1B3E4403E0781CA84200DD22
:100A00007D1CB81B00F1010A4FF000472078000759
:100A100003D4AA4501DB4FF0FF3A0021B7F1004FA4
:100A20000DF143088DF8431024D002202B23002F12
:100A300001DA7F422D230A21021EA0F1010000DC11
:100A40005FB197FBF1FC97FBF1F201FB1C7C1746B1
:100A50000CF1300C08F801CDEEE7A8F101000370AD
:100A60002188090501D5452100E06521A0F1010893
:100A700000F8011C09980FA9A1EB0807FF1D00B1A0
:100A80000120411901EBEA70A1693844081A401E9F
:100A9000A0612078C00602D42046FFF7A9FC09987F
:100AA00028B1D4E901219047206A401C20622078B7
:100AB000C00622D52046FFF79BFC1EE0002E04DB7B
:100AC000B34502DD01A8805D00E03020D4E90121BA
:100AD0009047206A401C2062761CAAF101005FEA60
:100AE000000A0AD100F03EF8C0680168405CD4E911
:100AF00001219047206A401C2062281EA5F10105B3
:100B0000DCDC07E0D4E9012118F8010B9047206AEA
:100B1000401C2062381EA7F10107F3DC2046FFF7D6
:100B20007DFC032011B041E601694A1C026108788E
:100B3000704700B58FB0CDE901310021059105491D
:100B40007944CDE9031011466846FFF7B5FC0FB0B4
:100B500000BD0000E5FFFFFF0A6802F8010B0A6014
:100B600070470000004870471802002030B5B0F10F
:100B70000A024FEA900E71F100034EEA817EB0EB5B
:100B80000E0061EB91014FEA101E4EEA017E10EB60
:100B90000E0041EB11114FEA102E4EEA016E10EBE0
:100BA0000E0041EB11214FEA104E4EEA014E10EBC0
:100BB0000E0041EB1141401841F100014FEAD00015
:100BC00040EA41704FEAD10110EB80054FEA810401
:100BD00044EA907444EB01046D1944EB0404521B85
:100BE000A3414FF0000348BF0A3200D530BD401C7E
:100BF00041F1000130BD00002DE9F0411F460446DF
:100C000003260168072A01F4006004DB08B116A579
:100C100005E016A503E008B115A500E015A521F033
:100C200010002060A069C01EA0610FB1401EA0612D
:100C30002046FFF7DDFB4FB1D4E90121384690474C
:100C4000206A401C2062C01C206206E0206AFAE78D
:100C5000D4E9012115F8010B9047761EF8D2204601
:100C6000FFF7DCFBBDE8F0814E414E006E616E0087
:100C7000494E4600696E66002DE9F04781461646EA
:100C80008AB0354878440DC88DE80D003248784464
:100C9000801C03AC0DC884E80D0041F69B3008446D
:100CA000372190FBF1F290FBF1F5A5F1800501FBF6
:100CB00012041B3C02D56442012000E00020DFF852
:100CC00098A080460027FA44AAF1BE0A0EE0E00789
:100CD0000AD03246684607EB470101230AEB81013F
:100CE00000F046FB8DE8070064107F1C002CEED15D
:100CF000194F7F44AE3F19E0E80715D007EB041009
:100D00000DF1180A90E80E008AE80E00C068F04263
:100D100001D1981908903246012306A903A800F0D2
:100D200027FB03AB83E807006D10641C002DE3D1A3
:100D30004FF0010332466946B8F1000F03A802D014
:100D400000F001FB01E000F013FBC9E90001C9F864
:100D500008200AB0BDE8F0879058000000487047AE
:100D6000F80100207546FFF7F9FFAE460500694619
:100D7000534620F00700854618B020B5FFF79AFAD1
:100D8000BDE820404FF000064FF000074FF000088C
:100D90004FF0000B21F00701AC46ACE8C009ACE80D
:100DA000C009ACE8C009ACE8C0098D46704710B571
:100DB0000446AFF300802046BDE81040FFF765BA57
:100DC0004FF0013C50F8042B51F8043B9A4221D1DA
:100DD000A2EB0C03934313EACC1317D150F8042B66
:100DE00051F8043B9A4215D1A2EB0C03934313EA4A
:100DF000CC130BD150F8042B51F8043B9A4209D183
:100E0000A2EB0C03934313EACC13DBD04FF00000AA
:100E1000704700BFD01A01BAB1FA81F101F0180190
:100E200022FA01F0CB40C1F12001DBB2C0B2C01AFE
:100E30002CFA01F3D11A914311EAC311E6D170479C
:100E400001491820ABBEFEE72600020070475FEAAA
:100E5000400C08BF91F0000F4FEA8C234FEAC122EB
:100E600043EA51514FEA1C5018BF00F5F0404FEAD9
:100E7000300018BF41F000415FEA6C5C00F029804F
:100E8000BCF1FF3F08BF40F080407047130C06BF25
:100E900012044FF0100C4FF0000C130E04BF12029E
:100EA0000CF1080C130F04BF12010CF1040C930F8A
:100EB00004BF92000CF1020CD30F04BF52000CF1DE
:100EC000010C11464FF00002A0F11F00A0EB0C0036
:100ED000704711F0004F08BF704731F000413FF4F8
:100EE000D5AF0B0C06BF09044FF0100C4FF0000CEF
:100EF0000B0E04BF09020CF1080C0B0F04BF090113
:100F00000CF1040C8B0F04BF89000CF1020CCB0F09
:100F100004BF49000CF1010CCCF12003A0EB0C0044
:100F200022FA03F302FA0CF241EA030100F1010094
:100F3000704720F07F4C80EA030023F07F47ACEB42
:100F4000070303F57C5300F0004003F1FF032DE994
:100F500080494FEA154B09B44FEA144325EA0B4E7A
:100F600024EA03480FF2042606EB132749083E78CB
:100F70005FEA320203FB0667C7F5000707FB06F6C8
:100F80004FEA54374FEAD64606F1020607FB066CD5
:100F9000CCF1005C4FEA1C472CEA074C07FB06F437
:100FA0000CFB06F504EB15464FEA961634BF0020FD
:100FB0004FF000404FEAD13706FB07FC4FEA1C4CCC
:100FC0000CFB0BF7D21B03FB0CF761EB07010CFBCF
:100FD0000EF7B0EB074072EB17420CFB08F734BF7B
:100FE000A2EB0742B2EB074261EB17414FEA0C4418
:100FF0004FEA910706FB07FC4FEA1C4C0CFB0BF772
:10100000B0EBC74072EB573203FB0CF734BFA2EBD7
:10101000C742B2EBC74261EB57310CFB0EF7B0EBA6
:10102000C70072EB57720CFB08F734BFA2EBC70284
:10103000B2EBC70261EB5771039F4FEA816141EA4E
:10104000921104EBCC044FEAD1374FEA826206FBDF
:1010500007FC42EA90124FEA80604FEA1C4C0CFBFE
:101060000BF7D21B03FB0CF761EB07010CFB0EF730
:10107000B0EB074072EB17420CFB08F734BFA2EB52
:101080000742B2EB074261EB17414FEA8C554FEA3A
:10109000910704EB9C2406FB07FC4FEA1C4C0CFB5D
:1010A0000BF7B0EBC74072EB573203FB0CF734BFC2
:1010B000A2EBC742B2EBC74261EB57310CFB0EF714
:1010C000B0EBC70072EB57720CFB08F734BFA2EB12
:1010D000C702B2EBC70261EB577115EB4C254FEA23
:1010E000816141EA92114FEA82624FEAD13742EAC6
:1010F000901206FB07FC44F100044FEA80604FEABF
:101100001C4C0CFB0BF7D21B03FB0CF761EB07012C
:101110000CFB0EF7B0EB074072EB17420CFB08F725
:1011200034BFA2EB0742B2EB074261EB174115EB6C
:101130001C154FEA813141EA92414FEA823242EA7C
:1011400090424FEA80304FEA0C7644F1000448EABE
:1011500003434EEA0B484FF0000EB2EB080C71EB64
:10116000030724BF624639464EEB0E0E4FF0000BCC
:101170000018524149414BEB0B0BB2EB080C71EBE1
:1011800003077BF1000B24BF624639464EEB0E0E7F
:101190004FF0000B0018524149414BEB0B0BB2EBE7
:1011A000080C71EB03077BF1000B24BF6246394644
:1011B0004EEB0E0E51EA020718BF46F0010616EB81
:1011C0000E7655F1000254F1000103D5BDE8890106
:1011D000BDE80088BDE88901BDE80048B619524164
:1011E00041EB0101A3F10103704780807F7E7D7C8C
:1011F0007B7A7978777676757473727171706F6EA9
:101200006E6D6C6C6B6A6A69686867666665646453
:10121000636362616160605F5F5E5E5D5D5C5C5BDD
:101220005B5A5A595958585757565655555554544C
:10123000535352525251515050504F4F4F4E4E4DAA
:101240004D4D4C4C4C4B4B4B4A4A4A4949494848F6
:101250004847474747464646454545444444444336
:1012600043434342424242414141002B9C4630D4D9
:1012700077002BD01CB54FEA370703B44FF01000AE
:101280004FF01001BAF1000F06D0BCF1000FDCBF27
:1012900040F0080040F008014FF000000FBCBDE82E
:1012A00010400BF1010BBBF1010F08BF5FEA1707FC
:1012B00022BF12F1010211F101014FF0004143F18F
:1012C000000300F0004043EA00007047F9D35708DC
:1012D000D0E746EA064613F1400F4FEA16461FDDF7
:1012E00013F1200FDFBF16430A46002120335B4273
:1012F000BED0C3F1200746EA064602FA07F74FEAD6
:10130000164646EA0706C3F1200722FA03F201FA5D
:1013100007F721FA03F14FF0000342EA0702A7E7BB
:1013200046EA020646EA06464FEA164646EA01063D
:10133000BCBF46EA0646360C4FF000034FF00002F1
:101340004FF0000194E72DE9804C9A46934670B423
:1013500091E8380007C831EA400C48BF34EA430C32
:1013600003D5FFF7E6FDFFF780FFF0BCBDE8008C7A
:101370002DE9804C9A46934670B491E8380007C82E
:1013800010F0804F08BF13F0804F03D100F005F834
:10139000FFF76BFFF0BCBDE8008C20F07F4780EAD0
:1013A000030023F07F4C07EB0C03A3F57C5300F004
:1013B0000040A3F1FE0392F0000F00F0B38095F01F
:1013C000000F00F077802DE901494FEA11404FEA04
:1013D000144621EA004800FB06FC24EA064708FB05
:1013E00006F607FB08F800FB07F718EB06484CEB7E
:1013F000164C4FEA124B18EB07484FEA15464CEBD8
:10140000174022EA0B4E0BFB06FC25EA06470EFBB3
:1014100006F607FB0EFE0BFB07F71EEB064E4CEB2A
:10142000164C4FF000061EEB074E4CEB174B18EB1B
:101430000B0840F1000018EB0E0B58EB000840F1D0
:1014400000008F1A4FF000013CBFC943661B14BF58
:10145000B5EB040C00213CBFC943F61B4FEA17440F
:101460004EEA8E0E27EA04454FEA1C4704FB07624A
:101470002CEA074C05FB07F70CFB05F604FB0CFCFC
:1014800016EB074642EB174216EB0C4642EB1C42AA
:101490001BEB060658EB0202414146EA9E0601D5C7
:1014A000BDE80189B619524141EB0101A3F10103E5
:1014B000BDE801894FEA14454FEA114724EA054681
:1014C00021EA074C05FB07F406FB07F70CFB06F1C6
:1014D00005FB0CFC11EB074144EB17444FEA1247A4
:1014E00011EB0C4144EB1C4422EA074C05FB07F2CC
:1014F00006FB07F70CFB06F605FB0CFC16EB074694
:1015000042EB174216EB0C4642EB1C456A1854F1AD
:10151000000148BF7047B619524141EB0101A3F1E8
:101520000103704795F0000F37D04FEA11424FEAA0
:10153000144721EA024624EA074C02FB07F106FBA6
:1015400007F70CFB06F402FB0CFC14EB074441EB21
:1015500017414FEA154714EB0C4441EB1C4125EAB7
:10156000074C02FB07F506FB07F70CFB06F602FB30
:101570000CFC16EB074645EB174516EB0C4645EB06
:101580001C42121951F1000148BF7047B61952416F
:1015900041EB0101A3F1010370474FEA14454FEA03
:1015A000114724EA054621EA074C05FB07F106FB33
:1015B00007F70CFB06F24FF0000605FB0CFC12EBE4
:1015C000074241EB174112EB0C4251EB1C4148BF63
:1015D0007047921841EB0101A3F10103704700002D
:1015E00030B589B020216846FFF70CF81948184932
:1015F000002401608902C0E90114C460042504616B
:10160000C0E90545047744770121016280F8244050
:10161000C462046380F83840C46380F8404000F03E
:1016200023FB08B100F007F90B4800900620019059
:10163000072002907F200594CDE9030569460548FF
:1016400000F0FCF8002801D000F0F5F809B030BD3A
:10165000000100508C0100200080F03E70B504466F
:101660000068816811F0010F2DD18168174A11427D
:101670001AD18168D5432940491C816000F030FEB1
:1016800006461BE0816811F0010F03D181682940F3
:10169000491C816000F024FE801B02280ED92068BE
:1016A0000068C043C00709D0E06D40F01000E0655D
:1016B000206E40F001002066012070BD20680168A6
:1016C000C943C907DED1002070BD00003F00008083
:1016D000FEE7000070B53E4801683E4CA26A891AD8
:1016E000B1F57A7F72D30068A062002584F80950B2
:1016F00003F048FB00EE100AD4ED0B0AB8EE400AE6
:1017000030EE200A84ED0B0A607A401CC0B2607291
:101710000928EDD9DFED300A20EE200A10EE100A7C
:1017200003F036FD9FED2D1B53EC112B03F032FC23
:1017300003F0D0FB00EE100AB2EE041AC0EE010A6C
:101740009FED280AC4ED0C0A84ED0B0A10EE900AF6
:1017500003F01EFD9FED241B53EC112B03F01AFC2C
:1017600003F0EAFBC2B21B48A272E17A1230217385
:101770000378934200D3E57246780125964202D35E
:10178000934200D2E5728078904203D3964201D210
:101790000223E372904201D20320E072E37A8B428B
:1017A00001D913A101E00DD215A11948FEF70CFED5
:1017B0001748FEF708FF82B232231549154801F099
:1017C000C5FD6573A07980F00100A07170BD0000B7
:1017D0004800002000000020000080396666666630
:1017E00066660A4000000000CDCCCCCCCC4C3E401C
:1017F000413A482533642B4C2531642B550D0A00A2
:10180000413A482533642B4C2531642B440D0A00A2
:1018100065000020900000207047002240F6B83399
:1018200006E00021491C89B29942FBD3521C92B2B6
:101830008242F6D3704772B6FEE700002DE9F84FFA
:1018400000270446009790F85800DFF8E0930D4613
:10185000B846012811D0012684F85860206802F0AB
:101860001DFA60B1E06D40F02000E0655FF0010717
:1018700084F858803846BDE8F88F0220FBE7D5E9A8
:1018800000210C23206803EA91131844036B01F034
:101890001F014FF01F0C0CFA01FCC2F3846223EA13
:1018A0000C038A4013430363206802F0F7F9824671
:1018B000206802F0EFF95AEA00003CD1AA682968D2
:1018C0002068B2F1004F37D002F0ECF9206841698E
:1018D00021F00041416120686969C268C2F3C10218
:1018E000520091402A69042A31D000EB82002B6813
:1018F000026EDFF83CC303F0F84302EA0C020B432C
:101900001A4342F00041016620682A69A96900EB88
:101910008200026E22F080720A430266297F2268EA
:101920002869012910D0002102EB8000026E22F00C
:1019300000720A4302667DE0002202F0B3F92068DB
:10194000416941F00041C5E74FF00071ECE700212B
:1019500002F09AF9400320684FF0000172D002F0C3
:1019600093F990FAA0F0B0FA80F1286842036ED0A3
:1019700090FAA0F0B0FA80F0814204D10022114622
:10198000206802F09EF90121206802F07DF94003F1
:1019900020684FF001015DD002F076F990FAA0F0D6
:1019A000B0FA80F12868420359D090FAA0F0B0FA5A
:1019B00080F0814204D100220121206802F081F9E7
:1019C0000221206802F060F9400320684FF0020114
:1019D00048D002F059F990FAA0F0B0FA80F12868E6
:1019E000420344D090FAA0F0B0FA80F0814204D1D2
:1019F00000220221206802F064F90321206802F02D
:101A000043F9400320684FF0030133D002F03CF962
:101A100090FAA0F0B0FA80F1286842032FD090FA33
:101A2000A0F0B0FA80F0814204D1002203212068A6
:101A300002F047F92068816811F0010F22D0ACE074
:101A400000E004E002F020F9C0F384618DE7C0F308
:101A5000846091E702F018F9C0F38461A2E7C0F353
:101A60008460A6E702F010F9C0F38461B7E7C0F321
:101A70008460BBE702F008F9C0F38461CCE7C0F3EF
:101A80008460D0E72A7B296850F8B03FC1F3120C7C
:101A900023EA0C0302F0180C664A22FA0CF20A4000
:101AA00013430360E968494577D1286841031CD096
:101AB00090FAA0F1B1FA81F1491C01F01F01092946
:101AC0004FEA403132D8002912D000BF90FAA0F17D
:101AD000B1FA81F101F1010101F01F0106FA01F6ED
:101AE00009D100BFC0F3846109E0C0F38461E3E77A
:101AF000C0F38461EEE790FAA0F1B1FA81F101F14F
:101B0000010101F01F0146EA816102D1C0F3846046
:101B100003E090FAA0F0B0FA80F000F1010000F0CC
:101B20001F0000EB400041EA005132E000290ED0D6
:101B300090FAA0F1B1FA81F101F1010101F01F0168
:101B400006FA01F606D100BFC0F3846106E0C0F3D7
:101B50008461F1E790FAA0F1B1FA81F101F101019C
:101B600001F01F0146EA816102D1C0F3846003E005
:101B700090FAA0F0B0FA80F000F1010000F01F0030
:101B80002D4A00EB400002EB005041EA000141F019
:101B90000071AA68206802F085F828482A68024285
:101BA0003FF466AE26488168264B01F0E0719A4208
:101BB00002D0254B9A421CD10B021AD42268B2F1F2
:101BC000A04F7FF455AE826841F4000122F0E0722C
:101BD0000A4382601D481E490068B0FBF1F0401CBA
:101BE00000EB4000800000E0401E00900028FBD188
:101BF0003EE6184D184BAA4207D1CD0105D4226804
:101C00009A42F5D041F0807109E0144DAA42EFD11B
:101C10004A02EDD422689A42EAD041F480018268F7
:101C200022F0E0720A43826022E6000000007F405A
:101C300000F0FF03FFFF0700000020FE0000088007
:101C400000030050000021C31000C0904C00002091
:101C5000400D0300000052C700010050000084CB7B
:101C60000068006C70470000F8B54FF000050400F4
:101C70002E46009502D0E06D10B107E00120F8BDBE
:101C8000204600F0EFF8266684F8586020688168E6
:101C9000C1F3407119B181686A4A114081602068BE
:101CA0008168C1F3007189B98168674A114041F0C8
:101CB00080518160654866490068B0FBF1F04000E2
:101CC000801C00E0401E00900028FBD12068816845
:101CD000C1F3007141B9E16D41F01001E165216E80
:101CE00041F001012166012501F0D8FFE16DC9062F
:101CF00000D430B1E06D40F01000E06501252846C9
:101D0000F8BDE06D20F4807040F00200E0652068CE
:101D1000806810F0010F11D14FF0A04080684D494C
:101D200000F00100896801F00101084306D14A482A
:101D30006168826822F47C120A438260E168E06B89
:101D4000627F0843A16841EA4231084394F82410B5
:101D500040EA0140012904D1218D404A02EB414172
:101D60000843E16A29B101F47871226B014342EA28
:101D700001002168CA683A4B1A400243CA602068D1
:101D80000169626B21F0406111430161206801F03B
:101D900085FF0646206801F07DFF30432ED1207F6D
:101DA00094F83810800340EA41022068C16844F288
:101DB000020399431143C16020690028206801692A
:101DC0000AD041F480310161206850F8C01F2269B7
:101DD0006FF30D01114307E021F4803101612068A8
:101DE00050F8C01F6FF30D01016094F84000012806
:101DF0000CD02068016921F00101016160690128AE
:101E00002068016B21F00F0111D013E0D4E911011A
:101E10000843D4E913121143084321680A6940F2C8
:101E2000FC739A43104340F001000861E6E7226A20
:101E3000521E11430163E06D20F0020040F00100EA
:101E4000E0655CE7C0FFFF5FC0FFFF7F4C00002044
:101E5000400D030000010050000300500000FEFF91
:101E60000740F0FFF0B587B0044614216846FEF73E
:101E7000C9FB214B266800241A6803251F48204906
:101E8000521CB6F1A04F06D01E4FBE4231D11A608F
:101E9000012A16D01DE01A60012A07D1CA6C42F44B
:101EA0000052CA64CA6C02F400520592CA6C42F035
:101EB0000202CA64C96C01F0020105914FF480511D
:101EC00011E0CA6C42F40052CA64CA6C02F40052B7
:101ED0000592CA6C42F00202CA64C96C01F00201A8
:101EE00005914FF40041CDE900150294694600F0D8
:101EF00009F907B0F0BD00003C00002000040048D4
:101F000000100240000100502DE9F041044638481D
:101F1000806800F01F05206801F0C0FE18B10221A2
:101F20000846BDE8F08194F8580001280CD0012043
:101F300084F858002046FFF791FB01004FF00003A2
:101F400004D084F85830EBE70220EAE7E06D40F671
:101F50000162904340F48070E065264A20684FF0AB
:101F6000A046904201D1374600E00746874200D0A4
:101F70001DB9E76D27F48017E765E76DFF0404D509
:101F8000276E27F00607276600E023661C270760F8
:101F900084F858302068904201D1334600E003466F
:101FA000834215D0A5B1052D12D0092D10D0E36DB7
:101FB00043F48013E365904200D13046C06880014D
:101FC000AED5E06D20F4005040F48050E065A7E706
:101FD000C268920105D5E26D22F4005242F48052AB
:101FE000E2658268044B1A40121D826098E7000087
:101FF0000003005000010050C0FFFF7F10B590F8B3
:10200000253000210122022B03D00421C1630121CC
:1020100022E003681C6824F00E041C60836C1C68BA
:1020200024F480741C6003681C6824F001041C60A4
:1020300090F84430046C03F01F0302FA03F363606A
:10204000D0E913345C60436D33B11C6824F48074B0
:102050001C60D0E916345C6080F82520002280F8EE
:102060002420084610BD70B590F8252000240121D9
:102070002346022A07D00422C26380F8251080F884
:102080002430012429E00268156825F00E0515604A
:102090000268156825F001051560826C156825F445
:1020A0008075156090F84420056C02F01F0201FA5B
:1020B00002F26A60D0E913255560426D32B11568AD
:1020C00025F480751560D0E91625556080F8251037
:1020D00080F82430816B01B18847204670BD000034
:1020E00070B5044600F0FCF80546601C02D00448B8
:1020F0004068044400F0F4F8401BA042FAD370BDDD
:10210000400000202DE9FC4FDFF8A0A100230125AD
:102110000AF1040B03244FF00F0C0BF1040EBDE089
:1021200005FA03F632406FD04F68012F05D0022F19
:1021300003D0112F01D0122F17D1D0F808905F00D3
:1021400004FA07F829EA08090097D1F80C8008FA80
:1021500007F848EA0908C0F808804768B7430E79CD
:10216000C6F300169E403E434660C6684FEA4308E9
:1021700004FA08F7BE4301978F6807FA08F7374358
:10218000C7604E68022E01D0122E13D1DE0800EB7C
:1021900086060096366A5F07FF0E0CFA07F926EAF4
:1021A0000906D1F8109009FA07F949EA0609009ED4
:1021B000C6F820900668019FBE430F7907F0030719
:1021C00007FA08F7374307604E68F60065D5384EC2
:1021D000376E47F001073766366E23F0030706F0C7
:1021E00001060096334E3E44B146B6689F074FEA5B
:1021F00017780CFA08F7BE43B0F1904F05D02E4F78
:10220000B84204D1012717E047E0002714E02B4F24
:10221000B84201D102270FE0294FB84201D103276C
:102220000AE0284FB84201D1042705E0264FB84202
:1022300001D1052700E0062707FA08F73743C9F858
:102240000870DAF800605746D1F8048096435FEAD8
:10225000C83800D516433E60DBF800605F46D1F811
:10226000048096435FEA883800D516433E60DEF866
:1022700000607746D1F8048096435FEAC82800D50D
:1022800016433E60094F0C373E68D1F804809643F0
:102290005FEA882800D516433E605B1C0A6832FA64
:1022A00003F67FF43DAFBDE8FC8F00000004014061
:1022B00000100240000001400004004800080048EF
:1022C000000C004800100048001400480069084055
:1022D00000D0012070470AB1816170478162704768
:1022E0000148806870470000400000200248816873
:1022F00042681144816070474000002010B50024FE
:10230000032000F073F8002000F008F808B1012461
:1023100001E000F025F8204610BD000070B50E4E1B
:1023200005460024706898B14FF47A71B1FBF0F063
:102330000A490968B1FBF0F000F064FD40B9102DC6
:1023400006D200222946501E00F030F8356000E029
:102350000124204670BD0000400000204C000020F9
:102360000A4882B0016E41F001010166016E01F080
:1023700001010091816D41F080518165806D00F017
:102380008050009002B000F0A1B8000000100240A0
:10239000002809DB00F01F02012191404009800064
:1023A00000F1E020C0F8001170470000F0B40E4BBF
:1023B0001B680C46C3F30223C3F10705042D00D9A3
:1023C0000425191D072901D2002300E0DB1E012688
:1023D00006FA05F1491E214099409E40761E16409E
:1023E0003143F0BC02F0B0BC0CED00E0064900F057
:1023F000070208684FF6FF03184040EA0220034A2C
:1024000010430860704700000CED00E00000FA0582
:102410002B492C4B0A6832214A432B4940B1B0F575
:10242000007F086829D020F4C06040F480602CE070
:102430000868C0F34120022804D051F8800F20F42E
:10244000807022E0D1F8800020F48070C1F8800014
:10245000086820F4C06040F400700860B2FBF3F03C
:10246000401C00E0401E4A69520501D50028F9D100
:10247000486940050AD503207047C0F3412002286F
:1024800006D051F8800F40F480700860002070473B
:10249000D1F8800040F48070C1F88000086820F412
:1024A000C06040F400700860B2FBF3F0401C00E034
:1024B000401E4A695205DBD50028F9D1D8E7000053
:1024C0004C00002040420F0000700040024881682C
:1024D00041F4804181607047007000402DE9F8436D
:1024E0000446006800269D4D00035ED5A86D0027B8
:1024F000C00008D4A86D40F08050A865A86D0127E1
:1025000000F080500090DFF85892D9F8001041F4A4
:102510008071C9F80010FFF7E3FE804606E000BFB7
:10252000FFF7DEFEA0EB080002282BD8D9F8000048
:10253000C005F5D5D5F8900010F4407014D0216C8A
:10254000814211D0D5F89000D5F8901020F4407059
:1025500041F48031C5F89010D5F8901021F4803105
:10256000C5F89010C5F89000C00711D0FFF7B8FE6D
:10257000804641F2883907E0FFF7B2FEA0EB080180
:10258000494501D903260BE0D5F890008007F3D523
:10259000D5F89000216C20F440700843C5F89000F5
:1025A0001FB1A86D20F08050A8652078C00707D023
:1025B000D5F88800616820F003000843C5F888005A
:1025C0002078800707D5D5F88800A16820F00C0096
:1025D0000843C5F888002078400707D5D5F888005B
:1025E000E16820F030000843C5F888002078000733
:1025F00007D5D5F88800216920F0C0000843C5F848
:1026000088002078800607D5D5F88800616920F415
:1026100040600843C5F888002078400607D5D5F803
:102620008800A16920F440500843C5F8880020784C
:10263000000607D5D5F88800E16920F4404008433A
:10264000C5F888002088C00507D5D5F88800216A1C
:1026500020F440300843C5F888002088800507D55D
:10266000D5F88800616A20F440200843C5F8880046
:10267000208840050FD5D5F88800A16A20F44010C5
:102680000843C5F88800A06AB0F5801F03D1E86848
:1026900040F48010E860208800050FD5D5F8880048
:1026A000E16A20F440000843C5F88800E06AB0F50C
:1026B000800F03D1E86840F48010E8602088C004EF
:1026C0000FD5D5F88800216B20F040700843C5F87D
:1026D0008800206BB0F1807F03D1E86840F480105F
:1026E000E86020884FF0006180040ED5D5F888009E
:1026F000626B20F040601043C5F88800606B884230
:1027000003D1E86840F48010E860208840040ED5CA
:10271000D5F88800A26B20F040601043C5F888000F
:10272000A06B884203D1E86840F48010E8602088FC
:1027300000040FD5D5F88800E16B20F04050084325
:10274000C5F88800E06BB0F1805F03D1E86840F421
:102750008030E8603046BDE8F88300000010024099
:10276000007000402DE9F0470E4605004FF00007CD
:1027700025D0DFF8AC81D8F8000000F00F00B0429F
:102780000CD2D8F8001021F00F013143C8F8001026
:10279000D8F8000000F00F00B04210D12968614C59
:1027A000C80741F2883A5AD06868DFF87C9103285C
:1027B00008D0022820682DD0400500282CDB0120FD
:1027C000BDE8F08720688001F9D5E06800F00302D9
:1027D000E068C0F30310401C032A19D0534A00BF1D
:1027E000B2FBF0F0E268C2F306225043E268C2F3A3
:1027F0004162521C5200B0FBF2F0484517D9A06864
:1028000010F0F00F0CD0880711D5A86840B10EE089
:10281000474AE5E78003D0E700F0B6F8484506D917
:10282000A06820F0F00040F08000A0608027A06841
:10283000696820F003000843A060FFF751FD81465E
:1028400006E000BFFFF74CFDA0EB090151453AD867
:10285000A068696800F00C00B0EB810FF2D1286825
:10286000810714D5400703D5A06840F4E060A0605C
:102870002878000705D5A06820F4605040F4E06097
:10288000A060A068A96820F0F000084304E0802F51
:1028900003D1A06820F0F000A060D8F800104046F6
:1028A00001F00F01B14216D9016821F00F01314347
:1028B0000160FFF715FD074607E000BFFFF710FDB9
:1028C000C11B514501D903207AE7D8F8000000F078
:1028D0000F00B042F2D12878400705D5A068E9681A
:1028E00020F4E0600843A0602878000706D5A068BF
:1028F000296920F4605040EAC100A06000F044F86B
:10290000A1680C4AC1F30311515C01F01F01C840DA
:102910000949086009480068BDE8F047FFF7FEBCB8
:10292000002002400010024000B4C4040024F4005F
:1029300000366E01826400084C0000204000002038
:102940000548064900688968054AC1F30221515CBF
:1029500001F01F01C84070474C00002000100240E9
:10296000926400080548064900688968054AC1F371
:10297000C221515C01F01F01C84070474C0000208B
:102980000010024092640008184910B58868C0F32E
:1029900081021748012A0BD08A68164BC2F38102C4
:1029A000022A06D08A68C2F38102032A03D00020DB
:1029B00010BD184610BDCA6802F00304CA68C2F30D
:1029C0000312521C032C02D0B0FBF2F001E0B3FB67
:1029D000F2F0CA68C968C2F306225043C1F34161EC
:1029E000491C4900B0FBF1F010BD0000001002408E
:1029F0000024F40000366E012DE9F84304007AD07B
:102A00002078FA4DC00747D0A868E96800F00C00AC
:102A100001F003010C2802D0082817D001E0032997
:102A200014D06068B0F5803F17D0B0F5A02F2868AB
:102A300017D020F480302860286820F48020286097
:102A40006068E0B1FFF74CFC064614E0286880039C
:102A500022D560680028D2D01EE0286840F480307B
:102A6000EDE740F480202860F7E700BFFFF738FC6F
:102A7000801B642870D828688003F7D50CE0FFF726
:102A80002FFC064605E000BFFFF72AFC801B6428E8
:102A9000F0D828688003F7D4207880074CD5A86840
:102AA000E96800F00C0001F003010C2802D00428B2
:102AB0000DD001E002290AD0E068002828682BD058
:102AC00040F480702860FFF70BFC064619E0286888
:102AD000400502D5E068002891D06868217C20F08C
:102AE000FE4040EA01606860C1480068FFF716FCDC
:102AF000002800D120E076E1FFF7F2FB801B0228DE
:102B0000B8D828684005F7D56868217C20F0FE40D9
:102B100040EA016068600FE020F480702860FFF7F1
:102B2000DFFB064605E000BFFFF7DAFB801B02284B
:102B3000A0D828684005F7D42078000729D5606917
:102B40000028D5F8940013D040F00100C5F8940097
:102B5000FFF7C6FB064606E090E000BFFFF7C0FBAC
:102B6000801B022886D8D5F894008007F6D510E09F
:102B700020F00100C5F89400FFF7B2FB064604E020
:102B8000FFF7AEFB801B022878D8D5F894008007A9
:102B9000F6D42078400761D5A86D0026C00008D47F
:102BA000A86D40F08050A865A86D012600F0805007
:102BB000009090480168C90511D40168804641F42D
:102BC00080710160FFF78CFB074604E0FFF788FB8C
:102BD000C01B022852D8D8F80000C005F6D5A0685E
:102BE000012815D00528D5F8900016D020F0010056
:102BF000C5F89000D5F8900020F00400C5F89000CA
:102C0000A06841F28838B8B1FFF76AFB07460EE0CA
:102C1000D5F8900040F00100F0E740F00400C5F85E
:102C20009000F5E7FFF75CFBC11B414526D8D5F8BE
:102C300090008007F6D50CE0FFF752FB074604E052
:102C4000FFF74EFBC11B414518D8D5F8900080070F
:102C5000F6D41EB1A86D20F08050A86520788006BB
:102C600029D5A0690028D5F8980013D040F00100BC
:102C7000C5F89800FFF734FB064606E077E000BF92
:102C8000FFF72EFB801B022877D8D5F89800800725
:102C9000F6D510E020F00100C5F89800FFF720FB02
:102CA000064604E0FFF71CFB801B022865D8D5F818
:102CB00098008007F6D4E069F0B3A968C1F38101F8
:102CC000032961D00228286820F0807028600BD08A
:102CD000E86820F00300E860E86847490840E860D9
:102CE000FFF7FEFA04464BE0FFF7FAFA064604E067
:102CF000FFF7F6FA801B02283FD828688001F7D436
:102D0000F4E908016FF00F0202EB01110843218A78
:102D10005204490802EB4151A26841EA02210843EA
:102D2000217D4FF07E42490802EB41610843217B3F
:102D300040EAC160E96800E062E0304A11400843BF
:102D4000E860286840F080702860E86840F0807093
:102D5000E860FFF7C5FA044605E000BFFFF7C0FAD8
:102D6000001B022809D828688001F7D548E004E054
:102D7000FFF7B6FA001B022802D90320BDE8F8834A
:102D800028688001F4D43BE00128F7D0E868226A83
:102D900000F00301914226D1616A00F0F0020901BE
:102DA000103991421FD1A26A00F4FE41B1EB022F0B
:102DB00019D194F82C2000F07841B1EBC26F12D1F8
:102DC000218E00F4C00249084905A1F50011914285
:102DD00009D194F8341000F0C06049084906A1F107
:102DE000007181420CD00120C8E7000000100240B1
:102DF0004000002000700040FFFFEEFE0C809F01AD
:102E00000020BBE710B5401EB0F1807F01D3012048
:102E100010BD4FF0E02460610F21601701F094FFB6
:102E20000020A06107202061002010BD90F88010D4
:102E3000012918D0012180F880102421C0F88410C5
:102E400050F8641B0A680B6823F001030B6022F042
:102E500000510022026050F8643C19602021016298
:102E6000027710467047022070477047704770B570
:102E7000044690F8800001281DD0012084F88000CD
:102E80002420C4F8840020680568026822F001024A
:102E900002602068826822F060620A4382602046F5
:102EA00001F092FA206805602020C4F88400002018
:102EB00084F8800070BD022070BD70B5044690F8A3
:102EC000800001281DD0012084F880002420C4F84F
:102ED000840020680568026822F001020260206810
:102EE000826822F060420A438260204601F06CFA58
:102EF000206805602020C4F88400002084F8800049
:102F000070BD022070BD7047704770472DE9F041D9
:102F100003680446D86919689A6840F60F05284284
:102F20004FF0000509D186067ED501F0200602F09B
:102F300080573E4378D0216FFFE0924E924F16406B
:102F40000F40374370D0C70709D0CF0507D50127F9
:102F50001F62D4F88C3043F00103C4F88C3083072F
:102F60000AD5D30708D0276802233B62D4F88C30F7
:102F700043F00403C4F88C3043070AD5D30708D0C4
:102F8000276804233B62D4F88C3043F00203C4F872
:102F90008C3003070CD501F02003334308D026689A
:102FA00008233362D4F88C3043F00803C4F88C3023
:102FB00003050BD54B0109D526684FF40063336236
:102FC000D4F88C3043F02003C4F88C30D4F88C3023
:102FD000002B34D0800609D501F0200002F080518A
:102FE000084303D0216F09B120468847D4F88C00EC
:102FF00021688968490602D410F0280F21D02046A4
:1030000001F0A2FA20688168490615D5816821F08F
:1030100040018160E06F78B15C498163E06FFFF748
:1030200022F800280BD000E011E0E06F816B00E097
:103030002046BDE8F04108472046FFF766FFBDE89F
:10304000F0812046FFF761FFC4F88C50F7E7E76E88
:103050002026012F5CD1C7065AD5CF0658D510209F
:1030600018622068816849062FD5E26F11684968A7
:103070000904090CE3D0B4F85C308B42DFD9A4F822
:103080005E1011680968890618D4016821F48071FE
:1030900001602068816821F00101816020688168F9
:1030A00021F040018160C4F88860E566206801680D
:1030B00021F010010160E06FFEF7A0FFB4F85C00A2
:1030C000B4F85E10401A81B21EE0B4F85C10B4F897
:1030D0005E20891AB4F85E2089B2002AAFD0002998
:1030E000ADD0026822F49072026020688268254B9D
:1030F000DB431A408260C4F88860E5662567206873
:10310000026822F0100202602046FFF7AEFE96E74A
:10311000C70209D5570207D54FF480101862204620
:10312000BDE8F041FFF7F0BE07060AD501F08007C1
:1031300002F40002174304D0616F00297FF478AFD6
:103140007DE742060CD54A060AD51968204621F0CB
:1031500040011960C4F88460656700F055F96EE7B6
:10316000020206D54A0004D52046BDE8F041FFF72B
:10317000CABEC001CBD50029C9DA2046BDE8F0415E
:10318000FFF774BE0100001020010004354500085F
:1031900010B5040003D0D4F8840010B107E001207A
:1031A00010BD002084F88000204600F027F824207D
:1031B000C4F884002068016821F001010160204604
:1031C00001F09AFB0128EBD0A06A10B1204601F073
:1031D0001DF92068416821F49041416020688168B0
:1031E00021F02A0181602068016841F0010101603D
:1031F0002046BDE8104001F06DB9000010B586B062
:10320000044614216846FDF7FDF9174920688842F5
:1032100027D11648016E41F480410166016E01F428
:1032200080410591C16C41F00101C164C06C6946E7
:1032300000F0010005904FF4C06000900220019062
:10324000002002900390072004904FF09040FEF77A
:1032500059FF002201212520FFF7A8F82520FFF7BC
:1032600097F806B010BD0000003801400010024081
:1032700010B4D0F88830202B1BD1B9B1B2B190F87E
:103280008030012B15D0012380F880300023C366E5
:10329000094C0368A34206D05C68240203D51C686D
:1032A00044F080641C6010BC01F060BC012010BCC4
:1032B00070470220FBE700000080004008B5164878
:1032C0000121C279432A02D0532A08D01BE081731E
:1032D000C37A827A11A11548FDF776F80AE0817366
:1032E0000D481230817800914378027810A10F4880
:1032F000FDF76AF80D48FDF766F982B232230B49F3
:10330000114800F023F804490122BDE80840C91D16
:103310000D48FFF7ADBF000000000020433A4825EC
:1033200033642B4C2531640D0A0000006500002039
:10333000533A544C2532642B544D2532642B544857
:103340002532640D0A000000900000202DE9F843AA
:103350000446D0F884001F4616460D46202851D159
:10336000DDB1D6B194F8800001284BD0012084F85B
:1033700080004FF00008C4F88C802120C4F884003D
:103380001834FEF7ADFFA6878146E68754F8100C87
:10339000183CB0F5805F03D004E00120BDE8F8835D
:1033A000206920B12E46002584F8808010E0002698
:1033B000FAE78021204601F045FCB8B9C6B116F8FD
:1033C000010B21688862B4F85600401EA4F856002C
:1033D000B4F856004B464FF0000200970028E8D1A1
:1033E0004FF04001204601F02DFC30B10320D5E71D
:1033F00035F8020BC0F30800E3E72020C4F884008E
:103400000020CBE70220C9E77047FEE700B585B092
:1034100014216846FDF7F6F8C020009001200190C5
:1034200002900220039069460248FEF76BFE05B049
:1034300000BD00000004004870B50824002500F01D
:10344000FDFE13E06806050E002000F0DFFE1420EC
:1034500001F091FC142001F08EFC012000F0D6FE5A
:10346000142001F088FC00F0DDFE0543641EE4B288
:10347000E8D2002000F0CAFE142001F07CFC00F02D
:10348000FFFE284670BD10B5002000F0EDFE1420B0
:1034900001F071FC142001F06EFC012000F0B6FE7A
:1034A000142001F068FC002000F0B0FEBDE81040E0
:1034B000142001F060BC70B50446082516E000F049
:1034C000A5FE142001F057FC04F0800000F0CCFEB3
:1034D000142001F050FC6006040E142001F04BFC97
:1034E000012000F093FE142001F045FC6D1EEDB2AA
:1034F0004FF00000E3D200F089FEBDE870401420D8
:1035000001F039BC10B5012000F0AEFE142001F02E
:1035100032FC142001F02FFC012000F077FE142073
:1035200001F029FC002000F071FEBDE810401420DD
:1035300001F021BC10B5012000F096FE142001F02E
:103540001AFC012000F062FE142001F014FC00209F
:1035500000F08AFE142001F00EFC002000F056FE60
:10356000BDE81040142001F006BC10B5002000F0AA
:103570004DFE142001F0FFFB002000F075FE14202A
:1035800001F0F9FB012000F041FE142001F0F3FBF3
:10359000012000F069FEBDE81040142001F0EBBBF3
:1035A00010B5052400F04AFE142001F0E4FB0120D0
:1035B00000F02CFE142001F0DEFB05E0641EA4B236
:1035C000142001F0D8FB64B100F02CFE0028F5D1E6
:1035D00000F01CFE142001F0CEFB00F051FE002094
:1035E00010BD00F04DFEFFF7C0FF012010BD000030
:1035F0002DE9F04186B014216846FDF703F83648FE
:10360000C16C41F00401C164C16C01F00401059179
:10361000C16C41F02001C164C16C01F02001059131
:10362000C16C41F00101C164C16C01F0010105915F
:10363000C16C41F00201C164C16C01F0020105914D
:10364000C16C41F00801C164C06C244F00F0080057
:103650004FF47F460590012231463846FEF73BFE87
:10366000DFF87C80002204214046FEF734FE01256D
:1036700000240096CDE90154694638460394FEF7CC
:1036800041FDCDE9005469464FF090400294FEF7A9
:1036900039FD0720CDE90004694612480294FEF77F
:1036A00031FD04200090CDE9015469464046039461
:1036B000FEF728FD012231463846FEF70CFE0122B6
:1036C00004214046FEF707FE002204214046FEF793
:1036D00002FE06B0BDE8F08100100240000800487C
:1036E000000C00480004004870B54C4801684C4D7F
:1036F000AA69891A322956D30068A86100F09EF899
:10370000A8706979102620EA010241408143EA70DD
:103710002971687105F10F04012A2ED1297A4FF61B
:10372000FF70B9B1227861788A4217D2A2789142AB
:1037300014D20021297200F0CFF803220021204684
:1037400001F056FBE01C2178017061784170A1788E
:10375000817012E02E7200F0BFF80EE031A1364801
:10376000FCF732FE4FF4784000F0CCF932490020EB
:1037700000F018F91F2000F0C5F9E878022813D0EE
:1037800003281DD004280ED1297A0520102936D00F
:1037900011293BD0122906D1A178491F11F0FF0150
:1037A000A17000D1A07070BD287A0121B1EB101F6B
:1037B000F9D1401CC0B228721328F4D12E7270BD0A
:1037C000297A5F2010290AD0112910D01229F6D1A8
:1037D000A178491DC9B2A1706429E3D270BD2178D6
:1037E000491DC9B221706429F8D3207070BD617879
:1037F000491DC9B261706429F8D3607070BD217829
:10380000491F11F0FF012170EFD070BD6178491F91
:1038100011F0FF016170F0D070BD00004800002081
:10382000000000202020202020202044415441205E
:103830004552524F520000005000002070B50E4D0E
:10384000002401212846FEF741FD00B90124022190
:103850002846FEF73BFD00B9022404212846FEF766
:1038600035FD00B9032401214FF09040FEF72EFDF5
:1038700000B90424204670BD0004004800B585B09E
:1038800014216846FCF7BEFE4FF6FF700090002042
:103890000321CDE90201019069460248FEF732FC9E
:1038A00005B000BD0008004800B585B01421684689
:1038B000FCF7A8FE4FF6FF70009001200190032056
:1038C00003900020029069460248FEF71BFC05B0F9
:1038D00000BD00000008004870B5002406462146DF
:1038E000204600F003F900F041F94FF496353046D8
:1038F00000F010F9641CAC42F9D370BD30B587B04C
:1039000014216846FCF77EFE1E48C16C41F004019C
:10391000C164C16C01F004010591C16C41F0010169
:10392000C164C16C01F001010591C16C41F002015B
:10393000C164C06C012500F0020005904FF448708E
:10394000CDE9000500240394694602940E48FEF771
:10395000D9FB280203940090CDE901544FF0904424
:1039600069462046FEF7CEFBFFF79EFFA06940F4B4
:103970008070A06104481830016841F4087101604A
:1039800007B030BD0010024000040048203AD2B217
:10399000034B02EB420203EB021200F019B80000E5
:1039A0008A520008F0B50E460746002540F23F1443
:1039B00007E021463846FFF7E9FF103C6D1CA4B232
:1039C000761C3278002A01D0142DF2D3F0BD00000D
:1039D0002DE9F04791468A460026044600F086F815
:1039E000DFF84080012700BF00F0C0F85FF000055D
:1039F00039F8160007FA05F10842404601D140881F
:103A000000E0008800F086F86D1C102DF0D3641CD7
:103A1000E4B25146204600F069F8761C182EE3D334
:103A2000BDE8F0873400002010B5FFF767FF0020E5
:103A300000F014F8084CA080A088A0F502413039AD
:103A400006D000F0E1FA002000F008F8A08010BDD8
:103A500000F051FAF7E700003400002070B51D496E
:103A60000A6842F400720A600A6842F480720A60CE
:103A7000184C103C226842F020022260164A106066
:103A8000086840F02000086000BF00BF00BF206849
:103A900040F020002060206840F480702060FFF734
:103AA000EDFE4FF09041886A40F48070886200BF5C
:103AB00000BF00BF0848001F006885B2886940F455
:103AC00080708861FFF7F0FE206840F4007020608D
:103AD000284670BD280400481408004801B5BDF808
:103AE00000000149488008BD3400002010B50C4694
:103AF0000146202000F068F82146BDE81040212052
:103B000000F062B801B5BDF800000149088008BDA9
:103B100034000020134A116841F40071116011490A
:103B200010390B6843F480730B600B6843F020037B
:103B30000B600D4B1860106840F02000106000BF53
:103B400000BF00BF086840F020000860086840F42B
:103B50008070086000BF00BF00BF086840F40070BC
:103B60000860704728040048140800481449086891
:103B700040F400700860086840F4807008601048E5
:103B80001038026842F0200202600E4B22221A60B6
:103B90000A6842F020020A6000BF00BF00BF01684F
:103BA00041F020010160016841F48071016000BFB3
:103BB00000BF00BF016841F4007101607047000060
:103BC0002804004814080048184B10B51A6842F43D
:103BD00000721A601A6842F480721A60134A103A2E
:103BE000146844F020041460114C2060186840F000
:103BF0002000186000BF00BF00BF106840F0200028
:103C00001060106840F4807010602160186840F007
:103C10002000186000BF00BF00BF106840F0200007
:103C20001060106840F48070106010BD28040048D7
:103C30001408004870B5124D044601224FF47F412C
:103C40002846FEF748FB0F4E012204213046FEF7BE
:103C500042FB002204213046FEF73DFB21020022F8
:103C60002846FEF738FB012204213046FEF733FBDD
:103C70003046BDE8704000220421FEF72CBB000056
:103C800000080048000C004800EB8100006E00F0C6
:103C9000F84070478068C0F3C00070478068C0F388
:103CA00080007047042303EAD15310B518444369D8
:103CB000C1F3045107248C40A3438A40134343615A
:103CC00010BD00EB8100016E21F00041114301663F
:103CD000704700002DE9F04141480168414C226ADB
:103CE000891A64297AD300682062207A4FF6FF7619
:103CF000002843D00121B1EB101F6FD13AA13F48FA
:103D0000FCF762FB3046FFF7E9FE3C491820FFF75D
:103D100049FE04F10F053AA12A783848FCF754FB14
:103D2000207A4FF6E077102852D03046FFF7D6FEC3
:103D300032494820FFF736FE6A7837A12F48FCF752
:103D400043FB207A112845D04FEA0600FFF7C6FE54
:103D50002A497820FFF726FEAA7835A12748FCF7E4
:103D600033FB207A122837D04FEA0600FFF7B6FE61
:103D7000BDE8F0412149A820FFF714BE3046FFF707
:103D8000ADFE31A11D48FCF71FFB1C491820FFF7B1
:103D900009FEA27A31A11948FCF716FB1749482001
:103DA000FFF700FE206B01F0F3F941EC100B2FA19F
:103DB00053EC102B1148FCF707FB10497820FFF754
:103DC000F1FDE27A2DA10D48FCF7FEFAD0E705E0FF
:103DD0003846ABE73846B9E73846C7E7BDE8F08173
:103DE0004800002000000020202020205061726147
:103DF0006D65746572205365747570005000002005
:103E000020205468726573686F6C6420313A2025F5
:103E10003264636D2020000020205468726573684E
:103E20006F6C6420323A20253264636D20200000DC
:103E300020205468726573686F6C6420333A2025C3
:103E40003264636D20200000202020204C697175B1
:103E50006964204C6576656C000000002020486590
:103E6000696768743A253364636D0000202041441B
:103E7000433A25342E3266560000000020204C655F
:103E800076656C3A25316400174930B40A681748E2
:103E9000C369D21AC82A25D30968C161427B0021AF
:103EA0000A2362B10278541EE4B2047003D382790B
:103EB00082F00202827114B9417303708171827BB6
:103EC00062B14278541EE4B2447003D3827982F026
:103ED0000402827114B9817343708171807930BC9E
:103EE000FFF7A8BE30BC704748000020000000204B
:103EF000FEE7FEE7704730B501210020FFF764FEC2
:103F00004FF47A70FDF789FC00210120FFF75CFE79
:103F100041F290711020FFF757FE4FF41C516020C2
:103F2000FFF752FE01216120FFF74EFE02214620DD
:103F3000FFF74AFE48F210011320FFF745FE48F252
:103F4000FE011220FFF740FE4FF4A0610220FFF7B0
:103F50003BFE41F230010320FFF736FE40F203340E
:103F600021463020FFF730FE21463120FFF72CFE9E
:103F700021463220FFF728FEE51E29463320FFF7B1
:103F800023FE03213420FFF71FFE21463520FFF7D3
:103F90001BFE14213620FFF717FE21463720FFF7BE
:103FA00013FE21463820FFF70FFE21463920FFF788
:103FB0000BFE29463A20FFF707FE03213B20FFF7BF
:103FC00003FE21463C20FFF7FFFD4FF4A0513D20AA
:103FD000FFF7FAFD4FF400719220FFF7F5FD21463F
:103FE0009320FFF7F1FD40F60D019020FFF7ECFD67
:103FF00041F218010320FFF7E7FDBDE8304040F231
:1040000073110720FFF7E0BD10B543F20801E3206C
:10401000FFF7DAFD1221E720FFF7D6FD41F231214B
:10402000EF20FFF7D1FD00210120FFF7CDFD4FF478
:10403000E0610220FFF7C8FD41F230010320FFF7E5
:10404000C3FD00210420FFF7BFFD40F20721082037
:10405000FFF7BAFD00210920FFF7B6FD00210A2075
:10406000FFF7B2FD00210C20FFF7AEFD00210D206F
:10407000FFF7AAFD00210F20FFF7A6FD0021102069
:10408000FFF7A2FD07211120FFF79EFD002112205E
:10409000FFF79AFD00211320FFF796FDC820FEF7D9
:1040A0001FF841F290611020FFF78EFD40F22721AA
:1040B0001120FFF789FD3220FEF712F81D21122092
:1040C000FFF782FD3220FEF70BF84FF4006113205A
:1040D000FFF77AFD14212920FFF776FD0B212B2015
:1040E000FFF772FD3220FDF7FBFF00212020FFF7D4
:1040F0006BFD00212120FFF767FD07213020FFF72E
:1041000063FD40F207713120FFF75EFD062132208A
:10411000FFF75AFD40F204713520FFF755FD41F6D7
:1041200004713620FFF750FD04213720FFF74CFDC6
:1041300000213820FFF748FD40F206713920FFF7D3
:1041400043FD40F201713C20FFF73EFD0F213D2071
:10415000FFF73AFD00215020FFF736FDEF215120F7
:10416000FFF732FD00215220FFF72EFD40F23F11F4
:104170005320FFF729FD4FF41C516020FFF724FD69
:1041800001216120FFF720FD00216A20FFF71CFDBF
:1041900000218020FFF718FD00218120FFF714FD8A
:1041A00000218220FFF710FD00218320FFF70CFD86
:1041B00000218420FFF708FD00218520FFF704FD82
:1041C00010219020FFF700FD00219220FFF7FCFC5A
:1041D00003219320FFF7F8FC4FF488719520FFF737
:1041E000F3FC00219720FFF7EFFC00219820FFF758
:1041F000EBFC41F218010320FFF7E6FCBDE810409C
:1042000040F273110720FFF7DFBC000008B104483B
:1042100001E003481030016841F04001016070473F
:104220001804004810B580210348FEF74FF8012814
:1042300000D0002010BD00000004004800B585B08B
:1042400014216846FCF7DEF98020009000200190E0
:10425000012002900220039069460248FDF752FFB8
:1042600005B000BD0004004808B1044801E003485F
:104270001030016841F08001016070471804004867
:1042800000B585B014216846FCF7BCF98020009089
:1042900011200190002002900220039069460248FC
:1042A000FDF730FF05B000BD000400487047FEF781
:1042B0001DB8000010B5A6B038216846FCF7A2F979
:1042C00014211FA8FCF79EF944210EA8FCF79AF9C7
:1042D0004FF40070FEF79CF801200090000401905C
:1042E00002200324CDE907041421CDE90A100C9023
:1042F0000D9009946846FEF77FFB08B1FDF79BFA25
:104300000F20CDE91F0400242194229402211FA82C
:104310002394FEF727FA08B1FDF78DFA0B48C16C1C
:1043200041F02001C164C06C00F02000249048F2EC
:104330000100CDE90E0400071D900EA8FEF7CEF88F
:10434000002801D0FDF777FA26B010BD001002401A
:104350000248016841F470010160704788ED00E097
:10436000184810B5164901604FF4165141600021FC
:1043700081600C22C160C0E904128161C1610162E7
:1043800041628162FEF704FF08B1FDF754FA002193
:104390000C48FEF792FD08B1FDF74DFA00210948DF
:1043A000FEF765FD08B1FDF746FA0648FEF73EFD4B
:1043B000002803D0BDE81040FDF73DBA10BD000055
:1043C000003801409000002030B5416EB9B102685C
:1043D00091689268C1F342610B4B520F9C5CE500FF
:1043E00003F10804A25CB5FBF2F2A0F86A205A5C63
:1043F000615CD200B2FBF1F1A0F8681030BD012180
:10440000A0F86A10F8E700007264000890F828101D
:10441000C90706D001684A68C36A22F400321A4309
:104420004A6090F82810890706D501684A68036B2E
:1044300022F480321A434A6090F82810490706D5C2
:1044400001684A68436B22F480221A434A6090F85C
:104450002810090706D501684A68836B22F40042D8
:104460001A434A6090F82810C90606D501688A6880
:10447000C36B22F480521A438A6090F82810890690
:1044800006D501688A68036C22F400521A438A60D8
:1044900090F82810490611D501684A68436C22F447
:1044A00080121A434A60416CB1F5801F06D1016841
:1044B0004A68836C22F4C0021A434A6090F82810BC
:1044C000090606D501684A68C06C22F4002202433E
:1044D0004A607047F8B500260446C0F88C60FDF7C6
:1044E000FFFE0546206800686FF07E47000708D58C
:1044F0002B4600224FF400112046009700F0A2FB4B
:1045000060B92068006840070AD52B4600224FF4A6
:1045100080012046009700F095FB08B10320F8BD0C
:104520002020C4F88400C4F8880044F86C6F002090
:104530002675F8BD10B5806A0021A0F85E10A0F8BD
:104540005610FEF7E2FC10BD01680A6822F4907272
:104550000A6001688A68094B1A408A60C16E0129A5
:1045600004D101680A6822F010020A602021C0F814
:1045700088100021C166016770470000FEFFFFEF51
:1045800070B5B0F86010D0F8882004460068222A80
:1045900004D0816941F00801816170BD406AA26D5B
:1045A00008401080A06D801CA065B4F85E00401E1D
:1045B000A4F85E00B4F85E000028EED1206801681F
:1045C00021F4907101602068816821F0010181600F
:1045D0002020C4F8880000252567E06E012804D05B
:1045E0002046FEF76BFEE56670BD2068016821F08D
:1045F00010010160B4F85C102046FEF736FCF2E7CB
:104600002DE9F0470446B0F860600068C569D0F84D
:1046100000A0D0F80880D4F88810222905D081693C
:1046200041F008018161BDE8F087B4F868704FF08F
:1046300000095BE02068406AA16D30400880A06DF1
:10464000801CA065B4F85E00401EA4F85E002068DF
:10465000C569690730D0E9070AD05FEACA5107D5B2
:1046600001210162D4F88C0040F00100C4F88C00F4
:10467000A8070BD55FEAC87008D02168022008623D
:10468000D4F88C0040F00400C4F88C0068070BD507
:104690005FEAC87008D0216804200862D4F88C0052
:1046A00040F00200C4F88C00D4F88C0020B1204601
:1046B000FEF72BFCC4F88C90B4F85E00B0B920680B
:1046C000016821F48071016020688168194A1140F5
:1046D00081602020C4F88800C4F87090E06E012842
:1046E0001CD02046FEF7EAFDC4F86C900FB1A80676
:1046F000A0D4B4F85E00002895D0B4F868108142C8
:1047000091D92068816821F0805181600A48206732
:104710002068016841F02001016084E72068016899
:1047200021F010010160B4F85C102046FEF79DFBFB
:10473000DAE70000FEFFFFEF8145000870B5B0F832
:104740006010D0F8882004460068222A04D08169CD
:1047500041F00801816170BD406A0840A16D087098
:10476000A06D401CA065B4F85E00401EA4F85E0079
:10477000B4F85E000028EED12068016821F4907141
:1047800001602068816821F0010181602020C4F867
:10479000880000252567E06E012804D02046FEF73A
:1047A0008DFDE56670BD2068016821F01001016093
:1047B000B4F85C102046FEF758FBF2E72DE9F0470D
:1047C0000446B0F860600068C569D0F800A0D0F871
:1047D0000880D4F88810222905D0816941F00801A9
:1047E0008161BDE8F087B4F868704FF000095BE0C4
:1047F0002068406AA16D30400870A06D401CA06523
:10480000B4F85E00401EA4F85E002068C569690720
:1048100030D0E9070AD05FEACA5107D50121016209
:10482000D4F88C0040F00100C4F88C00A8070BD528
:104830005FEAC87008D0216802200862D4F88C00B2
:1048400040F00400C4F88C0068070BD55FEAC8701C
:1048500008D0216804200862D4F88C0040F00200DF
:10486000C4F88C00D4F88C0020B12046FEF74DFB34
:10487000C4F88C90B4F85E00B0B92068016821F4E7
:104880008071016020688168194A11408160202090
:10489000C4F88800C4F87090E06E01281CD020464F
:1048A000FEF70CFDC4F86C900FB1A806A0D4B4F8C4
:1048B0005E00002895D0B4F86810814291D9206834
:1048C000816821F0805181600A4820672068016872
:1048D00041F02001016084E72068016821F01001A7
:1048E0000160B4F85C102046FEF7BFFADAE700007A
:1048F000FEFFFFEF3D4700082DE9F0410446016847
:1049000080682269E3691043626900251A431043F5
:10491000DFF82CC20A688B4B1A4002430A602068F9
:104920004168E26821F44051114341602168A06967
:10493000614501D0226A10438A68834B1A400243C2
:104940008A602068C16A626A21F00F011143C16266
:104950007E4923687E488B420DD1D0F8880010F044
:10496000030006D0012855D0022842D003283FD1A9
:1049700052E001203DE077498B420BD1D0F888000E
:1049800010F00C0035D0042833D0082840D00C2873
:104990002ED141E070498B420BD1D0F8880010F045
:1049A000300026D0102835D0202831D030281FD113
:1049B00032E06A498B420BD1D0F8880010F0C00079
:1049C00017D0402826D0802822D0C02810D123E03C
:1049D00063450DD1D0F8880010F4406009D0B0F5DF
:1049E000806F17D0B0F5006F12D0B0F5406F13D0C4
:1049F00010205B4A5B4F00264FF40041634539D1DC
:104A000060B102280DD004280DD0082831D10EE065
:104A10000220EEE70420ECE70820EAE7FDF790FF2C
:104A200003E0114603E0FDF7AFFF01007DD0606AAF
:104A300037F810206768B1FBF2F007EB47038342B9
:104A40006CD8B0EB073F69D8002308461946FBF73E
:104A500043FC090241EA1061020278081018714112
:104A60003A460023FBF738FC3F4AA0F540719142DB
:104A700059D953E0E3694FF6EF788B422DD10928DD
:104A80004CD2DFE800F005080D4B274B4B4B0E00D6
:104A9000FDF756FF01E0FDF765FF010001D144E09D
:104AA0001146606A37F81000B1FBF0F04100606811
:104AB00001EB5001B1FBF0F080B2A0F110014145D3
:104AC0002CD84FF6F0710140C0F34200014320683A
:104AD000C1602AE0FDF758FFDFE709281ED2DFE8B2
:104AE00000F005080D1D1F1D1D1D0E00FDF728FF00
:104AF00001E0FDF737FF010001D116E01146606AC1
:104B000037F81000B1FBF0F1606801EB5001B1FB28
:104B1000F0F080B2A0F11001414504D9012504E074
:104B2000FDF732FFE7E72168C8600120A4F86A00BA
:104B300024F8680F2846A660E660BDE8F081000012
:104B400000800040F369FFCFFFF4FF1100380140FF
:104B5000001002400044004000480040004C00406B
:104B60000024F4005A640008FFFC0F0070B5816552
:104B7000A0F85C20A0F85E200021016783684FF454
:104B80008056FF24B34204D10369D3B940F2FF1326
:104B90001DE07F259BB1B3F1805F15D0A0F86010B8
:104BA000C0F88C102223C0F8883003689C6844F059
:104BB00001049C60436EB3F1005F0ED027E00369EF
:104BC00043B9A0F86040EBE703691BB13F23A0F8AD
:104BD0006030E5E7A0F86050E2E7B0F86830934253
:104BE00015D88268B24201D1026972B1114A0267D6
:104BF00080F8801001680A6842F480720A600068D8
:104C0000816841F0805181600FE00B4AEFE78268D4
:104C1000B24201D1026952B1084A026780F880109D
:104C20000068016841F490710160002070BD044A81
:104C3000F3E70000BD470008014600083D470008B3
:104C4000814500082DE9F0479A4617460E4604466E
:104C50004FF000094FF02008089D39E0681C37D05C
:104C6000FDF73EFBA0EB0A00A84222D80DB3206856
:104C7000016849072CD5C069C043000528D42168C4
:104C80004FF4006008622068016821F4D07101606F
:104C90002068816821F001018160C4F88480C4F833
:104CA0008880C4F88C8000BF84F880900320BDE821
:104CB000F0872068016821F4D07101602068816864
:104CC00021F001018160C4F88480C4F88880EBE79A
:104CD0002068C06936EA000004D00020B842BDD088
:104CE0000020E4E70120F9E70148FEF70FB90000D2
:104CF00090000020FEE700000548026805494B6A65
:104D0000D21AB2F57A7F01D300684862704700007A
:104D1000480000200000002003B4019841000098E2
:104D200050EAC12018BF04204A0D18BF40F001000E
:104D300040F2FF72B2EB515F08BF40F00200012861
:104D400008BF052002B070470907090E002804DBE0
:104D500000F1E02080F80014704700F00F0000F12F
:104D6000E02080F8141D704730380A2801D2012055
:104D7000704700207047002100E0491C8142FCD3AD
:104D80007047000010B50448FDF7BEF80248FCF774
:104D900067FF80B210BD00008C01002070B5154681
:104DA0000E460446FEF7C6FBA020FEF784FBFEF786
:104DB000F7FB3046FEF77FFBFEF7F2FBFEF7BAFB90
:104DC000A120FEF778FBFEF7EBFB09E0FEF734FBD2
:104DD00004F8010B15B1FEF756FB01E0FEF792FB5C
:104DE0006D1EEDB2F2D2BDE87040FEF7BEBB000012
:104DF00070B515460E460446FEF79CFBA020FEF754
:104E00005AFBFEF7CDFB304602E000BF14F8010B61
:104E1000FEF751FBFEF7C4FB6D1EEDB2F6D2FEF7B6
:104E2000A4FBBDE870404FF4FA70FFF7A4BF000088
:104E3000FDF764FAFFF73EFAFEF7DAFBFEF7F4FD42
:104E40004FF6FF742046FEF747FD2046FEF746FE6C
:104E50001F20FEF757FEFFF783FAFEF7D7FAFCF79D
:104E6000BFFB032200210E48FFF798FF0C48C11E2C
:104E700002780A7042784A70807888700122083976
:104E80000848FEF7F5F900BFFCF724FCFEF72CFC00
:104E9000FEF7FAFFFEF71EFFFFF72EFFF4E7000014
:104EA000120000209000002010B500290AD00878D8
:104EB000002807D005487844FBF782FF002801D07E
:104EC000002010BD0248784410BD00009A16000072
:104ED0009216000021F00042A2F16052B2F5801F4C
:104EE00001F0004328BFD2F17F6C0BD95FEA001CB0
:104EF00043EAC20242EB507018BF704728BF20F04F
:104F000001007047B2F5801FBCBF184670474FEADA
:104F1000410C1CF5001F02D2084600F0AFB970B575
:104F200000F0E2F800000089FFF7F6BF4FF0004004
:104F3000A0F58000704700004FEA1153A3F580638D
:104F4000D3F11E03A8BFD3F1200C08DB4FF00042C1
:104F500042EAC12252EA505232FA03F07047094243
:104F60000BD4102BC4BF0020704703F5787CBCF134
:104F7000FF3F05D04FF0FF3070474FF00000704703
:104F800070B500F0B1F800BF49922480002070474E
:104F9000F0E70000DFF848C170B51CEA111E1EBF23
:104FA0001CEA13159EEA0C0F95EA0C0F00F06F80B7
:104FB00081EA030423EA4C134EEAD47E21EA4C1121
:104FC00041F4801143F48013AE44A1FB024CA0FBDA
:104FD0000365AEF17F7E361955EB0C05A1FB034C42
:104FE0004CF10003A0FB021C16EB0C06654153F1CB
:104FF0000003094218BF46F0010613F4007F0BD1ED
:105000004FEA03314FEA0530340341EA155140EAD3
:1050100016506FF003020AE04FEAC3214FEAC520A1
:10502000F40241EA555140EA56506FF0020202EB99
:105030002E4201EB025585EACE710AD05FEA440C9C
:1050400018BF24F0004450F1000041F1000120EAB3
:10505000D47040F2FE7C624500D270BDA84214BFFD
:105060004FF080444FF04044002E08BF0024BEF1B2
:10507000806FA8BFA1F1C041BDE8704080F282807E
:105080004FF0000001F1C04101F0004170479EEA7D
:105090000C0F0CEA131518BF95EA0C0F06D04FF051
:1050A000000081EA030E0EF0004170BD00F01CF814
:1050B0008900013E00F007B800F009B84FEA430C40
:1050C0005FEA5C5C08D081EA030100F05BB84FEA5C
:1050D000410C5FEA5C5CF6D14FF00000014970477B
:1050E0000000FF070000F87F0EF1020E2EF0030E05
:1050F0005EF8046B364205D4012A43EB030515F52F
:10510000001F12D8012841EB010C1CF5001F0CD820
:105110000ED14FEAD17C15F5001F0CEB4C0C0CF1B5
:10512000020C08BF4CEBD37C04E04FF0080C01E00C
:105130004FEAD37C0CEB4C0526FA05F606F0070681
:10514000B6F1040C06D20EEB860CBDE870404CF0B4
:10515000010C6047DFE80CF0090B02024FF0004140
:105160004FF00000A1F5002170BD1946104601283E
:1051700051EB010418BFD4F5001484BF002001F0E6
:10518000004170BD0808A0F500114FEA31017047D9
:1051900043004FEAD30C4FEA3C0C43401FBF40078B
:1051A0000CF1605113F0FE4F70471CF0006F03D1FB
:1051B00000200CF0004170470CF0004343EA5070AF
:1051C00010B540EACC0000F00EF800BF00000092DD
:1051D0004FEA0001FFF7D6BF4FF000414FF000004B
:1051E000A1F5002170470EF1020E2EF0030E5EF8BD
:1051F000044B244204D44FEA4102B2F17F4F11D84C
:105200004FEA4003B3F17F4F0CD80ED14FEAD07C68
:10521000B2F17F4F0CEB4C0C0CF1020C08BF4CEBC5
:10522000D17C04E04FF0080C01E04FEAD17C0CEB9C
:105230004C0324FA03F404F00704B4F1040C06D27E
:105240000EEB840CBDE810404CF0010C6047DFE829
:105250000CF0070802024FF00040A0F5800010BDDE
:105260000846420018BFD2F1807288BF00F00040AB
:1052700010BD4FF04070E1EE100A7047FF2141EA87
:10528000D050C0057047FBF719BB000000000000BC
:10529000000000000000000000000000000000000E
:1052A00000000000000000000000000000000000FE
:1052B00000000000000000000000000080018001EC
:1052C00080018001800180018001800180018001D6
:1052D0008001800180010000000080018001000049
:1052E0000000000000000000000000000000CC00F2
:1052F000CC00CC00CC00CC00CC00000000000000B2
:10530000000000000000000000000000000000009D
:10531000000000000000000000000000000000008D
:10532000000000000000600C600C600C30063006CD
:10533000FE1FFE1F300638071803FE1FFE1F18034E
:1053400018038C018C018C01000000008000E00338
:10535000F80F9C0E8C1C8C188C009800F801E0074C
:10536000800E801C8C188C189C18B80CF00FE00371
:10537000800080000000000000000000000000002D
:105380000E181B0C110C11061106110311039B01C1
:105390008E01C038C06C60446044304430441844CE
:1053A000186C0C380000000000000000E001F00361
:1053B0003807180618063003F001F000F8009C3199
:1053C0000E33061E061C061C063FFC73F02100006F
:1053D00000000000000000000000000000000C00C1
:1053E0000C000C000C000C000C0000000000000081
:1053F00000000000000000000000000000000000AD
:105400000000000000000000000000000002000397
:105410008001C000C000600060003000300030003B
:105420003000300030003000300060006000C0000C
:10543000C0008001000300020000000020006000A6
:10544000C000800180010003000300060006000682
:1054500000060006000600060006000300038001A7
:105460008001C0006000200000000000000000007B
:10547000000000000000C000C000D806F807E001EE
:1054800030033807000000000000000000000000AA
:10549000000000000000000000000000000000000C
:1054A0000000000000008001800180018001800177
:1054B000FC3FFC3F800180018001800180010000F1
:1054C00000000000000000000000000000000000DC
:1054D00000000000000000000000000000000000CC
:1054E00000000000000000000000000080018001BA
:1054F000000100018000000000000000000000002A
:10550000000000000000000000000000000000009B
:105510000000E007E00700000000000000000000BD
:10552000000000000000000000000000000000007B
:10553000000000000000000000000000000000006B
:10554000000000000000000000000000C000C000DB
:10555000000000000000000000000000000C000C33
:10556000000600060006000300030003800380011C
:1055700080018001C000C000C00060006000000029
:10558000000000000000000000000000E003F00741
:10559000380E180C0C180C180C180C180C180C18C9
:1055A0000C180C180C18180C380EF007E00300004B
:1055B0000000000000000000000000000001800169
:1055C000C001F00198018801800180018001800103
:1055D0008001800180018001800180018001000044
:1055E000000000000000000000000000E003F80FD1
:1055F000180C0C180C1800180018000C00060003FA
:105600008001C000600030001800FC1FFC1F00007B
:10561000000000000000000000000000E001F807AA
:10562000180E0C0C0C0C000C0006C003C007000C7C
:10563000001800180C180C18180CF807E0030000EC
:10564000000000000000000000000000000C000E40
:10565000000F000F800DC00C600C600C300C180C9B
:105660000C0CFC3FFC3F000C000C000C000C00007C
:10567000000000000000000000000000F80FF80F1C
:10568000180018000C00EC03FC071C0E001C00188E
:10569000001800180C181C0C180EF807E003000086
:1056A000000000000000000000000000C007F00F34
:1056B000381C181818000C00CC03EC0F3C0E1C1CF6
:1056C0000C180C180C18181C380EF007E00300001A
:1056D000000000000000000000000000FC1FFC1F94
:1056E000000C00060006000380038001C001C0001A
:1056F000E00060006000700030003000300000000A
:10570000000000000000000000000000E003F007BF
:10571000380E180C180C180C3806F007F007180C87
:105720000C180C180C180C18380CF80FE0030000BB
:10573000000000000000000000000000E003F0078F
:10574000380E1C0C0C180C180C181C1C381EF81BDE
:10575000E0190018000C000C1C0EF807F001000006
:105760000000000000000000000000000000000039
:105770000000000000008001800100000000000027
:105780000000000000000000000080018001000017
:105790000000000000000000000000000000000009
:1057A00000000000000080018001000000000000F7
:1057B00000000000000000000000800180010001E6
:1057C0000001800000000000000000000000000058
:1057D000000000000000000000000010001C800F0E
:1057E000E003F8001800F800E003800F001C001030
:1057F00000000000000000000000000000000000A9
:1058000000000000000000000000F81F0000000081
:105810000000F81F00000000000000000000000071
:105820000000000000000000000000000000000078
:105830000000000000000000000008003800F00137
:10584000C007001F0018001FC007F0013800080043
:10585000000000000000000000000000E003F80F5E
:10586000180C0C180C180018000C0006000380011E
:10587000C000C000C00000000000C000C000000068
:105880000000000000000000000000000000E00731
:1058900018180420C229224A114409440944094421
:1058A00009221113E20C024004201818E00700003E
:1058B00000000000000000000000000080038003E2
:1058C000C006C006C006600C600C301830183018D6
:1058D000F83FF83F1C700C600C6006C006C000006A
:1058E000000000000000000000000000FC03FC0FAE
:1058F0000C0C0C180C180C180C0CFC07FC0F0C18DA
:105900000C300C300C300C300C18FC1FFC07000065
:10591000000000000000000000000000C007F01FB1
:1059200038381C300C7006600600060006000600C1
:105930000600060006600C701C30F01FE007000037
:10594000000000000000000000000000FE03FE0F49
:10595000060E0618061806300630063006300630E9
:105960000630063006180618060EFE0FFE0300006D
:10597000000000000000000000000000FC3FFC3FB1
:105980000C000C000C000C000C00FC1FFC1F0C0099
:105990000C000C000C000C000C00FC3FFC3F000055
:1059A000000000000000000000000000F83FF83F89
:1059B00018001800180018001800F81FF81F180029
:1059C000180018001800180018001800180000002F
:1059D000000000000000000000000000E00FF83FA1
:1059E0003C780E6006E007C00300030003FE03FEE0
:1059F00003C007C006C00EC03CF0F83FE00F000037
:105A00000000000000000000000000000C300C301E
:105A10000C300C300C300C300C30FC3FFC3F0C30A8
:105A20000C300C300C300C300C300C300C300000D2
:105A30000000000000000000000000008001800164
:105A4000800180018001800180018001800180014E
:105A500080018001800180018001800180010000BF
:105A6000000000000000000000000000000600062A
:105A700000060006000600060006000600060006F6
:105A800000060006180618063807F003E0010000BB
:105A900000000000000000000000000006300618B2
:105AA000060C060606038601C60066007600DE00C8
:105AB0008E0106030606060C061806300660000076
:105AC00000000000000000000000000018001800A6
:105AD0001800180018001800180018001800180006
