:020000040800F2
:1000000068080020810200083329000859220008EE
:10001000312900089F0600080B340008000000008A
:10002000000000000000000000000000F12E0008A9
:10003000A106000800000000752A0008F32E000841
:100040009B0200089B0200089B0200089B0200081C
:100050009B0200089B0200089B0200089B0200080C
:100060009B0200089B0200089B0200089B020008FC
:100070009B0200089B0200089B0200089B020008EC
:100080009B020008000000009B0200089B02000881
:100090009B0200089B0200089B0200089B020008CC
:1000A0009B0200089B0200089B0200089B020008BC
:1000B0009B0200089B0200089B0200089B020008AC
:1000C0009B0200089B0200089B0200089B0200089C
:1000D0009B0200089B0200089B0200089B0200088C
:1000E0009B0200089B0200089B0200089B0200087C
:1000F0009B0200089B0200089B0200080000000011
:10010000000000009B020008000000009B020008A5
:100110009B020008000000009B0200089B020008F0
:100120009B0200089B0200089B0200089B0200083B
:100130009B02000800000000000000009B02000875
:100140009B0200089B020008000000000000000065
:10015000000000000000000000000000000000009F
:100160000000000000000000000000009B020008EA
:100170009B020008000000000000000000000000DA
:10018000000000009B0200080000000000000000CA
:10019000000000000000000000000000000000005F
:1001A00000000000000000009B0200089B02000805
:1001B0009B0200089B0200089B0200080000000050
:1001C000000000009B02000800000000000000008A
:1001D0009B0200089B02000800F002F800F041F8C2
:1001E0000AA090E8000C82448344AAF10107DA4592
:1001F00001D100F036F8AFF2090EBAE80F0013F0A3
:10020000010F18BFFB1A43F00103184774440000A4
:1002100094440000103A24BF78C878C1FAD8520735
:1002200024BF30C830C144BF04680C607047000070
:100230000023002400250026103A28BF78C1FBD8EF
:10024000520728BF30C148BF0B607047642900F0D7
:100250007380002070471FB503F013F91FBD10B560
:1002600010BD00F0E2F91146FFF7F5FF03F0E6F8E4
:1002700000F000FA03B4FFF7F2FF03BC00F008FA45
:100280000948804709480047FEE7FEE7FEE7FEE72A
:10029000FEE7FEE7FEE7FEE7FEE7FEE70448054966
:1002A000054A064B70470000952F0008D901000849
:1002B000680200206808002068040020680400200C
:1002C0000FB41CB5074B06AA7B44694600900598FD
:1002D00000F093F90020694600F0A2F91CBC5DF81B
:1002E00014FB00005503000070B5044685690068E2
:1002F000C10601D5302600E02026C00707D070BD1A
:10030000D4E9012130469047206A401C20626D1ECE
:10031000F6D570BD70B5044685690078C00707D171
:1003200070BDD4E9012120209047206A401C206242
:100330006D1EF6D570BD00002DE9F0410646002483
:1003400010687529314616A510D0AFF3008000283B
:1003500002DA404213A507E031688A0701D512A5E9
:1003600002E0490704D511A5012401E0AFF30080A4
:1003700000210A2206F1240709E0B0FBF2FCB0FBE1
:10038000F2F302FB1C00303078541846491C002858
:10039000F3D123462A463046BDE8F04100F0CEB8FE
:1003A000000000002D0000002B00000020000000D5
:1003B0002DE9F05F894604464FF0000ADFF824B1CA
:1003C000FB44C0F820A02046E168884700287DD083
:1003D000252806D0D4E901219047206A401C2062DC
:1003E000F1E700255F462046E16888472028064659
:1003F00007DB312E05D2B81910F8200C08B10543DF
:10040000F1E7A80701D525F00405C4F81CA00027D2
:10041000C4F818A02A2E09D0304603F007F838B3E4
:1004200004EB8708303EC8F8186019E059F8041B3F
:10043000204604EB87029161E1688847012F064658
:1004400018D1E069002820DA25F020051DE0D8F851
:10045000180000EB800006EB40003038C8F81800A8
:100460002046E1688847064602F0E0FF0028EED10A
:10047000012F0AD02E2E08D12046E16888477F1C24
:100480000646022F45F02005C4DBA069002803DAE8
:10049000404245F00105A061E80701D025F01005B4
:1004A000A6B1A6F14100192802D8203645F400650E
:1004B0004A463146204625604D46FFF7C7FE60B1EB
:1004C000012807D0ED1D25F0070000E007E000F14E
:1004D000080978E705F1040975E730467AE7206AEC
:1004E000BDE8F09FA84200004FF0000200B513469F
:1004F00094469646203922BFA0E80C50A0E80C5044
:10050000B1F12001BFF4F7AF090728BFA0E80C50F4
:1005100048BF0CC05DF804EB890028BF40F8042BED
:1005200008BF704748BF20F8022B11F0804F18BF5A
:1005300000F8012B70477047704770472DE9F0476E
:100540000D4699469246044600F124080168880643
:1005500004D5E06921F01001216000E00120A842EB
:1005600001DD471B00E00027A1697A1902EB0900B1
:10057000081AA0612078C00602D42046FFF7B4FE16
:10058000002608E0D4E901211AF806009047206A05
:10059000401C761C20624E45F4DB2078C0060AD54C
:1005A0002046FFF7A1FE06E0D4E901213020904764
:1005B000206A401C2062381EA7F10107F4DC07E026
:1005C000D4E9012118F805009047206A401C2062F8
:1005D000281EA5F10105F3DC2046FFF79BFE2078DD
:1005E000000602D50220BDE8F0870120FBE70000ED
:1005F00001694A1C02610878704700B58FB0CDE9E7
:1006000001310021059105497944CDE903101146D6
:100610006846FFF7CDFE0FB000BD0000E5FFFFFF0D
:100620000A6802F8010B0A607047754600F02CF862
:10063000AE4605006946534620F00700854618B0CF
:1006400020B5FFF72BFEBDE820404FF000064FF02D
:1006500000074FF000084FF0000B21F00701AC46F7
:10066000ACE8C009ACE8C009ACE8C009ACE8C00916
:100670008D46704710B50446AFF300802046BDE8B4
:100680001040FFF7F7BD0000004870470802002047
:1006900001491820ABBEFEE7260002007047FEE7C6
:1006A0007047002240F6B83306E00021491C89B2A9
:1006B0009942FBD3521C92B28242F6D3704700009B
:1006C0002DE9F05FC24CE07900287CD0207ADFF879
:1006D00004A30125C04E4FF002084FF47A6B4FF08F
:1006E000040909286FD2DFE800F0050C263975A14E
:1006F000F5FDFC003068A169401AB0F57A7F62D33D
:100700002572002220214FF0904000F0EAFADAF83A
:100710000000FA2141630021AE4801F0C9FCAFA1FD
:10072000B448FFF7CDFDB349C02001F01DFF30688C
:10073000A06184F808803068A169401A584542D306
:100740000021A44801F032FDABA1AA48FFF7B8FD93
:10075000A849C02001F008FF032020722078E17929
:10076000401E05FA00F0AA4F884212DA65724FF077
:1007700001024FF010014FF0904000F0B2FA3968DA
:100780004FF4487048630021384601F091FCA1A164
:1007900013E01BDD84F809804FF000024FF01001D8
:1007A0004FF0904000F09DFA39684FF4167048639E
:1007B0000021974801F07CFC9CA18E48FFF780FD4A
:1007C0008C49C02000E0C9E001F0CEFE3068A06195
:1007D00084F808903068A1691027401A41F27071BE
:1007E0008842607A7CD3012802D0022803D005E039
:1007F0002078401C01E02078401E2070227891A1D2
:100800007C48FFF75DFD7B49482001F0ADFE91A1DA
:100810007848FFF755FD7749C02001F0A5FEA07983
:1008200000F00F00A0716770052020722178491E2A
:1008300005FA01F0E179084276D00021744801F010
:10084000B5FC4FF49677384600F050F988A1694816
:10085000FFF736FD6749482001F086FE384600F074
:1008600045F9227877A16348FFF72AFD61494820BE
:1008700001F07AFE384600F039F97DA15D48FFF7B6
:100880001FFD5C49482001F06FFE384600F02EF94C
:1008900022786CA15748FFF713FD5649482001F014
:1008A00063FE012220214FF0904000F01AFADAF89E
:1008B000000047630021474801F0FAFB70A14D4852
:1008C000FFF7FEFC4B49C02001F04EFE3068A061EE
:1008D000062020723068A169401A58453ED302E0D4
:1008E0003EE02CE01BE000213A4801F05FFC6DA1E6
:1008F0004048FFF7E5FC3F49C02001F035FE207875
:10090000E179401E05FA00F08143E171A07900F021
:10091000F0000843A07101F06FFF07202072E0791A
:1009200088B33068A06100E040E064A13148FFF77F
:10093000C7FC3049C02001F017FE08202072306843
:10094000A169401AB0F5FA6F08D362A12948FFF7F0
:10095000B7FC2849C02001F007FE2572BDE8F09FD2
:10096000012802D002280FD01AE060784008607099
:10097000082801D180206070A079617800F00F0014
:100980000843A0710CE016E0A079617800F00F0038
:100990000843A071480010F0FF00607000D167703C
:1009A000BDE8F05F4FF4967000F0A0B83068A06129
:1009B00084F80890D2E70020207246A10D48FFF786
:1009C0007FFCBDE8F05F0B49C02001F0CDBD000009
:1009D00000000020BC0100203000002020446F6F88
:1009E0007220436C6F73696E6720202020202020C6
:1009F000202020003800002020446F6F7220436CBC
:100A00006F736564202020202020202020200000FB
:100A1000D8000020456C657620557070696E67209F
:100A2000202020202020202020000000456C65761A
:100A300020446F776E696E672020202020202020C0
:100A400020202000202020202020202020202531B0
:100A500064000000456C65762052756E6E656420FA
:100A60003120466C6F6F7220202020202020200033
:100A700020202020202020202020202020000000D6
:100A8000436F6D6564202C20446F6F72204F70653A
:100A90006E696E672020202020202020202020202A
:100AA00000000000446F6F72204F70656E65642017
:100AB0002020202020202020202000005761697461
:100AC00074696E672032732020202020202020208F
:100AD0002020000020202020202020202020202056
:100AE000202020202020000072B6FEE770B50446CA
:100AF00000F0FCF80546601C02D00448406804443D
:100B000000F0F4F8401BA042FAD370BD280000208A
:100B10002DE9FC4FDFF8A0A1002301250AF1040B09
:100B200003244FF00F0C0BF1040EBDE005FA03F6A1
:100B300032406FD04F68012F05D0022F03D0112F04
:100B400001D0122F17D1D0F808905F0004FA07F8EF
:100B500029EA08090097D1F80C8008FA07F848EA52
:100B60000908C0F808804768B7430E79C6F3001635
:100B70009E403E434660C6684FEA430804FA08F7C1
:100B8000BE4301978F6807FA08F73743C7604E687E
:100B9000022E01D0122E13D1DE0800EB860600963D
:100BA000366A5F07FF0E0CFA07F926EA0906D1F844
:100BB000109009FA07F949EA0609009EC6F8209044
:100BC0000668019FBE430F7907F0030707FA08F78D
:100BD000374307604E68F60065D5384E376E47F0EC
:100BE00001073766366E23F0030706F0010600960C
:100BF000334E3E44B146B6689F074FEA17780CFA69
:100C000008F7BE43B0F1904F05D02E4FB84204D143
:100C1000012717E047E0002714E02B4FB84201D12D
:100C200002270FE0294FB84201D103270AE0284FDD
:100C3000B84201D1042705E0264FB84201D105276B
:100C400000E0062707FA08F73743C9F80870DAF812
:100C500000605746D1F8048096435FEAC83800D553
:100C600016433E60DBF800605F46D1F8048096438F
:100C70005FEA883800D516433E60DEF800607746AC
:100C8000D1F8048096435FEAC82800D516433E6039
:100C9000094F0C373E68D1F8048096435FEA8828F4
:100CA00000D516433E605B1C0A6832FA03F67FF4F7
:100CB0003DAFBDE8FC8F0000000401400010024081
:100CC000000001400004004800080048000C0048F3
:100CD00000100048001400480069084000D00120BE
:100CE00070470AB18161704781627047014880682E
:100CF00070470000280000200248816842681144C3
:100D0000816070472800002010B50024032000F007
:100D100073F8002000F008F808B1012401E000F0A9
:100D200025F8204610BD000070B50E4E0546002483
:100D3000706898B14FF47A71B1FBF0F00A49096814
:100D4000B1FBF0F000F0C2FE40B9102D06D2002237
:100D50002946501E00F030F8356000E0012420469E
:100D600070BD000028000020340000200A4882B036
:100D7000016E41F001010166016E01F00101009177
:100D8000816D41F080518165806D00F08050009050
:100D900002B000F0A1B8000000100240002809DBFA
:100DA00000F01F02012191404009800000F1E02085
:100DB000C0F8001170470000F0B40E4B1B680C46E1
:100DC000C3F30223C3F10705042D00D90425191D1F
:100DD000072901D2002300E0DB1E012606FA05F1F7
:100DE000491E214099409E40761E16403143F0BC7A
:100DF00002F00CBB0CED00E0064900F007020868A9
:100E00004FF6FF03184040EA0220034A10430860EF
:100E1000704700000CED00E00000FA052B492C4B58
:100E20000A6832214A432B4940B1B0F5007F086877
:100E300029D020F4C06040F480602CE00868C0F342
:100E40004120022804D051F8800F20F4807022E065
:100E5000D1F8800020F48070C1F88000086820F488
:100E6000C06040F400700860B2FBF3F0401C00E08A
:100E7000401E4A69520501D50028F9D1486940054C
:100E80000AD503207047C0F34120022806D051F84C
:100E9000800F40F48070086000207047D1F8800017
:100EA00040F48070C1F88000086820F4C06040F40D
:100EB00000700860B2FBF3F0401C00E0401E4A697D
:100EC0005205DBD50028F9D1D8E700003400002016
:100ED00040420F00007000400248816841F48041A8
:100EE00081607047007000402DE9F84304460068B7
:100EF00000269D4D00035ED5A86D0027C00008D4D4
:100F0000A86D40F08050A865A86D012700F08050C2
:100F10000090DFF85892D9F8001041F48071C9F8B8
:100F20000010FFF7E3FE804606E000BFFFF7DEFE9D
:100F3000A0EB080002282BD8D9F80000C005F5D591
:100F4000D5F8900010F4407014D0216C814211D07B
:100F5000D5F89000D5F8901020F4407041F480311D
:100F6000C5F89010D5F8901021F48031C5F8901094
:100F7000C5F89000C00711D0FFF7B8FE804641F2D7
:100F8000883907E0FFF7B2FEA0EB0801494501D917
:100F900003260BE0D5F890008007F3D5D5F8900034
:100FA000216C20F440700843C5F890001FB1A86D73
:100FB00020F08050A8652078C00707D0D5F88800B9
:100FC000616820F003000843C5F888002078800796
:100FD00007D5D5F88800A16820F00C000843C5F8B3
:100FE00088002078400707D5D5F88800E16820F010
:100FF00030000843C5F888002078000707D5D5F8E9
:101000008800216920F0C0000843C5F888002078D6
:10101000800607D5D5F88800616920F44060084350
:10102000C5F888002078400607D5D5F88800A16962
:1010300020F440500843C5F888002078000607D502
:10104000D5F88800E16920F440400843C5F88800DD
:101050002088C00507D5D5F88800216A20F44030E3
:101060000843C5F888002088800507D5D5F8880092
:10107000616A20F440200843C5F8880020884005B4
:101080000FD5D5F88800A16A20F440100843C5F8B0
:101090008800A06AB0F5801F03D1E86840F4801092
:1010A000E860208800050FD5D5F88800E16A20F4B3
:1010B00040000843C5F88800E06AB0F5800F03D10E
:1010C000E86840F48010E8602088C0040FD5D5F8A7
:1010D0008800216B20F040700843C5F88800206B21
:1010E000B0F1807F03D1E86840F48010E860208888
:1010F0004FF0006180040ED5D5F88800626B20F0B7
:1011000040601043C5F88800606B884203D1E868EE
:1011100040F48010E860208840040ED5D5F888009F
:10112000A26B20F040601043C5F88800A06B884295
:1011300003D1E86840F48010E860208800040FD5EF
:10114000D5F88800E16B20F040500843C5F88800CE
:10115000E06BB0F1805F03D1E86840F48030E86074
:101160003046BDE8F88300000010024000700040E7
:101170002DE9F0470E4605004FF0000725D0DFF8B7
:10118000AC81D8F8000000F00F00B0420CD2D8F8C3
:10119000001021F00F013143C8F80010D8F800000A
:1011A00000F00F00B04210D12968614CC80741F22D
:1011B000883A5AD06868DFF87C91032808D0022862
:1011C00020682DD0400500282CDB0120BDE8F087E9
:1011D00020688001F9D5E06800F00302E068C0F300
:1011E0000310401C032A19D0534A00BFB2FBF0F091
:1011F000E268C2F306225043E268C2F34162521C25
:101200005200B0FBF2F0484517D9A06810F0F00F7B
:101210000CD0880711D5A86840B10EE0474AE5E731
:101220008003D0E700F092F8484506D9A06820F086
:10123000F00040F08000A0608027A068696820F07E
:1012400003000843A060FFF751FD814606E000BFA0
:10125000FFF74CFDA0EB090151453AD8A068696839
:1012600000F00C00B0EB810FF2D12868810714D593
:10127000400703D5A06840F4E060A060287800072C
:1012800005D5A06820F4605040F4E060A060A0683C
:10129000A96820F0F000084304E0802F03D1A06883
:1012A00020F0F000A060D8F80010404601F00F01D7
:1012B000B14216D9016821F00F0131430160FFF7F7
:1012C00015FD074607E000BFFFF710FDC11B5145A4
:1012D00001D903207AE7D8F8000000F00F00B042EF
:1012E000F2D12878400705D5A068E96820F4E060CD
:1012F0000843A0602878000706D5A068296920F473
:10130000605040EAC100A06000F020F8A1680C4ADB
:10131000C1F30311515C01F01F01C8400949086085
:1013200009480068BDE8F047FFF7FEBC0020024016
:101330000010024000B4C4040024F40000366E0122
:101340005C4600083400002028000020184910B531
:101350008868C0F381021748012A0BD08A68164BAF
:10136000C2F38102022A06D08A68C2F38102032AEC
:1013700003D0002010BD184610BDCA6802F0030457
:10138000CA68C2F30312521C032C02D0B0FBF2F065
:1013900001E0B3FBF2F0CA68C968C2F30622504309
:1013A000C1F34161491C4900B0FBF1F010BD0000E0
:1013B000001002400024F40000366E012DE9F843CD
:1013C00004007AD02078FA4DC00747D0A868E968B1
:1013D00000F00C0001F003010C2802D0082817D0FF
:1013E00001E0032914D06068B0F5803F17D0B0F554
:1013F000A02F286817D020F480302860286820F4B7
:10140000802028606068E0B1FFF770FC064614E0B9
:101410002868800322D560680028D2D01EE02868A2
:1014200040F48030EDE740F480202860F7E700BF0B
:10143000FFF75CFC801B642870D828688003F7D510
:101440000CE0FFF753FC064605E000BFFFF74EFC3B
:10145000801B6428F0D828688003F7D420788007A0
:101460004CD5A868E96800F00C0001F003010C28D5
:1014700002D004280DD001E002290AD0E06800283B
:1014800028682BD040F480702860FFF72FFC0646B8
:1014900019E02868400502D5E068002891D0686806
:1014A000217C20F0FE4040EA01606860C14800688D
:1014B000FFF73AFC002800D120E076E1FFF716FCA8
:1014C000801B0228B8D828684005F7D56868217CB9
:1014D00020F0FE4040EA016068600FE020F4807078
:1014E0002860FFF703FC064605E000BFFFF7FEFBA0
:1014F000801B0228A0D828684005F7D42078000770
:1015000029D560690028D5F8940013D040F0010077
:10151000C5F89400FFF7EAFB064606E090E000BF3E
:10152000FFF7E4FB801B022886D8D5F894008007DB
:10153000F6D510E020F00100C5F89400FFF7D6FBC7
:10154000064604E0FFF7D2FB801B022878D8D5F8C6
:1015500094008007F6D42078400761D5A86D002656
:10156000C00008D4A86D40F08050A865A86D012681
:1015700000F08050009090480168C90511D40168BE
:10158000804641F480710160FFF7B0FB074604E03C
:10159000FFF7ACFBC01B022852D8D8F80000C005EA
:1015A000F6D5A068012815D00528D5F8900016D0EA
:1015B00020F00100C5F89000D5F8900020F004005C
:1015C000C5F89000A06841F28838B8B1FFF78EFBEB
:1015D00007460EE0D5F8900040F00100F0E740F03B
:1015E0000400C5F89000F5E7FFF780FBC11B4145FB
:1015F00026D8D5F890008007F6D50CE0FFF776FBEB
:10160000074604E0FFF772FBC11B414518D8D5F827
:1016100090008007F6D41EB1A86D20F08050A86518
:101620002078800629D5A0690028D5F8980013D025
:1016300040F00100C5F89800FFF758FB064606E0A9
:1016400077E000BFFFF752FB801B022877D8D5F860
:1016500098008007F6D510E020F00100C5F898004A
:10166000FFF744FB064604E0FFF740FB801B02281F
:1016700065D8D5F898008007F6D4E069F0B3A9687A
:10168000C1F38101032961D00228286820F080700D
:1016900028600BD0E86820F00300E860E86847495C
:1016A0000840E860FFF722FB04464BE0FFF71EFB13
:1016B000064604E0FFF71AFB801B02283FD8286883
:1016C0008001F7D4F4E908016FF00F0202EB011179
:1016D0000843218A5204490802EB4151A26841EAB9
:1016E00002210843217D4FF07E42490802EB41610F
:1016F0000843217B40EAC160E96800E062E0304ACB
:1017000011400843E860286840F080702860E8686D
:1017100040F08070E860FFF7E9FA044605E000BF9A
:10172000FFF7E4FA001B022809D828688001F7D5E2
:1017300048E004E0FFF7DAFA001B022802D9032090
:10174000BDE8F88328688001F4D43BE00128F7D095
:10175000E868226A00F00301914226D1616A00F034
:10176000F0020901103991421FD1A26A00F4FE4132
:10177000B1EB022F19D194F82C2000F07841B1EB95
:10178000C26F12D1218E00F4C00249084905A1F5AB
:101790000011914209D194F8341000F0C06049085A
:1017A0004906A1F1007181420CD00120C8E7000078
:1017B000001002402800002000700040FFFFEEFEF5
:1017C0000C809F010020BBE70F4810B50B46016855
:1017D0000E480140080CD870C1F304245C7001F07D
:1017E0003F049C70C1F34231197052B901F0CDFA37
:1017F000D870587801F0C9FA5870987801F0C5FA95
:101800009870002010BD0000042800403FFFFF003A
:10181000144810B500680B4648601248083000684C
:10182000C0F30E0088600F48083801680E48014078
:10183000C1F305401870C1F306245C7001F07F0409
:101840009C70890DD97052B901F09FFA18705878C0
:1018500001F09BFA5870987801F097FA9870002080
:1018600010BD0000082800407F7F7F0070B5040095
:101870004FF001003ED094F8250028B9002084F8EC
:101880002400204600F03CF8022084F825001A4E7F
:10189000CA20306053203060204601F08BFA10BB24
:1018A000154D0C3D28681549084028602868616876
:1018B000A269084321691143084328602189E0682F
:1018C00040EA01400C4914390860204601F098FABA
:1018D00048B9D4E90721114362692B6823F06043BA
:1018E0001A4311432960FF213160002802D10121F0
:1018F00084F8251070BD000024280040BFFF8FFB36
:1019000000680549884205D1044850F8901F41F409
:1019100000410160704700000028004000100240B4
:101920002DE9F041044690F824000B4601281AD016
:10193000012684F82460022084F82500B2B198784A
:10194000D97840EA014558781978000240EA4130D8
:1019500005431B4FCA20386053203860204601F0F1
:1019600029FAD8B122E00220BDE8F0815878C106FA
:1019700003D500F0EF000A305870D87801F00EFA65
:101980000504587801F00AFA45EA0025987801F034
:1019900005FA0543187845EA4035DAE70948054075
:1019A000074820380560204601F02AFAFF213960F7
:1019B00008B984F82560002184F82410D4E70000D9
:1019C000242800403FFFFF002DE9F047054690F82E
:1019D000240017460C46012814D04FF0010985F861
:1019E0002490022085F82500DFF8A480CA21C8F8D9
:1019F00000105321C8F80010284601F0DBF900263A
:101A000018B127E00220BDE8F087214B0C3B186895
:101A10004FEA40601FB3002800DBE670A078217811
:101A2000E27840EA01406178090241EA82510843C4
:101A300018490840164924390860186820F48020A5
:101A40001860D4E903010843196808431860284660
:101A500001F0D6F9FF22C8F80020A0B115E0002857
:101A600000DBE670207801F099F90704607801F056
:101A700095F947EA0027A07801F090F90743E0784C
:101A800047EA8050D4E785F8259085F82460BAE7C6
:101A9000242800407F7F7F0070B50B4D286820F020
:101AA00020002860FFF722F904464FF47A7606E01A
:101AB000FFF71CF9001BB04201D9032070BD286854
:101AC0008006F5D5002070BD0C28004010B5401EE2
:101AD000B0F1807F01D3012010BD4FF0E0246061A0
:101AE0000F21601701F092FC0020A0610720206107
:101AF000002010BDF0B590F83C20012A4AD0012208
:101B000080F83C20CA688B6822F440721A434B6804
:101B100022F480621A430B6822F400621A430B69B4
:101B200022F480521A434B6922F400521A430B6B81
:101B300022F480421A430B8B22F4702242EA0342C1
:101B4000154C03680026154DA34201D0AB4203D1CA
:101B5000CF6922F080523A43A34201D0AB4214D164
:101B60000F8D22F4700242EA07520F6A22F080724F
:101B70003A434F6A22F000723A43A34201D0AB428B
:101B800003D1C96A22F000520A435A6480F83C60CB
:101B90000020F0BD0220F0BD002C014000340140C7
:101BA000F0B590F83C20012A3AD0012580F83C504D
:101BB000022280F83D2003685A689C68194E1A4F2B
:101BC000B34201D0BB4204D122F4700C4A6842EA0D
:101BD0000C02DFF858C002EA0C02D1F800C04CEA4F
:101BE000020CC3F804C00268B2420DD0B2F1804FBB
:101BF0000AD00F4B9A4207D00E4B9A4204D0BA42F9
:101C000002D00D4B9A4204D1896824F08003194315
:101C1000916080F83D50002180F83C100846F0BDEE
:101C20000220F0BD002C0140003401408FFFFFFD79
:101C300000040040000800400040014010B50400CE
:101C400003D094F83D0010B107E0012010BD002042
:101C500084F83C00204600F023F8022084F83D0080
:101C6000211D206801F09EF9012084F8480084F8C5
:101C70003E0084F83F0084F8400084F8410084F876
:101C8000420084F8430084F8440084F8450084F856
:101C9000460084F8470084F83D00002010BD000095
:101CA00010B586B0044614216846FEF71DFC216875
:101CB0003348B1F1804F0AD0324A91422DD1816D23
:101CC00041F002018165806D00F0020056E0816DF7
:101CD00041F001018165816D01F001010591C16C47
:101CE00041F00101C164C06C694600F0010005903B
:101CF0004FF40040009002200190002002900390D9
:101D0000012004904FF09040FEF702FF00220221D4
:101D10001C20FFF751F81C2010E01B4A914211D102
:101D2000816D41F010018165806D002200F010008E
:101D3000059003213620FFF73FF83620FFF72EF8F5
:101D400006B010BD114A91420ED1016E41F48031AE
:101D50000166006E002200F48030059003211820F7
:101D6000FFF72AF81820E9E7094A9142E8D1016E05
:101D700041F480210166006E00F480200590DFE7C9
:101D800000100240000400400010004000400140EC
:101D90000048014070B5044690F83C00012814D07A
:101DA000012584F83C50022084F83D0022689068A8
:101DB000344B184020F47F4090600868702827D08A
:101DC00010DC10F00F0F03D04AE04FF0020070BD9E
:101DD0004FEA2012072A43D2DFE802F05050505059
:101DE00048313900284BC21A984247D009DCB0F577
:101DF000805F35D0B0F5005F15D0B0F1101F2FD146
:101E00003CE0102A3AD0202A38D0502A28D135E098
:101E1000CB68D1E90121206801F029F920688168A7
:101E200041F0770109E0CB68D1E90121206801F098
:101E30001EF92068816841F48041816010E0CA6821
:101E40004968206801F0BEFA5021206806E0CA689F
:101E50004968206801F0C7FA6021206801F012F992
:101E600084F83D50002084F83C0070BDCA68496881
:101E7000206801F0A7FA40212068EFE722680146B8
:101E80001046EBE788FFCEFF2000100030B587B08A
:101E9000044614216846FEF727FB24681F4D0023E3
:101EA0001F4A02214FF09040AC420DD1D46C44F057
:101EB0000104D464D26CCDE9023102F00102059232
:101EC0004022CDE9002110E0164DAC4213D1D46C74
:101ED00044F00104D464D26CCDE9023102F0010275
:101EE00005920422CDE90021092104916946FEF7FB
:101EF0000FFE07B030BD0C4DAC42FAD1D46C44F0AB
:101F00000104D464D26CCDE9023102F001020592E1
:101F10008022CDE900210121E7E700000004004014
:101F200000100240004001400048014070B50446E6
:101F300090F83C000D4601280BD0012084F83C00AD
:101F40000C2A45D007DC5AB1042A1BD0082A78D1C4
:101F50002CE0022070BD102A4ED0142A71D15DE011
:101F6000206801F099F82068816941F008018161D9
:101F70002068816921F004018161206881692A69F2
:101F8000114311E0206801F0D5F82068816941F41F
:101F9000006181612068816921F48061816120682C
:101FA00081692A6941EA022181614AE0206801F0E1
:101FB00009F92068C16941F00801C1612068C1695F
:101FC00021F00401C1612068C1692A69114311E04F
:101FD000206801F03FF92068C16941F40061C161E6
:101FE0002068C16921F48061C1612068C1692A69E2
:101FF00041EA0221C16124E0206801F073F9206800
:10200000016D41F0080101652068016D21F00401B6
:1020100001652068016D2A69114311E0206801F013
:1020200099F92068016D41F4006101652068016D36
:1020300021F4806101652068016D2A6941EA02216D
:102040000165002084F83C0070BD10B5040003D089
:1020500094F83D0010B107E0012010BD002084F885
:102060003C00204600F022F8022084F83D00211DAB
:10207000206800F097FF012084F8480084F83E00B3
:1020800084F83F0084F8400084F8410084F842005E
:1020900084F8430084F8440084F8450084F846003E
:1020A00084F8470084F83D00002010BD7047000010
:1020B00030B50446022269B1042912D0082917D08C
:1020C0000C291CD0102921D094F84300012824D0D9
:1020D000012030BD94F83E000128F9D184F83E205B
:1020E0001DE094F83F000128F2D184F83F2016E06B
:1020F00094F840000128EBD184F840200FE094F8D8
:1021000041000128E4D184F8412008E094F842001D
:102110000128DDD184F8422001E084F84320012227
:10212000206800F097FF194B20681949194A984216
:1021300009D0884207D0904205D0174DA84202D05E
:10214000164DA84203D1456C45F40045456420680E
:1021500098420CD0B0F1804F09D0114B984206D074
:10216000104B984203D0884201D0904207D1816839
:102170000D4A1140062906D0B1F5803F03D0016811
:1021800041F001010160002030BD0000002C014041
:10219000003401400040014000440140004801403B
:1021A00000040040000800400700010030B504466C
:1021B0000D460068002200F04DFF224B41F2111144
:1021C00020688A0098420BD01F4B984208D01F4BC2
:1021D000984205D01E4B984202D01E4B984209D11E
:1021E000036A0B4206D1036A134203D1436C23F402
:1021F000004343642068036A0B4206D1016A11421E
:1022000003D1016821F00101016001205DB1042DBD
:102210000CD0082D0DD00C2D0ED0102D0FD084F821
:102220004300002030BD84F83E00FAE784F83F0008
:10223000F7E784F84000F4E784F84100F1E784F818
:102240004200EEE7002C0140003401400040014014
:102250000044014000480140FEE700002DE9F04342
:1022600087B014216846FEF73FF93B48C16C41F046
:102270000401C164C16C01F004010591C16C41F01D
:102280002001C164C16C01F020010591C16C41F0D5
:102290000101C164C16C01F001010591C16C41F003
:1022A0000201C164C16C01F002010591C16C41F0F1
:1022B0000801C164C06C294F00F008004FF47F464C
:1022C0000590012231463846FEF70BFDDFF890906D
:1022D000002204214846FEF704FD01250024009653
:1022E000CDE90154694638460394FEF711FCCDE967
:1022F00000544FF09048694640460294FEF708FCAF
:102300000720CDE90004694616480294FEF700FC58
:1023100004200090CDE90154694648460394FEF735
:10232000F7FB30200090CDE9015469464046039404
:10233000FEF7EEFB012231463846FEF7D2FC0122C1
:1023400004214846FEF7CDFC002204214846FEF752
:10235000C8FC07B0BDE8F083001002400008004848
:10236000000C00480004004870B5234D2868234C39
:10237000E168401A32283ED32868E06000F040F857
:10238000A070627920EA02014240E170824322712A
:102390006071207A00282ED1012906D002290BD0A5
:1023A000032910D0042915D01BE02078012818D06B
:1023B000E07940F0010013E02078022811D0E079A4
:1023C00040F002000CE0207803280AD0E07940F0C9
:1023D000040005E02078042803D0E07940F00800EC
:1023E000E071A079E27900F0F0001043A0710029BB
:1023F00001D02868A06170BD3000002000000020DE
:1024000070B50E4D002401212846FEF765FC00B989
:10241000012402212846FEF75FFC00B902240421B2
:102420002846FEF759FC00B9032401214FF09040E3
:10243000FEF752FC00B90424204670BD0004004899
:1024400000B585B014216846FEF74EF84FF6FF70D0
:10245000009000200321CDE9020101906946024865
:10246000FEF756FB05B000BD0008004800B585B07A
:1024700014216846FEF738F84FF6FF7000900120EF
:102480000190032003900020029069460248FEF765
:102490003FFB05B000BD00000008004870B50024F7
:1024A00006462146204600F003F900F041F94FF4BA
:1024B0009635304600F010F9641CAC42F9D370BD7B
:1024C00030B587B014216846FEF70EF81E48C16C7F
:1024D00041F00401C164C16C01F004010591C16CBB
:1024E00041F00101C164C16C01F001010591C16CB1
:1024F00041F00201C164C06C012500F002000590AA
:102500004FF44870CDE90005002403946946029415
:102510000E48FEF7FDFA280203940090CDE901541D
:102520004FF0904469462046FEF7F2FAFFF79EFF0F
:10253000A06940F48070A06104481830016841F43B
:102540000871016007B030BD00100240000400486F
:10255000203AD2B2034B02EB420203EB021200F02C
:1025600019B800008C340008F0B50E460746002567
:1025700040F23F1407E021463846FFF7E9FF103CE0
:102580006D1CA4B2761C3278002A01D0142DF2D32F
:10259000F0BD00002DE9F04791468A46002604462A
:1025A00000F086F8DFF84080012700BF00F0C0F897
:1025B0005FF0000539F8160007FA05F108424046B9
:1025C00001D1408800E0008800F086F86D1C102DD5
:1025D000F0D3641CE4B25146204600F069F8761C42
:1025E000182EE3D3BDE8F0872000002010B5FFF7D8
:1025F00067FF002000F014F8084CA080A088A0F528
:102600000241303906D000F0BFFA002000F008F88F
:10261000A08010BD00F02FFAF7E700002000002096
:1026200070B51D490A6842F400720A600A6842F4F3
:1026300080720A60184C103C226842F0200222602E
:10264000164A1060086840F02000086000BF00BF14
:1026500000BF206840F020002060206840F48070B7
:102660002060FFF7EDFE4FF09041886A40F48070E3
:10267000886200BF00BF00BF0848001F006885B225
:10268000886940F480708861FFF7F0FE206840F4AC
:1026900000702060284670BD2804004814080048D7
:1026A00001B5BDF800000149488008BD20000020A8
:1026B00010B50C460146202000F068F82146BDE820
:1026C0001040212000F062B801B5BDF800000149BA
:1026D000088008BD20000020134A116841F40071F1
:1026E0001160114910390B6843F480730B600B685B
:1026F00043F020030B600D4B1860106840F0200081
:10270000106000BF00BF00BF086840F020000860F4
:10271000086840F48070086000BF00BF00BF086810
:1027200040F400700860704728040048140800480E
:102730001449086840F400700860086840F480702C
:10274000086010481038026842F0200202600E4B08
:1027500022221A600A6842F020020A6000BF00BF0D
:1027600000BF016841F020010160016841F48071FF
:10277000016000BF00BF00BF016841F4007101604B
:10278000704700002804004814080048184B10B592
:102790001A6842F400721A601A6842F480721A6071
:1027A000134A103A146844F020041460114C20605D
:1027B000186840F02000186000BF00BF00BF10681C
:1027C00040F020001060106840F4807010602160BC
:1027D000186840F02000186000BF00BF00BF1068FC
:1027E00040F020001060106840F48070106010BD50
:1027F000280400481408004870B5124D0446012210
:102800004FF47F412846FEF76CFA0F4E0122042157
:102810003046FEF766FA002204213046FEF761FAE0
:10282000210200222846FEF75CFA012204213046EC
:10283000FEF757FA3046BDE8704000220421FEF74B
:1028400050BA000000080048000C004838B51C4889
:1028500001681C4C6269891A64292FD30068606181
:10286000A27919A11D48FDF72BFD1C491820FFF77F
:102870007BFE22781AA11948FDF722FD174948204E
:10288000FFF772FE1549002218311948FEF7C0FF04
:10289000002204F11C011648FEF796FF0F4818307D
:1028A000817800914378027812A11838FDF708FD6D
:1028B000BDE8384009499020FFF756BE38BD0000FA
:1028C00030000020000000202043757272656E7495
:1028D00020506C6174666F726D000000380000203B
:1028E00020202020202020202020253164000000EE
:1028F0006400002020202020202020253032642D5C
:10290000253032642D2530326400000006490A6803
:1029100006480369D21AC82A04D30968016180797C
:10292000FFF76ABF70470000300000200000002061
:10293000FEE7FEE710B594B01C210DA8FDF7D4FD0D
:1029400034216846FDF7D0FD21482049002401606C
:102950004F21C0E901144FF4FA71C0E9031480213A
:10296000C0E90541FFF76AF908B1FEF7BDF818485C
:10297000FFF76BFB08B1FEF7B7F860200D9040F24F
:102980002B10CDE90E0410941194129400220DA97D
:102990000F481394FFF7CAFA08B1FEF7A5F80094A0
:1029A0004FF40050CDE9044001940294039406943E
:1029B000694607480C94FFF79DF808B1FEF794F8B4
:1029C0000348FFF763FA14B010BD0000004801404F
:1029D000BC01002010B58EB000240794089409941F
:1029E0000A940B940C941C2168460D94FDF77CFD11
:1029F0001F481E4901604F21C0E9011440F2E73130
:102A0000C0E9031480218161FFF718F908B1FEF7CE
:102A10006BF84FF48050079007A91548FFF7BAF9F3
:102A200008B1FEF761F81248FFF70FFB08B1FEF797
:102A30005BF80B940BA90E480D94FFF7B1F808B1A1
:102A4000FEF752F8602000904FF49670CDE9010433
:102A50000022694606480494FFF768FA08B1FEF7B9
:102A600043F80348FFF712FA0EB010BD000400400F
:102A7000D8000020704730B501210020FFF786FE06
:102A80004FF47A70FDF70DFE00210120FFF77EFE66
:102A900041F290711020FFF779FE4FF41C51602035
:102AA000FFF774FE01216120FFF770FE022146202E
:102AB000FFF76CFE48F210011320FFF767FE48F2A3
:102AC000FE011220FFF762FE4FF4A0610220FFF723
:102AD0005DFE41F230010320FFF758FE40F203345F
:102AE00021463020FFF752FE21463120FFF74EFEEF
:102AF00021463220FFF74AFEE51E29463320FFF724
:102B000045FE03213420FFF741FE21463520FFF723
:102B10003DFE14213620FFF739FE21463720FFF70E
:102B200035FE21463820FFF731FE21463920FFF7D8
:102B30002DFE29463A20FFF729FE03213B20FFF70F
:102B400025FE21463C20FFF721FE4FF4A0513D20F9
:102B5000FFF71CFE4FF400719220FFF717FE21468D
:102B60009320FFF713FE40F60D019020FFF70EFEB5
:102B700041F218010320FFF709FEBDE8304040F2A2
:102B800073110720FFF702BE10B543F20801E320DE
:102B9000FFF7FCFD1221E720FFF7F8FD41F231219C
:102BA000EF20FFF7F3FD00210120FFF7EFFD4FF4C9
:102BB000E0610220FFF7EAFD41F230010320FFF758
:102BC000E5FD00210420FFF7E1FD40F20721082088
:102BD000FFF7DCFD00210920FFF7D8FD00210A20C6
:102BE000FFF7D4FD00210C20FFF7D0FD00210D20C0
:102BF000FFF7CCFD00210F20FFF7C8FD00211020BA
:102C0000FFF7C4FD07211120FFF7C0FD00211220AE
:102C1000FFF7BCFD00211320FFF7B8FDC820FDF72A
:102C200065FF41F290611020FFF7B0FD40F22721CF
:102C30001120FFF7ABFD3220FDF758FF1D211220B8
:102C4000FFF7A4FD3220FDF751FF4FF40061132080
:102C5000FFF79CFD14212920FFF798FD0B212B2065
:102C6000FFF794FD3220FDF741FF00212020FFF700
:102C70008DFD00212120FFF789FD07213020FFF77E
:102C800085FD40F207713120FFF780FD06213220DB
:102C9000FFF77CFD40F204713520FFF777FD41F628
:102CA00004713620FFF772FD04213720FFF76EFD17
:102CB00000213820FFF76AFD40F206713920FFF746
:102CC00065FD40F201713C20FFF760FD0F213D20C2
:102CD000FFF75CFD00215020FFF758FDEF21512048
:102CE000FFF754FD00215220FFF750FD40F23F1145
:102CF0005320FFF74BFD4FF41C516020FFF746FDBA
:102D000001216120FFF742FD00216A20FFF73EFD0F
:102D100000218020FFF73AFD00218120FFF736FDDA
:102D200000218220FFF732FD00218320FFF72EFDD6
:102D300000218420FFF72AFD00218520FFF726FDD2
:102D400010219020FFF722FD00219220FFF71EFDA9
:102D500003219320FFF71AFD4FF488719520FFF7A8
:102D600015FD00219720FFF711FD00219820FFF7A6
:102D70000DFD41F218010320FFF708FDBDE81040EA
:102D800040F273110720FFF701BD010901EB81013A
:102D900000F00F0000EB4100C0B270470022014676
:102DA00002E00A39C9B2521C0A29FAD2100741EAD4
:102DB000106070472DE9F047104C814600252068CF
:102DC000400618D4206840F080002060FDF78EFF98
:102DD00006464FF47A78032708E000BFFDF786FF28
:102DE000801B404502D9032589F8257020684006DC
:102DF00001D4032DF2D12846BDE8F0870C2800400D
:102E00002DE9F041064613480025016821F08001B4
:102E10000160104C0C3420684FF00307800607D483
:102E20003046FEF739FE90B186F8257003250EE096
:102E3000206820F0200020603046FEF72DFE10B103
:102E400086F825700325206840F020002060284681
:102E5000BDE8F0810C28004010B586B0142168460A
:102E6000FDF742FB214800241F490594C0E90014E6
:102E70007D21816041F27071C0E903144FF08041FF
:102E80004461C0E906410462FEF7F0FC08B1FDF7B9
:102E90002BFE17208DF800003B208DF80100372015
:102EA0008DF8020001940394002269460F480494AF
:102EB000FEF78AFD08B1FDF717FE05208DF8140016
:102EC00009208DF815000A208DF8160015208DF8C0
:102ED0001700002205A90548FEF722FD002801D0B1
:102EE000FDF702FE06B010BD00280040640000207F
:102EF0007047FDF701BF000010B5A6B03821684645
:102F0000FDF7F2FA14211FA8FDF7EEFA44210EA8EE
:102F1000FDF7EAFA4FF40070FDF780FF0120009002
:102F20000004019002200324CDE907041421CDE917
:102F30000A100C900D9009946846FEF73FFA08B10C
:102F4000FDF7D2FD0F20CDE91F0400202190229033
:102F5000239002211FA8FEF70BF908B1FDF7C4FD6D
:102F60000B48C16C41F02001C164C06C00F020002E
:102F700024904FF400200E904FF440701E900EA845
:102F8000FDF7B2FF002801D0FDF7AEFD26B010BD61
:102F9000001002400248016841F47001016070476E
:102FA00088ED00E02DE9F0430268234B234D244EC9
:102FB000244C4FF08049984207D0484505D0A8429C
:102FC00003D0B04201D0A04203D122F070074A687A
:102FD0003A431D4FDFF874C0DFF8748098420DD07B
:102FE00048450BD0A84209D0B04207D0A04205D036
:102FF000B84203D0604501D0404503D122F440756A
:10300000CA682A434D6922F080022A4302608A6816
:10301000C2620A688262984207D0A04205D0B842D4
:1030200003D0604501D0404501D109690163012108
:103030004161BDE8F0830000002C01400004004025
:1030400000080040003401400040014000440140BD
:103050000048014010B501F01F030121046A9940A6
:103060008C430462016A9A401143016210BD10B59D
:10307000846842EA032224F47F440A4322438260A4
:1030800010BD00008268034B1A400A4342F007015A
:10309000816070478FFFCFFF2DE9F043026A22F075
:1030A00001020262056A436882691C4C25F0020530
:1030B00022400C6822F0030214438A68194E2A4306
:1030C000174D194FDFF864C0DFF86490A84207D0AD
:1030D000B04205D0B84203D0604501D0484506D182
:1030E00022F00808CA6842EA080222F00402A84254
:1030F00007D0B04205D0B84203D0604501D0484562
:1031000005D14D6923F440731D438B692B43436004
:103110008461496841630262BDE8F0838FFFFEFF6E
:10312000002C0140003401400040014000440140B7
:1031300000480140F0B5026A22F010020262056AFE
:1031400042688369194C1B4E23400C6823F440737A
:1031500043EA042425F020038D6843EA0513144D47
:10316000A84201D0B04206D1CF6823F0800343EAE1
:10317000071323F04003A8420AD0B04208D00E4DF6
:10318000A84205D00D4DA84202D00D4DA84207D14E
:103190004D6922F4406242EA85028D6942EA850265
:1031A00042608461496881630362F0BDFF8FFFFE66
:1031B000002C014000340140004001400044014027
:1031C00000480140F0B5026A22F480720262056A8A
:1031D0004368C269194C1B4E22400C6822F003025E
:1031E000144325F400728D6842EA0522144DA8426A
:1031F00001D0B04206D1CF6822F4006242EA072231
:1032000022F48062A8420AD0B04208D00E4DA842F3
:1032100005D00E4DA84202D00D4DA84207D14D69F0
:1032200023F4405343EA05138D6943EA05134360D1
:10323000C4614968C1630262F0BD00008FFFFEFFF8
:10324000002C014000340140004001400044014096
:1032500000480140F0B5026A22F480520262056A19
:103260004268C369194C1B4E23400C6823F4407319
:1032700043EA042425F400538D6843EA0533144DD2
:10328000A84201D0B04206D1CF6823F4004343EAFC
:10329000073323F48043A8420AD0B04208D00E4D31
:1032A000A84205D00D4DA84202D00D4DA84207D12D
:1032B0004D6922F4404242EA85128D6942EA851244
:1032C0004260C461496801640362F0BDFF8FFFFE84
:1032D000002C014000340140004001400044014006
:1032E0000048014030B5026A22F480320262046A6A
:1032F0004268036D114D2B400D681D4324F40033CB
:103300000C8943EA04430E4CA0420BD00D4CA04262
:1033100008D00D4CA04205D00C4CA04202D00C4C61
:10332000A04204D14C6922F4803242EA0422426075
:10333000056549688164036230BD00008FFFFEFFB0
:10334000002C014000340140004001400044014095
:103350000048014030B5026A22F480120262046A19
:103360004268036D114D24F400142B400D6843EAAC
:1033700005230D8944EA05540D4DA8420BD00D4D8F
:10338000A84208D00C4DA84205D00C4DA84202D04E
:103390000B4DA84204D14D6922F4802242EA8522D5
:1033A000426003654968C164046230BDFF8FFFFE5F
:1033B000002C014000340140004001400044014025
:1033C0000048014010B5036A046A24F00104046255
:1033D000846924F0F00444EA021423F00A020A4348
:1033E0008461026210BD10B5036A23F0100303620A
:1033F0008369046A23F4704343EA023224F0A00391
:1034000043EA01118261016210BDFEE70907090E5E
:10341000002804DB00F1E02080F80014704700F081
:103420000F0000F1E02080F8141D704730380A28A2
:1034300001D201207047002070470000FDF764FCB6
:10344000FFF75AFDFEF70AFFFFF7D0F84FF6FF74BB
:103450002046FFF723F82046FFF722F91F20FFF749
:1034600033F9FFF7B7FAFFF765FAFFF7F5FC00BF8E
:10347000FEF77AFFFFF74AFAFFF7E8F9FDF720F9C0
:10348000F6E74FF04070E1EE100A704700000000D0
:10349000000000000000000000000000000000002C
:1034A000000000000000000000000000000000001C
:1034B000000000000000000000000000000080018B
:1034C00080018001800180018001800180018001F4
:1034D00080018001800180010000000080018001E6
:1034E00000000000000000000000000000000000DC
:1034F000CC00CC00CC00CC00CC00CC000000000004
:1035000000000000000000000000000000000000BB
:1035100000000000000000000000000000000000AB
:103520000000000000000000600C600C600C300621
:103530003006FE1FFE1F300638071803FE1FFE1F51
:10354000180318038C018C018C010000000080001E
:10355000E003F80F9C0E8C1C8C188C009800F8016E
:10356000E007800E801C8C188C189C18B80CF00F8B
:10357000E003800080000000000000000000000068
:1035800000000E181B0C110C11061106110311037B
:103590009B018E01C038C06C6044604430443044AC
:1035A0001844186C0C380000000000000000E00116
:1035B000F0033807180618063003F001F000F80091
:1035C0009C310E33061E061C061C063FFC73F021C0
:1035D00000000000000000000000000000000000EB
:1035E0000C000C000C000C000C000C000000000093
:1035F00000000000000000000000000000000000CB
:1036000000000000000000000000000000000002B8
:1036100000038001C000C000600060003000300086
:1036200030003000300030003000300060006000BA
:10363000C000C00080010003000200000000200064
:103640006000C00080018001000300030006000646
:103650000006000600060006000600060003000340
:1036600080018001C0006000200000000000000018
:103670000000000000000000C000C000D806F807ED
:10368000E0013003380700000000000000000000E7
:10369000000000000000000000000000000000002A
:1036A0000000000000000000800180018001800116
:1036B0008001FC3FFC3F800180018001800180018E
:1036C00000000000000000000000000000000000FA
:1036D00000000000000000000000000000000000EA
:1036E0000000000000000000000000000000800159
:1036F00080010001000180000000000000000000C7
:1037000000000000000000000000000000000000B9
:1037100000000000E007E0070000000000000000DB
:103720000000000000000000000000000000000099
:103730000000000000000000000000000000000089
:103740000000000000000000000000000000C000B9
:10375000C000000000000000000000000000000C9D
:10376000000C0006000600060003000300038003AF
:10377000800180018001C000C000C00060006000C6
:103780000000000000000000000000000000E00356
:10379000F007380E180C0C180C180C180C180C1814
:1037A0000C180C180C180C18180C380EF007E00345
:1037B0000000000000000000000000000000000108
:1037C0008001C001F0019801880180018001800121
:1037D00080018001800180018001800180018001E1
:1037E0000000000000000000000000000000E003F6
:1037F000F80F180C0C180C1800180018000C000614
:1038000000038001C000600030001800FC1FFC1F96
:103810000000000000000000000000000000E001C7
:10382000F807180E0C0C0C0C000C0006C003C007A7
:10383000000C001800180C180C18180CF807E003FE
:103840000000000000000000000000000000000C6C
:10385000000E000F000F800DC00C600C600C300CCF
:10386000180C0C0CFC3FFC3F000C000C000C000C76
:103870000000000000000000000000000000F80F41
:10388000F80F180018000C00EC03FC071C0E001CBD
:103890000018001800180C181C0C180EF807E0038C
:1038A0000000000000000000000000000000C00751
:1038B000F00F381C181818000C00CC03EC0F3C0E4D
:1038C0001C1C0C180C180C18181C380EF007E00300
:1038D0000000000000000000000000000000FC1FCD
:1038E000FC1F000C00060006000380038001C001DD
:1038F000C000E00060006000700030003000300068
:103900000000000000000000000000000000E003D4
:10391000F007380E180C180C180C3806F007F007D2
:10392000180C0C180C180C180C18380CF80FE003B5
:103930000000000000000000000000000000E003A4
:10394000F007380E1C0C0C180C180C181C1C381E18
:10395000F81BE0190018000C000C1C0EF807F00111
:103960000000000000000000000000000000000057
:103970000000000000000000800180010000000045
:103980000000000000000000000000008001800135
:103990000000000000000000000000000000000027
:1039A0000000000000000000800180010000000015
:1039B0000000000000000000000000008001800105
:1039C0000001000180000000000000000000000075
:1039D0000000000000000000000000000010001CBB
:1039E000800FE003F8001800F800E003800F001CCF
:1039F00000100000000000000000000000000000B7
:103A0000000000000000000000000000F81F00009F
:103A100000000000F81F000000000000000000008F
:103A20000000000000000000000000000000000096
:103A30000000000000000000000000000800380046
:103A4000F001C007001F0018001FC007F001380078
:103A50000800000000000000000000000000E0037B
:103A6000F80F180C0C180C180018000C00060003B6
:103A70008001C000C000C00000000000C000C00005
:103A80000000000000000000000000000000000036
:103A9000E00718180420C229224A114409440944A5
:103AA000094409221113E20C024004201818E0070F
:103AB0000000000000000000000000000000800383
:103AC0008003C006C006C006600C600C30183018B9
:103AD0003018F83FF83F1C700C600C6006C006C040
:103AE0000000000000000000000000000000FC03D7
:103AF000FC0F0C0C0C180C180C180C0CFC07FC0F11
:103B00000C180C300C300C300C300C18FC1FFC075F
:103B10000000000000000000000000000000C007DE
:103B2000F01F38381C300C700660060006000600D6
:103B300006000600060006600C701C30F01FE0074F
:103B40000000000000000000000000000000FE0374
:103B5000FE0F060E06180618063006300630063030
:103B600006300630063006180618060EFE0FFE0355
:103B70000000000000000000000000000000FC3F0A
:103B8000FC3F0C000C000C000C000C00FC1FFC1F88
:103B90000C000C000C000C000C000C00FC3FFC3F67
:103BA0000000000000000000000000000000F83FDE
:103BB000F83F18001800180018001800F81FF81F28
:103BC0001800180018001800180018001800180035
:103BD0000000000000000000000000000000E00FF6
:103BE000F83F3C780E6006E007C00300030003FEC8
:103BF00003FE03C007C006C00EC03CF0F83FE00F54
:103C000000000000000000000000000000000C3078
:103C10000C300C300C300C300C300C30FC3FFC3FC6
:103C20000C300C300C300C300C300C300C300C30B4
:103C30000000000000000000000000000000800103
:103C4000800180018001800180018001800180016C
:103C5000800180018001800180018001800180015C
:103C6000000000000000000000000000000000064E
:103C70000006000600060006000600060006000614
:103C8000000600060006180618063807F003E001D3
:103C900000000000000000000000000000000630EE
:103CA0000618060C060606038601C60066007600A6
:103CB000DE008E0106030606060C061806300660B6
:103CC00000000000000000000000000000001800DC
:103CD0001800180018001800180018001800180024
:103CE000180018001800180018001800F81FF81F16
:103CF00000000000000000000000000000000EE0D6
:103D00001EF01EF01EF036D836D836D836D866CC1F
:103D100066CC66CCC6C6C6C6C6C6C6C686C386C37D
:103D200000000000000000000000000000000C3057
:103D30001C303C303C306C306C30CC30CC308C3172
:103D40000C330C330C360C360C3C0C3C0C380C3061
:103D50000000000000000000000000000000E0077C
:103D6000F81F1C380E70066003C003C003C003C0F8
:103D700003C003C003C006600E701C38F81FE007C4
:103D80000000000000000000000000000000FC0F28
:103D9000FC1F0C380C300C300C300C300C18FC1F95
:103DA000FC070C000C000C000C000C000C000C00BC
:103DB0000000000000000000000000000000E0071C
:103DC000F81F1C380E70066003E003C003C003C078
:103DD00003C003C007E006630E3F1C3CF83FE0F75A
:103DE00000C0000000000000000000000000FE0F06
:103DF000FE1F06380630063006300638FE1FFE0766
:103E000006030606060C061806180630063006607D
:103E10000000000000000000000000000000E003BF
:103E2000F80F1C0C0C180C180C001C00F803E00F09
:103E3000001E0038063006300E301C1CF80FE0075C
:103E40000000000000000000000000000000FE7FF5
:103E5000FE7F80018001800180018001800180015E
:103E6000800180018001800180018001800180014A
:103E700000000000000000000000000000000C3006
:103E80000C300C300C300C300C300C300C300C3052
:103E90000C300C300C300C300C301818F81FE007C8
:103EA00000000000000000000000000000000360AF
:103EB0000630063006300C180C180C18180C180CAC
:103EC000380E30063006700760036003C001C00181
:103ED000000000000000000000000000000003607F
:103EE000C361C361C3616633663366336633663369
:103EF00066336C1B6C1B6C1B2C1A3C1E380E380E68
:103F000000000000000000000000000000000FE0C2
:103F10000C7018303018700C600EC00780038003DE
:103F2000C003E006700C301C18180C300E6007E05F
:103F3000000000000000000000000000000003C0BE
:103F400006600C301C383818300C6006E007C003DF
:103F50008001800180018001800180018001800159
:103F60000000000000000000000000000000FC7FD6
:103F7000FC7F006000300018000C00060003800188
:103F8000C0006000300018000C000600FE7FFE7FBD
:103F90000000000000000000000000000000E0033E
:103FA000E00360006000600060006000600060008E
:103FB0006000600060006000600060006000600001
:103FC000600060006000E003E003000000003000DB
:103FD0003000600060006000C000C000C000C00190
:103FE0008001800180010003000300030006000639
:103FF0000000000000000000000000000000E003DE
:10400000E0030003000300030003000300030003B8
:104010000003000300030003000300030003000388
:10402000000300030003E003E003000000000000C1
:10403000C001C00160036003600330063006180C45
:10404000180C00000000000000000000000000004C
:104050000000000000000000000000000000000060
:104060000000000000000000000000000000000050
:104070000000000000000000000000000000FFFF42
:10408000FFFF0000000000000000000000000C0026
:104090000C000C000C000C000C00000000000000E4
:1040A0000000000000000000000000000000000010
:1040B0000000000000000000000000000000000000
:1040C0000000000000000000F003F8071C0C0C0CBE
:1040D000000FF00FF80C0C0C0C0C1C0FF80FF01864
:1040E00000000000000000000000000000001800B8
:1040F0001800180018001800D803F80F380C18180A
:1041000018181818181818181818380CF80FD80399
:10411000000000000000000000000000000000009F
:104120000000000000000000C003F007300E180C73
:104130001800180018001800180C300EF007C00303
:104140000000000000000000000000000000001857
:104150000018001800180018C01BF01F301C181899
:1041600018181818181818181818301CF01FC01B29
:10417000000000000000000000000000000000003F
:104180000000000000000000C003F00F300C181801
:10419000F81FF81F180018003818301CF00FC0075F
:1041A0000000000000000000000000000000800F80
:1041B000C00FC000C000C000F007F007C000C00082
:1041C000C000C000C000C000C000C000C000C000EF
:1041D00000000000000000000000000000000000DF
:1041E0000000000000000000E00DF80F180E0C0C9D
:1041F0000C0C0C0C0C0C0C0C0C0C180EF80FE00D2D
:10420000000C0C0C1C06F807F00100000000180060
:104210001800180018001800D807F80F381C1818D4
:10422000181818181818181818181818181818180E
:104230000000000000000000000000000000C000BE
:10424000C000000000000000C000C000C000C000AE
:10425000C000C000C000C000C000C000C000C0005E
:104260000000000000000000000000000000C0008E
:10427000C000000000000000C000C000C000C0007E
:10428000C000C000C000C000C000C000C000C0002E
:10429000C000C000C000F8007800000000000C0062
:1042A0000C000C000C000C000C0C0C060C038C0118
:1042B000CC006C00FC009C018C030C030C060C0C65
:1042C0000000000000000000000000000000C0002E
:1042D000C000C000C000C000C000C000C000C000DE
:1042E000C000C000C000C000C000C000C000C000CE
:1042F00000000000000000000000000000000000BE
:1043000000000000000000007C3CFF7EC7E383C18A
:1043100083C183C183C183C183C183C183C183C17D
:10432000000000000000000000000000000000008D
:1043300000000000000000009807F80F381C181853
:1043400018181818181818181818181818181818ED
:10435000000000000000000000000000000000005D
:104360000000000000000000C003F00F300C18181F
:1043700018181818181818181818300CF00FC0034F
:10438000000000000000000000000000000000002D
:104390000000000000000000D803F80F380C1818C7
:1043A00018181818181818181818380CF80FD803F7
:1043B0001800180018001800180000000000000085
:1043C0000000000000000000C01BF01F301C181887
:1043D00018181818181818181818301CF01FC01BB7
:1043E0000018001800180018001800000000000055
:1043F0000000000000000000B007F0037000300073
:10440000300030003000300030003000300030002C
:10441000000000000000000000000000000000009C
:104420000000000000000000E003F003380E180C4C
:104430003800F003C007000C180C380EF007E0033A
:10444000000000000000000000000000000000006C
:104450008000C000C000C000F007F007C000C0002E
:10446000C000C000C000C000C000C000C00780077E
:10447000000000000000000000000000000000003C
:10448000000000000000000018181818181818186C
:1044900018181818181818181818381CF01FE019D0
:1044A000000000000000000000000000000000000C
:1044B00000000000000000000C18180C180C180C6C
:1044C000300630063006600360036003C001C0019F
:1044D00000000000000000000000000000000000DC
:1044E0000000000000000000C141C141C3616363DE
:1044F000636363633636363636361C1C1C1C1C1C44
:1045000000000000000000000000000000000000AB
:1045100000000000000000001C38381C300C600651
:1045200060036003600360036006300C381C1C38B5
:10453000000000000000000000000000000000007B
:10454000000000000000000018303018301870180B
:10455000600C600CE00CC006C00680038003800382
:1045600080018001C001F000700000000000000028
:104570000000000000000000FC1FFC1F000C0006F3
:1045800000038001C000600030001800FC1FFC1F09
:104590000000000000000000000000000000000318
:1045A0008001C000C000C000C000C000C0006000AA
:1045B0006000300060004000C000C000C000C000CB
:1045C000C000C00080010003000000000000800166
:1045D00080018001800180018001800180018001D3
:1045E00080018001800180018001800180018001C3
:1045F00080018001800180018001000000006000D6
:10460000C000C001800180018001800180010003A1
:104610000003000600030001800180018001800189
:1046200080018001C0006000000000000000000068
:10463000000000000000000000000000F010F81F63
:10464000080F000000000000000000000000000053
:10465000000000000000000000000000000000005A
:104660000000000001020304060708090400000816
:104670000000000000000002000100001000000027
:10468000A0460008000000203800000014020008C6
:10469000D84600083800002030080000300200082A
:1046A00001100000000000000000000000000000F9
:1046B00000000000000000000000000000000000FA
:1046C0000000FFFF000000001000000001000000DB
:0846D000000000000024F400CA
:04000005080001D915
:00000001FF
