:020000040800F2
:100000000009002099020008AB400008A73500084D
:10001000A9400008FD160008195000080000000063
:10002000000000000000000000000000C9450008BA
:10003000FF16000800000000AD400008CB45000896
:10004000B3020008B3020008B3020008B3020008BC
:10005000B3020008B3020008B3020008B3020008AC
:10006000B3020008B3020008B3020008B30200089C
:10007000B3020008B3020008B3020008B30200088C
:10008000B302000800000000B3020008B302000839
:10009000B3020008B3020008B3020008B30200086C
:1000A000B3020008B3020008B3020008B30200085C
:1000B000B3020008B3020008B3020008B30200084C
:1000C000B3020008B3020008B3020008B30200083C
:1000D000B30200080D500008B3020008B302000884
:1000E000B3020008B3020008B3020008B30200081C
:1000F000B3020008B3020008B302000800000000C9
:1001000000000000B302000800000000B302000875
:10011000B302000800000000B3020008B3020008A8
:10012000B3020008B3020008B3020008B3020008DB
:10013000B30200080000000000000000B302000845
:10014000B3020008B3020008000000000000000035
:10015000000000000000000000000000000000009F
:10016000000000000000000000000000B3020008D2
:10017000B3020008000000000000000000000000C2
:1001800000000000B30200080000000000000000B2
:10019000000000000000000000000000000000005F
:1001A0000000000000000000B3020008B3020008D5
:1001B000B3020008B3020008B30200080000000008
:1001C00000000000B3020008000000000000000072
:1001D000B3020008B302000800F002F800F04CF887
:1001E0000AA090E8000C82448344AAF10107DA4592
:1001F00001D100F041F8AFF2090EBAE80F0013F098
:10020000010F18BFFB1A43F0010318474C680000A8
:100210006C680000103A24BF78C878C1FAD8520739
:1002200024BF30C830C144BF04680C607047000070
:100230000023002400250026103A28BF78C1FBD8EF
:10024000520728BF30C148BF0B607047662905F0D0
:10025000A682642900F0F480002070471FB505F0E5
:1002600094FA00F095FC04000020002105F046F807
:10027000E0601FBD10B510BD00F08AFD1146FFF70C
:10028000EDFF05F007F800F0A8FD03B4FFF7F2FF5B
:1002900003BC00F0EBFD0000094880470948004717
:1002A000FEE7FEE7FEE7FEE7FEE7FEE7FEE7FEE726
:1002B000FEE7FEE704480549054A064B7047000083
:1002C00075460008D901000800030020000900203D
:1002D000000500200005002053EA020C00F06980B0
:1002E0002DE9F04B4FF00006002B1FBFB3FA83F54A
:1002F00003FA05F424FA05F65E4012BF1643B2FA7B
:1003000082F502FA05F4C5F120051EBF22FA05FCAC
:1003100044EA0C04203556EA044C4FEA144418BF52
:10032000641C4FF000084FF00009904271EB030C81
:1003300039D3002919BFB1FA81F701FA07F6B0FAEB
:1003400080F700FA07F6C7F120071EBF20FA07FC66
:1003500046EA0C062037B6FBF4FCA7EB0507103F76
:1003600007F01F0BCBF120060CFA0BFB2CFA06F65C
:1003700044BFB3460026202FA4BF5E464FF0000BBB
:100380005BEA060C08BF4FF0010B19EB0B09ABFB46
:10039000027C48EB0608C01B06FB02CC0BFB03CC1F
:1003A00071EB0C01C1E70B46024641464846BDE8E9
:1003B000F08B13B54FF000004FF00001AFF3008059
:1003C000BDE81C40704700000FB41CB5074B06AADF
:1003D0007B4469460090059800F0C1FB0020694607
:1003E00000F0D0FB1CBC5DF814FB0000B10700005E
:1003F00070B5044685690068C10601D5302600E065
:100400002026C00707D070BDD4E9012130469047AF
:10041000206A401C20626D1EF6D570BD70B5044682
:1004200085690078C00707D170BDD4E9012120207B
:100430009047206A401C20626D1EF6D570BD0000FA
:100440002DE9F0410646002410687529314616A5AD
:1004500010D0AFF30080002802DA404213A507E075
:1004600031688A0701D512A502E0490704D511A514
:10047000012401E0AFF3008000210A2206F12407E5
:1004800009E0B0FBF2FCB0FBF2F302FB1C003030E1
:1004900078541846491C0028F3D123462A46304692
:1004A000BDE8F04100F0EDB8000000002D000000B4
:1004B0002B000000200000002DE9F05F8946044673
:1004C0004FF0000ADFF824B1FB44C0F820A020461A
:1004D000E168884700287DD0252806D0D4E901218D
:1004E0009047206A401C2062F1E700255F462046C5
:1004F000E16888472028064607DB312E05D2B81967
:1005000010F8200C08B10543F1E7A80701D525F044
:100510000405C4F81CA00027C4F818A02A2E09D08E
:10052000304604F053FE38B304EB8708303EC8F879
:10053000186019E059F8041B204604EB870291610A
:10054000E1688847012F064618D1E069002820DAC3
:1005500025F020051DE0D8F8180000EB800006EB20
:1005600040003038C8F818002046E1688847064641
:1005700004F02CFE0028EED1012F0AD02E2E08D137
:100580002046E16888477F1C0646022F45F020057B
:10059000C4DBA069002803DA404245F00105A061F0
:1005A000E80701D025F01005A6B1A6F141001928F1
:1005B00002D8203645F400654A463146204625607B
:1005C0004D46FFF743FE60B1012807D0ED1D25F031
:1005D000070000E007E000F1080978E705F10409E9
:1005E00075E730467AE7206ABDE8F09FE6640000D0
:1005F00010B5431C02E010F8011B71B18107FAD15C
:100600004FF0013202C88C1A8C4314EAC211F9D09F
:10061000C01A0A0603D0C01E10BDC01A10BD0A04BD
:1006200001D0801E10BD0902FCD0401E10BD4FF04D
:10063000000200B5134694469646203922BFA0E832
:100640000C50A0E80C50B1F12001BFF4F7AF09073E
:1006500028BFA0E80C5048BF0CC05DF804EB89002F
:1006600028BF40F8042B08BF704748BF20F8022B72
:1006700011F0804F18BF00F8012B7047704770478A
:1006800070472DE9F0470D4699469246044600F121
:1006900024080168880604D5E06921F01001216072
:1006A00000E00120A84201DD471B00E00027A1690E
:1006B0007A1902EB0900081AA0612078C00602D45A
:1006C0002046FFF795FE002608E0D4E901211AF83C
:1006D00006009047206A401C761C20624E45F4DBE1
:1006E0002078C0060AD52046FFF782FE06E0D4E94E
:1006F000012130209047206A401C2062381EA7F15B
:100700000107F4DC07E0D4E9012118F8050090475F
:10071000206A401C2062281EA5F10105F3DC20465A
:10072000FFF77CFE2078000602D50220BDE8F087A6
:100730000120FBE770472DE9FF4F0C461E464FF0A6
:10074000FF378BB0D2E90001DDF860800A908A465D
:10075000C1F30A5505B93D46002108464FF0000097
:10076000BAF1000F00F4400005DA00EB80004FF40E
:10077000400101EA50004FEA9059B9F1010F00DD44
:10078000B9460A9850EA4A000ED044F61050A5F235
:10079000FF3545432F14B8F1000F1ED07542291EB6
:1007A0001EDDC9F100021CE0B8F1010F4FF000009E
:1007B00001D0302103E0F24305E02154401CB04257
:1007C000FBDB30460022002121540B99C1F8088040
:1007D000C1E900200FB0BDE8F08FBD1B6D1CDEE746
:1007E0004A4600DA694206A800F05CFA06AB93E8D4
:1007F000070003AB83E8070050460A9900F03DFB71
:100800008DE80700A0F500501F3800900398002DD8
:100810000ADD42F21F014A460844002303A903905F
:10082000684600F0A6FD09E0A0F500504A461F38D2
:10083000002303A90390684600F0B0FD8DE807008F
:100840000004000C03D04FF0FF30410800E01046D8
:10085000B8F1000F03D00022009215461EE0751E6D
:1008600005D400F099F9303262556D1EF9D5B346C2
:100870000122084302D000227F1C04E020783028A7
:1008800001D100227F1E002A099784D01DE0112D7E
:1008900007DA00F081F9303262556D1C50EA01022E
:1008A000F5D1084302D00098C8B10EE00021681EBF
:1008B00005E0235C625C63542254401E491C814263
:1008C000F7DBAB46A81B401E0990002004F80B0084
:1008D0000B98099AC0F80880C0E9002B7AE7112626
:1008E0004FF0000857E72DE9F04F88460446D21D27
:1008F00022F0070191B0D1E90001CDE90A0104F02D
:100900003DFC02460B98C00F01D02D2007E0206867
:10091000810701D52B2002E0202101EAC000032A33
:10092000099001D0072A05DB03464146204600F026
:1009300079F90BE12078800601D5E06900E0062016
:10094000B8F1650F814606D0B8F1660F18D0B8F13E
:10095000670F70D131E00020B9F1110F009001DB79
:10096000112301E009F101030AAA01A90CA8FFF76C
:10097000E2FEDDE90C70002609F10105834647E03F
:1009800001204B4600904FF000470AAA01A90CA88D
:10099000FFF7D1FEDDE90DB00C995D46002610B9D8
:1009A00009F101000D18B9EB050003D4C0F1FF36C1
:1009B00009F10105A5EB09002BE0B9F1010F01DAFE
:1009C0004FF001090020B9F1110F0090484601DDF8
:1009D000112300E003460AAA01A90CA8FFF7ABFE09
:1009E000DDE90C704D4600268346207800070AD4C6
:1009F000AB4500DA5D4601A8012D04DD411911F86F
:100A0000011C302907D04F4502DA17F1040F04DA30
:100A1000012082460FE06D1EEEE7002F02DCED1B89
:100A20003E4403E0781CA84200DD7D1CB81B00F1A9
:100A3000010A4FF000472078000703D4AA4501DBE4
:100A40004FF0FF3A0021B7F1004F0DF143088DF848
:100A5000431024D002202B23002F01DA7F422D23C4
:100A60000A21021EA0F1010000DC5FB197FBF1FC3E
:100A700097FBF1F201FB1C7C17460CF1300C08F8D7
:100A800001CDEEE7A8F1010003702188090501D529
:100A9000452100E06521A0F1010800F8011C09983A
:100AA0000FA9A1EB0807FF1D00B10120411901EBBF
:100AB000EA70A1693844081A401EA0612078C00677
:100AC00002D42046FFF794FC099828B1D4E901210B
:100AD0009047206A401C20622078C00622D520461C
:100AE000FFF786FC1EE0002E04DBB34502DD01A803
:100AF000805D00E03020D4E901219047206A401C4D
:100B00002062761CAAF101005FEA000A0AD100F017
:100B10003FF8C0680168405CD4E901219047206A31
:100B2000401C2062281EA5F10105DCDC07E0D4E9A9
:100B3000012118F8010B9047206A401C2062381EE2
:100B4000A7F10107F3DC2046FFF768FC032011B092
:100B500041E6000001694A1C02610878704700B54F
:100B60008FB0CDE901310021059105497944CDE9E6
:100B7000031011466846FFF79FFC0FB000BD000050
:100B8000E5FFFFFF0A6802F8010B0A6070470000EA
:100B900000487047BC02002030B5B0F10A024FEAAD
:100BA000900E71F100034EEA817EB0EB0E0061EB16
:100BB00091014FEA101E4EEA017E10EB0E0041EB50
:100BC00011114FEA102E4EEA016E10EB0E0041EBB0
:100BD00011214FEA104E4EEA014E10EB0E0041EB90
:100BE0001141401841F100014FEAD00040EA417044
:100BF0004FEAD10110EB80054FEA810444EA90747A
:100C000044EB01046D1944EB0404521BA3414FF063
:100C1000000348BF0A3200D530BD401C41F100013D
:100C200030BD00002DE9F0411F460446032601684F
:100C3000072A01F4006004DB08B116A505E016A53B
:100C400003E008B115A500E015A521F01000206013
:100C5000A069C01EA0610FB1401EA0612046FFF731
:100C6000C7FB4FB1D4E9012138469047206A401CA8
:100C70002062C01C206206E0206AFAE7D4E9012164
:100C800015F8010B9047761EF8D22046FFF7C6FBF9
:100C9000BDE8F0814E414E006E616E00494E460047
:100CA000696E66002DE9F047814616468AB03548E0
:100CB00078440DC88DE80D0032487844801C03ACA0
:100CC0000DC884E80D0041F69B300844372190FBA5
:100CD000F1F290FBF1F5A5F1800501FB12041B3C3C
:100CE00002D56442012000E00020DFF898A0804691
:100CF0000027FA44AAF1BE0A0EE0E0070AD0324605
:100D0000684607EB470101230AEB810100F046FB2F
:100D10008DE8070064107F1C002CEED1194F7F4432
:100D2000AE3F19E0E80715D007EB04100DF1180AE3
:100D300090E80E008AE80E00C068F04201D19819D0
:100D400008903246012306A903A800F027FB03AB55
:100D500083E807006D10641C002DE3D14FF0010300
:100D600032466946B8F1000F03A802D000F001FB3B
:100D700001E000F013FBC9E90001C9F808200AB03E
:100D8000BDE8F0878C5D0000004870479C020020A1
:100D90007546FFF7F9FFAE4605006946534620F059
:100DA0000700854618B020B5FFF784FABDE820405B
:100DB0004FF000064FF000074FF000084FF0000B17
:100DC00021F00701AC46ACE8C009ACE8C009ACE8CA
:100DD000C009ACE8C0098D46704710B50446AFF3B2
:100DE00000802046BDE81040FFF74FBA4FF0013CAD
:100DF00050F8042B51F8043B9A4221D1A2EB0C038A
:100E0000934313EACC1317D150F8042B51F8043B49
:100E10009A4215D1A2EB0C03934313EACC130BD1E6
:100E200050F8042B51F8043B9A4209D1A2EB0C0371
:100E3000934313EACC13DBD04FF00000704700BFA0
:100E4000D01A01BAB1FA81F101F0180122FA01F0C9
:100E5000CB40C1F12001DBB2C0B2C01A2CFA01F3C1
:100E6000D11A914311EAC311E6D170470149182004
:100E7000ABBEFEE72600020070475FEA400C08BFE9
:100E800091F0000F4FEA8C234FEAC12243EA5151FF
:100E90004FEA1C5018BF00F5F0404FEA300018BF71
:100EA00041F000415FEA6C5C00F02980BCF1FF3F3B
:100EB00008BF40F080407047130C06BF12044FF08B
:100EC000100C4FF0000C130E04BF12020CF1080CB2
:100ED000130F04BF12010CF1040C930F04BF920016
:100EE0000CF1020CD30F04BF52000CF1010C11469F
:100EF0004FF00002A0F11F00A0EB0C00704711F0B2
:100F0000004F08BF704731F000413FF4D5AF0B0CE4
:100F100006BF09044FF0100C4FF0000C0B0E04BF7D
:100F200009020CF1080C0B0F04BF09010CF1040CB1
:100F30008B0F04BF89000CF1020CCB0F04BF4900DA
:100F40000CF1010CCCF12003A0EB0C0022FA03F30E
:100F500002FA0CF241EA030100F10100704720F0AF
:100F60007F4C80EA030023F07F47ACEB070303F5D7
:100F70007C5300F0004003F1FF032DE980494FEA64
:100F8000154B09B44FEA144325EA0B4E24EA0348F3
:100F90000FF2042606EB132749083E785FEA320277
:100FA00003FB0667C7F5000707FB06F64FEA543751
:100FB0004FEAD64606F1020607FB066CCCF1005C50
:100FC0004FEA1C472CEA074C07FB06F40CFB06F51E
:100FD00004EB15464FEA961634BF00204FF0004050
:100FE0004FEAD13706FB07FC4FEA1C4C0CFB0BF712
:100FF000D21B03FB0CF761EB07010CFB0EF7B0EB08
:10100000074072EB17420CFB08F734BFA2EB074214
:10101000B2EB074261EB17414FEA0C444FEA9107EC
:1010200006FB07FC4FEA1C4C0CFB0BF7B0EBC74070
:1010300072EB573203FB0CF734BFA2EBC742B2EBA3
:10104000C74261EB57310CFB0EF7B0EBC70072EBF8
:1010500057720CFB08F734BFA2EBC702B2EBC70212
:1010600061EB5771039F4FEA816141EA921104EBF2
:10107000CC044FEAD1374FEA826206FB07FC42EA12
:1010800090124FEA80604FEA1C4C0CFB0BF7D21B0E
:1010900003FB0CF761EB07010CFB0EF7B0EB07400D
:1010A00072EB17420CFB08F734BFA2EB0742B2EB1E
:1010B000074261EB17414FEA8C554FEA910704EB69
:1010C0009C2406FB07FC4FEA1C4C0CFB0BF7B0EB17
:1010D000C74072EB573203FB0CF734BFA2EBC74299
:1010E000B2EBC74261EB57310CFB0EF7B0EBC70018
:1010F00072EB57720CFB08F734BFA2EBC702B2EBDE
:10110000C70261EB577115EB4C254FEA816141EA4B
:1011100092114FEA82624FEAD13742EA901206FBFF
:1011200007FC44F100044FEA80604FEA1C4C0CFBC2
:101130000BF7D21B03FB0CF761EB07010CFB0EF75F
:10114000B0EB074072EB17420CFB08F734BFA2EB81
:101150000742B2EB074261EB174115EB1C154FEA52
:10116000813141EA92414FEA823242EA90424FEAAB
:1011700080304FEA0C7644F1000448EA03434EEA1B
:101180000B484FF0000EB2EB080C71EB030724BFC5
:10119000624639464EEB0E0E4FF0000B00185241DE
:1011A00049414BEB0B0BB2EB080C71EB03077BF1E6
:1011B000000B24BF624639464EEB0E0E4FF0000B7B
:1011C0000018524149414BEB0B0BB2EB080C71EB91
:1011D00003077BF1000B24BF624639464EEB0E0E2F
:1011E00051EA020718BF46F0010616EB0E7655F1DC
:1011F000000254F1000103D5BDE88901BDE8008873
:10120000BDE88901BDE80048B619524141EB010132
:10121000A3F10103704780807F7E7D7C7B7A7978A3
:10122000777676757473727171706F6E6E6D6C6CAB
:101230006B6A6A696868676666656464636362614D
:101240006160605F5F5E5E5D5D5C5C5B5B5A5A59CE
:10125000595858575756565555555454535352523A
:101260005251515050504F4F4F4E4E4D4D4D4C4C92
:101270004C4B4B4B4A4A4A494949484848474747DB
:101280004746464645454544444444434343434218
:10129000424242414141002B9C4630D477002BD042
:1012A0001CB54FEA370703B44FF010004FF01001A0
:1012B000BAF1000F06D0BCF1000FDCBF40F008000F
:1012C00040F008014FF000000FBCBDE810400BF1EA
:1012D000010BBBF1010F08BF5FEA170722BF12F134
:1012E000010211F101014FF0004143F1000300F050
:1012F000004043EA00007047F9D35708D0E746EAB8
:10130000064613F1400F4FEA16461FDD13F1200F7A
:10131000DFBF16430A46002120335B42BED0C3F133
:10132000200746EA064602FA07F74FEA164646EA5B
:101330000706C3F1200722FA03F201FA07F721FAA0
:1013400003F14FF0000342EA0702A7E746EA02066C
:1013500046EA06464FEA164646EA0106BCBF46EA9A
:101360000646360C4FF000034FF000024FF000012C
:1013700094E72DE9804C9A46934670B491E8380082
:1013800007C831EA400C48BF34EA430C03D5FFF7E5
:10139000E6FDFFF780FFF0BCBDE8008C2DE9804C36
:1013A0009A46934670B491E8380007C810F0804F11
:1013B00008BF13F0804F03D100F005F8FFF76BFF73
:1013C000F0BCBDE8008C20F07F4780EA030023F0EA
:1013D0007F4C07EB0C03A3F57C5300F00040A3F116
:1013E000FE0392F0000F00F0B38095F0000F00F0C4
:1013F00077802DE901494FEA11404FEA144621EA6E
:10140000004800FB06FC24EA064708FB06F607FB3B
:1014100008F800FB07F718EB06484CEB164C4FEAB0
:10142000124B18EB07484FEA15464CEB174022EADF
:101430000B4E0BFB06FC25EA06470EFB06F607FBE8
:101440000EFE0BFB07F71EEB064E4CEB164C4FF057
:1014500000061EEB074E4CEB174B18EB0B0840F148
:10146000000018EB0E0B58EB000840F100008F1A3B
:101470004FF000013CBFC943661B14BFB5EB040C21
:1014800000213CBFC943F61B4FEA17444EEA8E0EBB
:1014900027EA04454FEA1C4704FB07622CEA074C85
:1014A00005FB07F70CFB05F604FB0CFC16EB0746E7
:1014B00042EB174216EB0C4642EB1C421BEB0606B6
:1014C00058EB0202414146EA9E0601D5BDE801897A
:1014D000B619524141EB0101A3F10103BDE80189B5
:1014E0004FEA14454FEA114724EA054621EA074C22
:1014F00005FB07F406FB07F70CFB06F105FB0CFCEC
:1015000011EB074144EB17444FEA124711EB0C4132
:1015100044EB1C4422EA074C05FB07F206FB07F7E5
:101520000CFB06F605FB0CFC16EB074642EB1742DC
:1015300016EB0C4642EB1C456A1854F1000148BFFB
:101540007047B619524141EB0101A3F10103704705
:1015500095F0000F37D04FEA11424FEA144721EAC5
:10156000024624EA074C02FB07F106FB07F70CFBD7
:1015700006F402FB0CFC14EB074441EB17414FEA65
:10158000154714EB0C4441EB1C4125EA074C02FBC8
:1015900007F506FB07F70CFB06F602FB0CFC16EB47
:1015A000074645EB174516EB0C4645EB1C42121956
:1015B00051F1000148BF7047B619524141EB01019A
:1015C000A3F1010370474FEA14454FEA114724EA9B
:1015D000054621EA074C05FB07F106FB07F70CFB64
:1015E00006F24FF0000605FB0CFC12EB074241EB44
:1015F000174112EB0C4251EB1C4148BF7047921847
:1016000041EB0101A3F101037047000030B589B03F
:1016100020216846FFF70BF819481849002401609B
:101620008902C0E90114C46004250461C0E90545CC
:10163000047744770121016280F82440C462046386
:1016400080F83840C46380F8404000F07FFA08B169
:1016500000F064F80B4800900620019007200290EB
:101660007F200594CDE903056946054800F058F848
:10167000002801D000F052F809B030BD0001005040
:10168000780100200080F03E70B504460068816853
:1016900011F0010F2DD18168174A11421AD18168CA
:1016A000D5432940491C816000F08CFD06461BE0B3
:1016B000816811F0010F03D181682940491C8160C4
:1016C00000F080FD801B02280ED920680068C0430E
:1016D000C00709D0E06D40F01000E065206E40F0DA
:1016E00001002066012070BD20680168C943C90758
:1016F000DED1002070BD00003F000080FEE7704793
:10170000002240F6B83306E00021491C89B2994214
:10171000FBD3521C92B28242F6D3704772B6FEE7F8
:101720002DE9F84F00270446009790F85800DFF89D
:10173000E0930D46B846012811D0012684F8586080
:10174000206802F041FB60B1E06D40F02000E065F0
:101750005FF0010784F858803846BDE8F88F022012
:10176000FBE7D5E900210C23206803EA9113184414
:10177000036B01F01F014FF01F0C0CFA01FCC2F3C8
:10178000846223EA0C038A4013430363206802F057
:101790001BFB8246206802F013FB5AEA00003CD192
:1017A000AA6829682068B2F1004F37D002F010FB18
:1017B0002068416921F00041416120686969C2687F
:1017C000C2F3C102520091402A69042A31D000EBD1
:1017D00082002B68026EDFF83CC303F0F84302EA94
:1017E0000C020B431A4342F00041016620682A694B
:1017F000A96900EB8200026E22F080720A43026641
:10180000297F22682869012910D0002102EB80007D
:10181000026E22F000720A4302667DE0002202F0AE
:10182000D7FA2068416941F00041C5E74FF00071E7
:10183000ECE7002102F0BEFA400320684FF00001FF
:1018400072D002F0B7FA90FAA0F0B0FA80F12868EE
:1018500042036ED090FAA0F0B0FA80F0814204D139
:1018600000221146206802F0C2FA0121206802F02D
:10187000A1FA400320684FF001015DD002F09AFA0E
:1018800090FAA0F0B0FA80F12868420359D090FA9B
:10189000A0F0B0FA80F0814204D10022012120683A
:1018A00002F0A5FA0221206802F084FA40032068C1
:1018B0004FF0020148D002F07DFA90FAA0F0B0FAA1
:1018C00080F12868420344D090FAA0F0B0FA80F08A
:1018D000814204D100220221206802F088FA03210B
:1018E000206802F067FA400320684FF0030133D00C
:1018F00002F060FA90FAA0F0B0FA80F12868420392
:101900002FD090FAA0F0B0FA80F0814204D10022EA
:101910000321206802F06BFA2068816811F0010F42
:1019200022D0ACE000E004E002F044FAC0F38461AD
:101930008DE7C0F3846091E702F03CFAC0F3846164
:10194000A2E7C0F38460A6E702F034FAC0F3846132
:10195000B7E7C0F38460BBE702F02CFAC0F3846100
:10196000CCE7C0F38460D0E72A7B296850F8B03F09
:10197000C1F3120C23EA0C0302F0180C664A22FA97
:101980000CF20A4013430360E968494577D128689F
:1019900041031CD090FAA0F1B1FA81F1491C01F089
:1019A0001F0109294FEA403132D8002912D000BF67
:1019B00090FAA0F1B1FA81F101F1010101F01F01EA
:1019C00006FA01F609D100BFC0F3846109E0C0F353
:1019D0008461E3E7C0F38461EEE790FAA0F1B1FA25
:1019E00081F101F1010101F01F0146EA816102D19B
:1019F000C0F3846003E090FAA0F0B0FA80F000F148
:101A0000010000F01F0000EB400041EA005132E00D
:101A100000290ED090FAA0F1B1FA81F101F1010193
:101A200001F01F0106FA01F606D100BFC0F3846180
:101A300006E0C0F38461F1E790FAA0F1B1FA81F118
:101A400001F1010101F01F0146EA816102D1C0F3F9
:101A5000846003E090FAA0F0B0FA80F000F1010099
:101A600000F01F002D4A00EB400002EB005041EA5D
:101A7000000141F00071AA68206802F0A9F9284825
:101A80002A6802423FF466AE26488168264B01F080
:101A9000E0719A4202D0254B9A421CD10B021AD413
:101AA0002268B2F1A04F7FF455AE826841F4000184
:101AB00022F0E0720A4382601D481E490068B0FBB4
:101AC000F1F0401C00EB4000800000E0401E009060
:101AD0000028FBD13EE6184D184BAA4207D1CD0194
:101AE00005D422689A42F5D041F0807109E0144D86
:101AF000AA42EFD14A02EDD422689A42EAD041F4D8
:101B00008001826822F0E0720A43826022E60000CF
:101B100000007F4000F0FF03FFFF0700000020FEF1
:101B20000000088000030050000021C31000C09096
:101B300050000020400D0300000052C7000100507B
:101B4000000084CB0068006C70470000F8B54FF0CF
:101B5000000504002E46009502D0E06D10B107E0AC
:101B60000120F8BD204600F0EFF8266684F85860A2
:101B700020688168C1F3407119B181686A4A1140D7
:101B8000816020688168C1F3007189B98168674A02
:101B9000114041F080518160654866490068B0FBA2
:101BA000F1F04000801C00E0401E00900028FBD1B6
:101BB00020688168C1F3007141B9E16D41F0100105
:101BC000E165216E41F001012166012502F0FCF87A
:101BD000E16DC90600D430B1E06D40F01000E06561
:101BE00001252846F8BDE06D20F4807040F0020029
:101BF000E0652068806810F0010F11D14FF0A0401F
:101C000080684D4900F00100896801F00101084336
:101C100006D14A486168826822F47C120A438260D5
:101C2000E168E06B627F0843A16841EA4231084302
:101C300094F8241040EA0140012904D1218D404A42
:101C400002EB41410843E16A29B101F47871226B4A
:101C5000014342EA01002168CA683A4B1A40024334
:101C6000CA6020680169626B21F040611143016123
:101C7000206802F0A9F80646206802F0A1F8304377
:101C80002ED1207F94F83810800340EA410220686A
:101C9000C16844F2020399431143C16020690028DE
:101CA000206801690AD041F480310161206850F850
:101CB000C01F22696FF30D01114307E021F4803149
:101CC0000161206850F8C01F6FF30D01016094F8A6
:101CD000400001280CD02068016921F00101016158
:101CE000606901282068016B21F00F0111D013E019
:101CF000D4E911010843D4E91312114308432168C0
:101D00000A6940F2FC739A43104340F001000861F5
:101D1000E6E7226A521E11430163E06D20F00200E3
:101D200040F00100E0655CE7C0FFFF5FC0FFFF7FA0
:101D300050000020400D030000010050000300503F
:101D40000000FEFF0740F0FFF0B587B00446142105
:101D50006846FEF76CFC214B266800241A680325B0
:101D60001F482049521CB6F1A04F06D01E4FBE425C
:101D700031D11A60012A16D01DE01A60012A07D15C
:101D8000CA6C42F40052CA64CA6C02F40052059252
:101D9000CA6C42F00202CA64C96C01F002010591EA
:101DA0004FF4805111E0CA6C42F40052CA64CA6C0C
:101DB00002F400520592CA6C42F00202CA64C96C75
:101DC00001F0020105914FF40041CDE900150294A4
:101DD000694600F009F907B0F0BD0000400000209E
:101DE0000004004800100240000100502DE9F041BD
:101DF00004463848806800F01F05206801F0E4FFC1
:101E000018B102210846BDE8F08194F85800012875
:101E10000CD0012084F858002046FFF735FC010063
:101E20004FF0000304D084F85830EBE70220EAE7D3
:101E3000E06D40F60162904340F48070E065264A10
:101E400020684FF0A046904201D1374600E0074697
:101E5000874200D01DB9E76D27F48017E765E76D6D
:101E6000FF0404D5276E27F00607276600E02366E7
:101E70001C27076084F858302068904201D133460F
:101E800000E00346834215D0A5B1052D12D0092DDF
:101E900010D0E36D43F48013E365904200D13046E7
:101EA000C0688001AED5E06D20F4005040F4805051
:101EB000E065A7E7C268920105D5E26D22F4005201
:101EC00042F48052E2658268044B1A40121D82601F
:101ED00098E700000003005000010050C0FFFF7FA2
:101EE00010B590F8253000210122022B03D00421E7
:101EF000C163012122E003681C6824F00E041C6009
:101F0000836C1C6824F480741C6003681C6824F0D3
:101F100001041C6090F84430046C03F01F0302FAC3
:101F200003F36360D0E913345C60436D33B11C6824
:101F300024F480741C60D0E916345C6080F825209D
:101F4000002280F82420084610BD70B590F82520A6
:101F5000002401212346022A07D00422C26380F80C
:101F6000251080F82430012429E00268156825F046
:101F70000E0515600268156825F001051560826C74
:101F8000156825F48075156090F84420056C02F002
:101F90001F0201FA02F26A60D0E913255560426D12
:101FA00032B1156825F480751560D0E916255560A5
:101FB00080F8251080F82430816B01B188472046D5
:101FC00070BD000070B5044600F0FCF80546601CCA
:101FD00002D004484068044400F0F4F8401BA042DA
:101FE000FAD370BD440000202DE9FC4FDFF8A0A11A
:101FF000002301250AF1040B03244FF00F0C0BF111
:10200000040EBDE005FA03F632406FD04F68012F91
:1020100005D0022F03D0112F01D0122F17D1D0F8E5
:1020200008905F0004FA07F829EA08090097D1F838
:102030000C8008FA07F848EA0908C0F808804768E1
:10204000B7430E79C6F300169E403E434660C6680D
:102050004FEA430804FA08F7BE4301978F6807FA6E
:1020600008F73743C7604E68022E01D0122E13D1F5
:10207000DE0800EB86060096366A5F07FF0E0CFA54
:1020800007F926EA0906D1F8109009FA07F949EA92
:102090000609009EC6F820900668019FBE430F798E
:1020A00007F0030707FA08F7374307604E68F600A2
:1020B00065D5384E376E47F001073766366E23F028
:1020C000030706F001060096334E3E44B146B6685B
:1020D0009F074FEA17780CFA08F7BE43B0F1904F0C
:1020E00005D02E4FB84204D1012717E047E0002762
:1020F00014E02B4FB84201D102270FE0294FB8421C
:1021000001D103270AE0284FB84201D1042705E096
:10211000264FB84201D1052700E0062707FA08F745
:102120003743C9F80870DAF800605746D1F80480E0
:1021300096435FEAC83800D516433E60DBF800607E
:102140005F46D1F8048096435FEA883800D516438D
:102150003E60DEF800607746D1F8048096435FEA7F
:10216000C82800D516433E60094F0C373E68D1F8A9
:10217000048096435FEA882800D516433E605B1CC6
:102180000A6832FA03F67FF43DAFBDE8FC8F000029
:10219000000401400010024000000140000400481B
:1021A00000080048000C00480010004800140048D7
:1021B0000069084000D0012070470AB18161704772
:1021C0008162704701488068704700004400002029
:1021D00002488168426811448160704744000020D1
:1021E00010B50024032000F073F8002000F008F878
:1021F00008B1012401E000F025F8204610BD0000E0
:1022000070B50E4E05460024706898B14FF47A718F
:10221000B1FBF0F00A490968B1FBF0F000F0E6FE0E
:1022200040B9102D06D200222946501E00F030F889
:10223000356000E00124204670BD0000440000200D
:10224000500000200A4882B0016E41F00101016691
:10225000016E01F001010091816D41F080518165B5
:10226000806D00F08050009002B000F0A1B8000036
:1022700000100240002809DB00F01F0201219140FC
:102280004009800000F1E020C0F800117047000014
:10229000F0B40E4B1B680C46C3F30223C3F10705D1
:1022A000042D00D90425191D072901D2002300E0BF
:1022B000DB1E012606FA05F1491E214099409E4089
:1022C000761E16403143F0BC02F070BF0CED00E00A
:1022D000064900F0070208684FF6FF03184040EA7D
:1022E0000220034A10430860704700000CED00E034
:1022F0000000FA052B492C4B0A6832214A432B492E
:1023000040B1B0F5007F086829D020F4C06040F4E7
:1023100080602CE00868C0F34120022804D051F806
:10232000800F20F4807022E0D1F8800020F48070CB
:10233000C1F88000086820F4C06040F400700860B4
:10234000B2FBF3F0401C00E0401E4A69520501D583
:102350000028F9D1486940050AD503207047C0F329
:102360004120022806D051F8800F40F480700860A8
:1023700000207047D1F8800040F48070C1F88000E0
:10238000086820F4C06040F400700860B2FBF3F00D
:10239000401C00E0401E4A695205DBD50028F9D1F7
:1023A000D8E700005000002040420F0000700040BD
:1023B0000248816841F480418160704700700040AC
:1023C0002DE9F8430446006800269D4D00035ED5C4
:1023D000A86D0027C00008D4A86D40F08050A86503
:1023E000A86D012700F080500090DFF85892D9F8CE
:1023F000001041F48071C9F80010FFF7E3FE804639
:1024000006E000BFFFF7DEFEA0EB080002282BD895
:10241000D9F80000C005F5D5D5F8900010F440704B
:1024200014D0216C814211D0D5F89000D5F89010CD
:1024300020F4407041F48031C5F89010D5F8901028
:1024400021F48031C5F89010C5F89000C00711D074
:10245000FFF7B8FE804641F2883907E0FFF7B2FE89
:10246000A0EB0801494501D903260BE0D5F89000FF
:102470008007F3D5D5F89000216C20F44070084314
:10248000C5F890001FB1A86D20F08050A865207895
:10249000C00707D0D5F88800616820F00300084322
:1024A000C5F888002078800707D5D5F88800A1688E
:1024B00020F00C000843C5F888002078400707D5B5
:1024C000D5F88800E16820F030000843C5F888009E
:1024D0002078000707D5D5F88800216920F0C000D2
:1024E0000843C5F888002078800607D5D5F888000D
:1024F000616920F440600843C5F8880020784006F0
:1025000007D5D5F88800A16920F440500843C5F8E4
:1025100088002078000607D5D5F88800E16920F406
:1025200040400843C5F888002088C00507D5D5F885
:102530008800216A20F440300843C5F888002088CC
:10254000800507D5D5F88800616A20F4402008434B
:10255000C5F88800208840050FD5D5F88800A16A05
:1025600020F440100843C5F88800A06AB0F5801F29
:1025700003D1E86840F48010E860208800050FD59A
:10258000D5F88800E16A20F440000843C5F88800C7
:10259000E06AB0F5800F03D1E86840F48010E8608D
:1025A0002088C0040FD5D5F88800216B20F040703A
:1025B0000843C5F88800206BB0F1807F03D1E8683C
:1025C00040F48010E86020884FF0006180040ED550
:1025D000D5F88800626B20F040601043C5F8880091
:1025E000606B884203D1E86840F48010E86020887E
:1025F00040040ED5D5F88800A26B20F0406010434F
:10260000C5F88800A06B884203D1E86840F48010C8
:10261000E860208800040FD5D5F88800E16B20F031
:1026200040500843C5F88800E06BB0F1805F03D1EB
:10263000E86840F48030E8603046BDE8F883000088
:1026400000100240007000402DE9F0470E460500E2
:102650004FF0000725D0DFF8AC81D8F8000000F07B
:102660000F00B0420CD2D8F8001021F00F01314316
:10267000C8F80010D8F8000000F00F00B04210D1E8
:102680002968614CC80741F2883A5AD06868DFF877
:102690007C91032808D0022820682DD0400500280E
:1026A0002CDB0120BDE8F08720688001F9D5E068C7
:1026B00000F00302E068C0F30310401C032A19D0A5
:1026C000534A00BFB2FBF0F0E268C2F30622504367
:1026D000E268C2F34162521C5200B0FBF2F048457E
:1026E00017D9A06810F0F00F0CD0880711D5A86892
:1026F00040B10EE0474AE5E78003D0E700F0B6F8C6
:10270000484506D9A06820F0F00040F08000A060A5
:102710008027A068696820F003000843A060FFF7E5
:1027200051FD814606E000BFFFF74CFDA0EB09011B
:1027300051453AD8A068696800F00C00B0EB810FF1
:10274000F2D12868810714D5400703D5A06840F46A
:10275000E060A0602878000705D5A06820F46050EC
:1027600040F4E060A060A068A96820F0F000084391
:1027700004E0802F03D1A06820F0F000A060D8F81A
:102780000010404601F00F01B14216D9016821F056
:102790000F0131430160FFF715FD074607E000BF59
:1027A000FFF710FDC11B514501D903207AE7D8F886
:1027B000000000F00F00B042F2D12878400705D5A4
:1027C000A068E96820F4E0600843A060287800076A
:1027D00006D5A068296920F4605040EAC100A060D5
:1027E00000F044F8A1680C4AC1F30311515C01F0F8
:1027F0001F01C8400949086009480068BDE8F04762
:10280000FFF7FEBC002002400010024000B4C404E8
:102810000024F40000366E019A6900085000002080
:10282000440000200548064900688968054AC1F34C
:102830000221515C01F01F01C84070475000002088
:1028400000100240AA690008054806490068896826
:10285000054AC1F3C221515C01F01F01C840704715
:102860005000002000100240AA690008184910B565
:102870008868C0F381021748012A0BD08A68164B7A
:10288000C2F38102022A06D08A68C2F38102032AB7
:1028900003D0002010BD184610BDCA6802F0030422
:1028A000CA68C2F30312521C032C02D0B0FBF2F030
:1028B00001E0B3FBF2F0CA68C968C2F306225043D4
:1028C000C1F34161491C4900B0FBF1F010BD0000AB
:1028D000001002400024F40000366E012DE9F84398
:1028E00004007AD02078FA4DC00747D0A868E9687C
:1028F00000F00C0001F003010C2802D0082817D0CA
:1029000001E0032914D06068B0F5803F17D0B0F51E
:10291000A02F286817D020F480302860286820F481
:10292000802028606068E0B1FFF74CFC064614E0A8
:102930002868800322D560680028D2D01EE028686D
:1029400040F48030EDE740F480202860F7E700BFD6
:10295000FFF738FC801B642870D828688003F7D5FF
:102960000CE0FFF72FFC064605E000BFFFF72AFC4E
:10297000801B6428F0D828688003F7D4207880076B
:102980004CD5A868E96800F00C0001F003010C28A0
:1029900002D004280DD001E002290AD0E068002806
:1029A00028682BD040F480702860FFF70BFC0646A7
:1029B00019E02868400502D5E068002891D06868D1
:1029C000217C20F0FE4040EA01606860C148006858
:1029D000FFF716FC002800D120E076E1FFF7F2FBBC
:1029E000801B0228B8D828684005F7D56868217C84
:1029F00020F0FE4040EA016068600FE020F4807043
:102A00002860FFF7DFFB064605E000BFFFF7DAFBB3
:102A1000801B0228A0D828684005F7D4207800073A
:102A200029D560690028D5F8940013D040F0010042
:102A3000C5F89400FFF7C6FB064606E090E000BF2D
:102A4000FFF7C0FB801B022886D8D5F894008007CA
:102A5000F6D510E020F00100C5F89400FFF7B2FBB6
:102A6000064604E0FFF7AEFB801B022878D8D5F8B5
:102A700094008007F6D42078400761D5A86D002621
:102A8000C00008D4A86D40F08050A865A86D01264C
:102A900000F08050009090480168C90511D4016889
:102AA000804641F480710160FFF78CFB074604E02B
:102AB000FFF788FBC01B022852D8D8F80000C005D9
:102AC000F6D5A068012815D00528D5F8900016D0B5
:102AD00020F00100C5F89000D5F8900020F0040027
:102AE000C5F89000A06841F28838B8B1FFF76AFBDA
:102AF00007460EE0D5F8900040F00100F0E740F006
:102B00000400C5F89000F5E7FFF75CFBC11B4145E9
:102B100026D8D5F890008007F6D50CE0FFF752FBD9
:102B2000074604E0FFF74EFBC11B414518D8D5F816
:102B300090008007F6D41EB1A86D20F08050A865E3
:102B40002078800629D5A0690028D5F8980013D0F0
:102B500040F00100C5F89800FFF734FB064606E098
:102B600077E000BFFFF72EFB801B022877D8D5F84F
:102B700098008007F6D510E020F00100C5F8980015
:102B8000FFF720FB064604E0FFF71CFB801B022832
:102B900065D8D5F898008007F6D4E069F0B3A96845
:102BA000C1F38101032961D00228286820F08070D8
:102BB00028600BD0E86820F00300E860E868474927
:102BC0000840E860FFF7FEFA04464BE0FFF7FAFA28
:102BD000064604E0FFF7F6FA801B02283FD8286873
:102BE0008001F7D4F4E908016FF00F0202EB011144
:102BF0000843218A5204490802EB4151A26841EA84
:102C000002210843217D4FF07E42490802EB4161D9
:102C10000843217B40EAC160E96800E062E0304A95
:102C200011400843E860286840F080702860E86838
:102C300040F08070E860FFF7C5FA044605E000BF89
:102C4000FFF7C0FA001B022809D828688001F7D5D1
:102C500048E004E0FFF7B6FA001B022802D903207F
:102C6000BDE8F88328688001F4D43BE00128F7D060
:102C7000E868226A00F00301914226D1616A00F0FF
:102C8000F0020901103991421FD1A26A00F4FE41FD
:102C9000B1EB022F19D194F82C2000F07841B1EB60
:102CA000C26F12D1218E00F4C00249084905A1F576
:102CB0000011914209D194F8341000F0C060490825
:102CC0004906A1F1007181420CD00120C8E7000043
:102CD000001002404400002000700040FFFFEEFEA4
:102CE0000C809F010020BBE70F4810B50B46016820
:102CF0000E480140080CD870C1F304245C7001F048
:102D00003F049C70C1F34231197052B901F059FB74
:102D1000D870587801F055FB5870987801F051FB45
:102D20009870002010BD0000042800403FFFFF0005
:102D3000144810B500680B46486012480830006817
:102D4000C0F30E0088600F48083801680E48014043
:102D5000C1F305401870C1F306245C7001F07F04D4
:102D60009C70890DD97052B901F02BFB18705878FE
:102D700001F027FB5870987801F023FB9870002031
:102D800010BD0000082800407F7F7F0070B5040060
:102D90004FF001003ED094F8250028B9002084F8B7
:102DA0002400204600F03CF8022084F825001A4E4A
:102DB000CA20306053203060204601F017FB10BB62
:102DC000154D0C3D28681549084028602868616841
:102DD000A269084321691143084328602189E068FA
:102DE00040EA01400C4914390860204601F024FBF8
:102DF00048B9D4E90721114362692B6823F0604385
:102E00001A4311432960FF213160002802D10121BA
:102E100084F8251070BD000024280040BFFF8FFB00
:102E200000680549884205D1044850F8901F41F4D4
:102E3000004101607047000000280040001002407F
:102E40002DE9F041044690F824000B4601281AD0E1
:102E5000012684F82460022084F82500B2B1987815
:102E6000D97840EA014558781978000240EA4130A3
:102E700005431B4FCA20386053203860204601F0BC
:102E8000B5FAD8B122E00220BDE8F0815878C10639
:102E900003D500F0EF000A305870D87801F09AFAA4
:102EA0000504587801F096FA45EA0025987801F073
:102EB00091FA0543187845EA4035DAE709480540B4
:102EC000074820380560204601F0B6FAFF21396036
:102ED00008B984F82560002184F82410D4E70000A4
:102EE000242800403FFFFF002DE9F047054690F8F9
:102EF000240017460C46012814D04FF0010985F82C
:102F00002490022085F82500DFF8A480CA21C8F8A3
:102F100000105321C8F80010284601F067FA002677
:102F200018B127E00220BDE8F087214B0C3B186860
:102F30004FEA40601FB3002800DBE670A0782178DC
:102F4000E27840EA01406178090241EA825108438F
:102F500018490840164924390860186820F4802070
:102F60001860D4E90301084319680843186028462B
:102F700001F062FAFF22C8F80020A0B115E0002895
:102F800000DBE670207801F025FA0704607801F094
:102F900021FA47EA0027A07801F01CFA0743E078FD
:102FA00047EA8050D4E785F8259085F82460BAE791
:102FB000242800407F7F7F0070B50B4D286820F0EB
:102FC00020002860FFF7FEF804464FF47A7606E00A
:102FD000FFF7F8F8001BB04201D9032070BD286844
:102FE0008006F5D5002070BD0C28004010B5401EAD
:102FF000B0F1807F01D3012010BD4FF0E02460616B
:103000000F21601702F0D2F80020A0610720206194
:10301000002010BD90F88010012918D0012180F8FF
:1030200080102421C0F8841050F8641B0A680B68D3
:1030300023F001030B6022F000510022026050F8DF
:10304000643C19602021016202771046704702201B
:1030500070477047704770B5044690F880000128AB
:103060001DD0012084F880002420C4F8840020684A
:103070000568026822F0010202602068826822F07E
:1030800060620A438260204601F030FB20680560E0
:103090002020C4F88400002084F8800070BD022045
:1030A00070BD70B5044690F8800001281DD0012045
:1030B00084F880002420C4F8840020680568026831
:1030C00022F0010202602068826822F060420A4316
:1030D0008260204601F00AFB206805602020C4F8C9
:1030E0008400002084F8800070BD022070BD70470D
:1030F000704770472DE9F04103680446D8691968A4
:103100009A6840F60F0528424FF0000509D186065F
:103110007ED501F0200602F080573E4378D0216F23
:10312000FFE0924E924F16400F40374370D0C707D2
:1031300009D0CF0507D501271F62D4F88C3043F0A2
:103140000103C4F88C3083070AD5D30708D0276859
:1031500002233B62D4F88C3043F00403C4F88C3073
:1031600043070AD5D30708D0276804233B62D4F865
:103170008C3043F00203C4F88C3003070CD501F007
:103180002003334308D0266808233362D4F88C30F8
:1031900043F00803C4F88C3003050BD54B0109D567
:1031A00026684FF400633362D4F88C3043F0200378
:1031B000C4F88C30D4F88C30002B34D0800609D57C
:1031C00001F0200002F08051084303D0216F09B1C3
:1031D00020468847D4F88C0021688968490602D4C3
:1031E00010F0280F21D0204601F040FB20688168B4
:1031F000490615D5816821F040018160E06F78B102
:103200005C498163E06FFEF7A0FE00280BD000E070
:1032100011E0E06F816B00E02046BDE8F041084717
:103220002046FFF766FFBDE8F0812046FFF761FF0B
:10323000C4F88C50F7E7E76E2026012F5CD1C70653
:103240005AD5CF0658D510201862206881684906E3
:103250002FD5E26F116849680904090CE3D0B4F86E
:103260005C308B42DFD9A4F85E10116809688906CA
:1032700018D4016821F4807101602068816821F010
:10328000010181602068816821F040018160C4F8FB
:103290008860E5662068016821F010010160E06F38
:1032A000FEF71EFEB4F85C00B4F85E10401A81B25E
:1032B0001EE0B4F85C10B4F85E20891AB4F85E2001
:1032C00089B2002AAFD00029ADD0026822F49072F2
:1032D000026020688268254BDB431A408260C4F894
:1032E0008860E56625672068026822F010020260A7
:1032F0002046FFF7AEFE96E7C70209D5570207D56D
:103300004FF4801018622046BDE8F041FFF7F0BE90
:1033100007060AD501F0800702F40002174304D023
:10332000616F00297FF478AF7DE742060CD54A062D
:103330000AD51968204621F040011960C4F884605C
:10334000656700F02FF96EE7020206D54A0004D542
:103350002046BDE8F041FFF7CABEC001CBD5002929
:10336000C9DA2046BDE8F041FFF774BE0100001045
:10337000200100045948000810B5040003D0D4F817
:10338000840010B107E0012010BD002084F8800007
:10339000204600F027F82420C4F884002068016843
:1033A00021F001010160204601F038FC0128EBD03A
:1033B000A06A10B1204601F0BBF92068416821F4F1
:1033C000904141602068816821F02A018160206875
:1033D000016841F0010101602046BDE8104001F0A4
:1033E0000BBA000010B586B0044614216846FDF7FC
:1033F0001EF917492068884227D11648016E41F40A
:1034000080410166016E01F480410591C16C41F07B
:103410000101C164C06C694600F0010005904FF4E1
:10342000C0600090022001900020029003900720CD
:1034300004904FF09040FEF7D7FD00220121252097
:10344000FEF726FF2520FEF715FF06B010BD000091
:10345000003801400010024010B4D0F88830202B12
:103460001BD1B9B1B2B190F88030012B15D0012336
:1034700080F880300023C366094C0368A34206D05D
:103480005C68240203D51C6844F080641C6010BC96
:1034900001F0FEBC012010BC70470220FBE70000D9
:1034A000008000400C4908468A7A00786B2A00D1D7
:1034B00058B10B7B1BB1094B1A54401C08700649CC
:1034C00001220A310648FFF7C7BF064B1B688B6213
:1034D00001230B73EFE700000000002091000020A3
:1034E000E40100204C0000202DE9F8430446D0F808
:1034F00084001F4616460D46202851D1DDB1D6B1B5
:1035000094F8800001284BD0012084F880004FF00F
:103510000008C4F88C802120C4F884001834FEF719
:1035200051FEA6878146E68754F8100C183CB0F58A
:10353000805F03D004E00120BDE8F883206920B15A
:103540002E46002584F8808010E00026FAE78021CE
:10355000204601F009FDB8B9C6B116F8010B216883
:103560008862B4F85600401EA4F85600B4F856001D
:103570004B464FF0000200970028E8D14FF0400181
:10358000204601F0F1FC30B10320D5E735F8020BFD
:10359000C0F30800E3E72020C4F884000020CBE754
:1035A0000220C9E77047FEE700B585B014216846E0
:1035B000FDF73DF8C020009001200190029002200C
:1035C000039069460248FEF70FFD05B000BD0000FC
:1035D0000004004870B50824002500F0BDFF13E08A
:1035E0006806050E002000F09FFF142001F0F5FD95
:1035F000142001F0F2FD012000F096FF142001F0EC
:10360000ECFD00F09DFF0543641EE4B2E8D200200B
:1036100000F08AFF142001F0E0FD00F0BFFF284613
:1036200070BD10B5002000F0ADFF142001F0D5FDF5
:10363000142001F0D2FD012000F076FF142001F0EB
:10364000CCFD002000F070FFBDE81040142001F018
:10365000C4BD70B50446082516E000F065FF1420CF
:1036600001F0BBFD04F0800000F08CFF142001F09D
:10367000B4FD6006040E142001F0AFFD012000F03F
:1036800053FF142001F0A9FD6D1EEDB24FF00000B4
:10369000E3D200F049FFBDE87040142001F09DBD69
:1036A00010B5012000F06EFF142001F096FD1420EB
:1036B00001F093FD012000F037FF142001F08DFD93
:1036C000002000F031FFBDE81040142001F085BD5E
:1036D00010B5012000F056FF142001F07EFD0120FE
:1036E00000F022FF142001F078FD002000F04AFFD6
:1036F000142001F072FD002000F016FFBDE810401C
:10370000142001F06ABD10B5002000F00DFF142058
:1037100001F063FD002000F035FF142001F05DFD95
:10372000012000F001FF142001F057FD012000F0FE
:1037300029FFBDE81040142001F04FBD10B505244D
:1037400000F00AFF142001F048FD012000F0ECFE1B
:10375000142001F042FD05E0641EA4B2142001F023
:103760003CFD64B100F0ECFE0028F5D100F0DCFE79
:10377000142001F032FD00F011FF002010BD00F018
:103780000DFFFFF7C0FF012010BD00002DE9F04143
:1037900086B014216846FCF74AFF3648C16C41F0F8
:1037A0000401C164C16C01F004010591C16C41F0D8
:1037B0002001C164C16C01F020010591C16C41F090
:1037C0000101C164C16C01F001010591C16C41F0BE
:1037D0000201C164C16C01F002010591C16C41F0AC
:1037E0000801C164C06C244F00F008004FF47F460C
:1037F0000590012231463846FEF7DFFCDFF87C8079
:10380000002204214046FEF7D8FC01250024009642
:10381000CDE90154694638460394FEF7E5FBCDE94E
:10382000005469464FF090400294FEF7DDFB0720FC
:10383000CDE90004694612480294FEF7D5FB042046
:103840000090CDE90154694640460394FEF7CCFB55
:10385000012231463846FEF7B0FC012204214046E1
:10386000FEF7ABFC002204214046FEF7A6FC06B0A2
:10387000BDE8F0810010024000080048000C00483C
:10388000000400482DE9F04135480168354C626973
:10389000891A32291BD30068606100F065F86071F5
:1038A000227A20EA020142408243A171E271207231
:1038B000012908D0012700264FF0100804F10D055A
:1038C000022906D017E0A07880F00100A070BDE8C2
:1038D000F081E17A4FF6FF7009B3B7EB111FF6D113
:1038E00000F090F81F48E67210302978017069786E
:1038F0004170A9788170A079032815D00428E6D1F9
:10390000E07A10281CD0112822D01228DFD1A87804
:10391000401CC0B2A8703C28D9D1AE70D7E700F0E7
:1039200071F884F80B80E6E7E07AB7EB101FCED190
:10393000401CC0B2E0721328C9D184F80B80C6E7DE
:103940002878401CC0B228701828C0D12E70BEE75D
:103950006878401CC0B268703C28B8D16E70B6E779
:103960004C0000200000002070B50E4D0024012105
:103970002846FEF71DFC00B9012402212846FEF767
:1039800017FC00B9022404212846FEF711FC00B9F7
:10399000032401214FF09040FEF70AFC00B90424F3
:1039A000204670BD0004004800B585B0142168466B
:1039B000FCF73DFE4FF6FF70009000200321CDE99B
:1039C0000201019069460248FEF70EFB05B000BDFA
:1039D0000008004800B585B014216846FCF727FEB2
:1039E0004FF6FF700090012001900320039000200B
:1039F000029069460248FEF7F7FA05B000BD0000E4
:103A00000008004870B5002406462146204600F014
:103A100003F900F041F94FF49635304600F010F903
:103A2000641CAC42F9D370BD30B587B01421684630
:103A3000FCF7FDFD1E48C16C41F00401C164C16C7E
:103A400001F004010591C16C41F00101C164C16C38
:103A500001F001010591C16C41F00201C164C06C2B
:103A6000012500F0020005904FF44870CDE90005F3
:103A700000240394694602940E48FEF7B5FA280222
:103A800003940090CDE901544FF0904469462046DC
:103A9000FEF7AAFAFFF79EFFA06940F48070A061CC
:103AA00004481830016841F40871016007B030BD66
:103AB0000010024000040048203AD2B2034B02EB4F
:103AC000420203EB021200F019B80000A2570008EE
:103AD000F0B50E460746002540F23F1407E02146A8
:103AE0003846FFF7E9FF103C6D1CA4B2761C327813
:103AF000002A01D0142DF2D3F0BD00002DE9F047CB
:103B000091468A460026044600F086F8DFF8408099
:103B1000012700BF00F0C0F85FF0000539F816007B
:103B200007FA05F10842404601D1408800E00088CC
:103B300000F086F86D1C102DF0D3641CE4B25146E1
:103B4000204600F069F8761C182EE3D3BDE8F08714
:103B50003800002010B5FFF767FF002000F014F8D0
:103B6000084CA080A088A0F50241303906D000F0B2
:103B700027FB002000F008F8A08010BD00F097FAA5
:103B8000F7E700003800002070B51D490A6842F4CC
:103B900000720A600A6842F480720A60184C103C95
:103BA000226842F020022260164A1060086840F045
:103BB0002000086000BF00BF00BF206840F0200068
:103BC0002060206840F480702060FFF7EDFE4FF029
:103BD0009041886A40F48070886200BF00BF00BFD7
:103BE0000848001F006885B2886940F480708861C9
:103BF000FFF7F0FE206840F400702060284670BD9A
:103C0000280400481408004801B5BDF80000014927
:103C1000488008BD3800002010B50C460146202021
:103C200000F068F82146BDE81040212000F062B89D
:103C300001B5BDF800000149088008BD380000202A
:103C4000134A116841F400711160114910390B6871
:103C500043F480730B600B6843F020030B600D4B43
:103C60001860106840F02000106000BF00BF00BF67
:103C7000086840F020000860086840F48070086020
:103C800000BF00BF00BF086840F4007008607047C4
:103C900028040048140800481449086840F40070DB
:103CA0000860086840F480700860104810380268A6
:103CB00042F0200202600E4B22221A600A6842F093
:103CC00020020A6000BF00BF00BF016841F0200170
:103CD0000160016841F48071016000BF00BF00BF56
:103CE000016841F400710160704700002804004839
:103CF00014080048184B10B51A6842F400721A6094
:103D00001A6842F480721A60134A103A146844F038
:103D100020041460114C2060186840F020001860E6
:103D200000BF00BF00BF106840F0200010601068A6
:103D300040F4807010602160186840F02000186026
:103D400000BF00BF00BF106840F020001060106886
:103D500040F48070106010BD28040048140800482A
:103D600070B5124D044601224FF47F412846FEF7FC
:103D700024FA0F4E012204213046FEF71EFA0022DB
:103D800004213046FEF719FA210200222846FEF7E8
:103D900014FA012204213046FEF70FFA3046BDE83E
:103DA000704000220421FEF708BA00000008004815
:103DB000000C004800EB8100006E00F0F8407047F6
:103DC0008068C0F3C00070478068C0F3800070470F
:103DD000042303EAD15310B518444369C1F30451D5
:103DE00007248C40A3438A401343436110BD00EB7A
:103DF0008100016E21F0004111430166704700000F
:103E000038B55D4D28685D4CE169401A64287DD362
:103E10002868E06101F0E8F900EE100AB8EE400A07
:103E2000DFED570A20EE200A10EE100A01F03CFCEC
:103E30009FED541B53EC112B01F002FB01F074FABF
:103E40006063002251495248FEF772FF002204F1DC
:103E500030014F48FEF748FFE07A002842D1606BFE
:103E600001F022FC41EC100B484853EC102B49A107
:103E7000A438FCF7A9FA45493020A439FFF728FEF9
:103E8000607801F08EFA9FED471B53EC112B01F087
:103E9000D7FA41EC100B3D4853EC102B43A1A4384A
:103EA000FCF792FA39496020A439FFF711FEA07897
:103EB000002843D040A13548A438FCF785FA33499F
:103EC0009020A439FFF704FE3048817800914378B0
:103ED00002783CA1A438FCF777FA2C49C020A43919
:103EE000FFF7F6FDE07A0121B1EB101F42D1274820
:103EF0003AA1A438FCF768FA24493020A439FFF726
:103F0000E7FD1E480D308178009100E032E04378F3
:103F100002781E4835A1A438FCF756FA2868616A71
:103F2000401AB0F5FA7F05D328686062E07880F027
:103F30000100E070E078012802D014E031A1BAE776
:103F40001248E27AA4382021102A04D0112A05D080
:103F5000122A06D007E08171C17104E041728172BA
:103F600001E0017341730949BDE83840A439782064
:103F7000FFF7AEBD38BD00004C000020000000205F
:103F8000000080396666666666660A40F8000020B2
:103F9000740200202020202056313A25342E32662B
:103FA000560000009A9999999999B93F20202020AC
:103FB0006B3A25332E316600202020204C45443AB0
:103FC0004F46460020202020543A253032642D25CB
:103FD0003032642D25303264000000002020202083
:103FE00020202053657474696E6700002020202013
:103FF0002020253032642D253032642D2530326466
:1040000000000000202020204C45443A4F4E200064
:1040100070B51F4D2DED028B28681E4CA169401A0A
:10402000322832D32868A061A0780026012824D045
:10403000607801F0B6F99FED181B53EC112B01F0DD
:10404000FFF99FED171B53EC112B01F0F9F941EC2F
:10405000180B606B01F028FB53EC182B01F0EEFA03
:104060000BD82868E16A401AC82807D32868E0629C
:10407000607A80F00100607200E06672607ABDECE8
:10408000028BBDE87040FFF76BBEBDEC028B70BDCC
:104090004C000020000000206666666666660A40E6
:1040A0009A9999999999B93FFEE7FEE7704730B51B
:1040B00001210020FFF71EFE4FF47A70FDF720FB70
:1040C00000210120FFF716FE41F290711020FFF74A
:1040D00011FE4FF41C516020FFF70CFE01216120FE
:1040E000FFF708FE02214620FFF704FE48F2100108
:1040F0001320FFF7FFFD48F2FE011220FFF7FAFD43
:104100004FF4A0610220FFF7F5FD41F230010320DA
:10411000FFF7F0FD40F2033421463020FFF7EAFDBF
:1041200021463120FFF7E6FD21463220FFF7E2FD70
:10413000E51E29463320FFF7DDFD03213420FFF77C
:10414000D9FD21463520FFF7D5FD14213620FFF794
:10415000D1FD21463720FFF7CDFD21463820FFF75E
:10416000C9FD21463920FFF7C5FD29463A20FFF752
:10417000C1FD03213B20FFF7BDFD21463C20FFF799
:10418000B9FD4FF4A0513D20FFF7B4FD4FF400718D
:104190009220FFF7AFFD21469320FFF7ABFD40F6DD
:1041A0000D019020FFF7A6FD41F218010320FFF753
:1041B000A1FDBDE8304040F273110720FFF79ABD22
:1041C00010B543F20801E320FFF794FD1221E72028
:1041D000FFF790FD41F23121EF20FFF78BFD002129
:1041E0000120FFF787FD4FF4E0610220FFF782FD19
:1041F00041F230010320FFF77DFD00210420FFF78D
:1042000079FD40F207210820FFF774FD0021092005
:10421000FFF770FD00210A20FFF76CFD00210C2044
:10422000FFF768FD00210D20FFF764FD00210F203E
:10423000FFF760FD00211020FFF75CFD0721112032
:10424000FFF758FD00211220FFF754FD0021132035
:10425000FFF750FDC820FDF7B5FE41F29061102038
:10426000FFF748FD40F227211120FFF743FD3220E0
:10427000FDF7A8FE1D211220FFF73CFD3220FDF7BF
:10428000A1FE4FF400611320FFF734FD1421292013
:10429000FFF730FD0B212B20FFF72CFD3220FDF71F
:1042A00091FE00212020FFF725FD00212120FFF7AE
:1042B00021FD07213020FFF71DFD40F2077131205D
:1042C000FFF718FD06213220FFF714FD40F20471BC
:1042D0003520FFF70FFD41F604713620FFF70AFD88
:1042E00004213720FFF706FD00213820FFF702FDEB
:1042F00040F206713920FFF7FDFC40F201713C20CD
:10430000FFF7F8FC0F213D20FFF7F4FC00215020BF
:10431000FFF7F0FCEF215120FFF7ECFC00215220C9
:10432000FFF7E8FC40F23F115320FFF7E3FC4FF4A6
:104330001C516020FFF7DEFC01216120FFF7DAFC51
:1043400000216A20FFF7D6FC00218020FFF7D2FC75
:1043500000218120FFF7CEFC00218220FFF7CAFC5C
:1043600000218320FFF7C6FC00218420FFF7C2FC58
:1043700000218520FFF7BEFC10219020FFF7BAFC3A
:1043800000219220FFF7B6FC03219320FFF7B2FC37
:104390004FF488719520FFF7ADFC00219720FFF7BF
:1043A000A9FC00219820FFF7A5FC41F21801032089
:1043B000FFF7A0FCBDE8104040F273110720FFF7A3
:1043C00099BC010901EB810100F00F0000EB4100F5
:1043D000C0B270470022014602E00A39C9B2521C3D
:1043E0000A29FAD2100741EA106070472DE9F04718
:1043F000104C814600252068400618D4206840F003
:1044000080002060FDF7DEFE06464FF47A78032731
:1044100008E000BFFDF7D6FE801B404502D903250A
:1044200089F825702068400601D4032DF2D1284672
:10443000BDE8F0870C2800402DE9F04106461348FE
:104440000025016821F080010160104C0C342068C7
:104450004FF00307800607D43046FEF7ADFD90B15C
:1044600086F8257003250EE0206820F020002060EB
:104470003046FEF7A1FD10B186F8257003252068AF
:1044800040F0200020602846BDE8F0810C28004064
:1044900010B586B014216846FCF7C9F821480024FD
:1044A0001F490594C0E900147D21816041F27071BB
:1044B000C0E903144FF080414461C0E90641046241
:1044C000FEF764FC08B1FDF729F917208DF800000C
:1044D0003B208DF8010037208DF8020001940394F1
:1044E000002269460F480494FEF7FEFC08B1FDF770
:1044F00015F905208DF8140009208DF815000A2003
:104500008DF8160015208DF81700002205A9054822
:10451000FEF796FC002801D0FDF700F906B010BDAB
:10452000002800407402002008B1044801E003485C
:104530001030016841F040010160704718040048E4
:1045400010B580210348FDF733FE012800D000207C
:1045500010BD00000004004800B585B01421684675
:10456000FCF765F880200090002001900120029067
:104570000220039069460248FDF736FD05B000BDF4
:104580000004004808B1044801E003481030016805
:1045900041F08001016070471804004800B585B003
:1045A00014216846FCF743F8802000901120019008
:1045B000002002900220039069460248FDF714FD96
:1045C00005B000BD000400487047FDF701BE0000C3
:1045D00010B5A6B038216846FCF729F814211FA8A9
:1045E000FCF725F844210EA8FCF721F84FF40070E1
:1045F000FDF780FE012000900004019002200324BA
:10460000CDE907041421CDE90A100C900D9009940E
:104610006846FEF763F908B1FDF780F80F20CDE991
:104620001F0400242194229402211FA82394FEF742
:104630000BF808B1FDF772F80C48C16C41F020018D
:10464000C164C06C00F0200024900948CDE90E043C
:1046500000071D904FF440701E900EA8FDF7B0FEAD
:10466000002801D0FDF75AF826B010BD0010024016
:10467000018008000248016841F470010160704740
:1046800088ED00E0184810B5164901604FF4165146
:104690004160002181600C22C160C0E90412816187
:1046A000C161016241628162FEF766FE08B1FDF7F9
:1046B00035F800210C48FEF7F4FC08B1FDF72EF8A0
:1046C00000210948FEF7C7FC08B1FDF727F80648A6
:1046D000FEF7A0FC002803D0BDE81040FDF71EB88F
:1046E00010BD000000380140E401002030B5416EEB
:1046F000B9B1026891689268C1F342610B4B520FE5
:104700009C5CE50003F10804A25CB5FBF2F2A0F8A2
:104710006A205A5C615CD200B2FBF1F1A0F868102B
:1047200030BD0121A0F86A10F8E700008A6900088E
:1047300090F82810C90706D001684A68C36A22F4B5
:1047400000321A434A6090F82810890706D501689C
:104750004A68036B22F480321A434A6090F82810AA
:10476000490706D501684A68436B22F480221A4340
:104770004A6090F82810090706D501684A68836BDB
:1047800022F400421A434A6090F82810C90606D560
:1047900001688A68C36B22F480521A438A6090F8D9
:1047A0002810890606D501688A68036C22F4005235
:1047B0001A438A6090F82810490611D501684A68A2
:1047C000436C22F480121A434A60416CB1F5801F99
:1047D00006D101684A68836C22F4C0021A434A6019
:1047E00090F82810090606D501684A68C06C22F4C2
:1047F000002202434A607047F8B500260446C0F81C
:104800008C60FDF7DFFC0546206800686FF07E478E
:10481000000708D52B4600224FF4001120460097D0
:1048200000F0A2FB60B92068006840070AD52B465B
:1048300000224FF480012046009700F095FB08B15C
:104840000320F8BD2020C4F88400C4F8880044F890
:104850006C6F00202675F8BD10B5806A0021A0F8A5
:104860005E10A0F85610FEF744FC10BD01680A68FF
:1048700022F490720A6001688A68094B1A408A60C3
:10488000C16E012904D101680A6822F010020A6091
:104890002021C0F888100021C16601677047000020
:1048A000FEFFFFEF70B5B0F86010D0F88820044626
:1048B0000068222A04D0816941F00801816170BD3D
:1048C000406AA26D08401080A06D801CA065B4F8FD
:1048D0005E00401EA4F85E00B4F85E000028EED131
:1048E0002068016821F4907101602068816821F0DE
:1048F000010181602020C4F8880000252567E06E52
:10490000012804D02046FEF7CDFDE56670BD206885
:10491000016821F010010160B4F85C102046FEF738
:1049200098FBF2E72DE9F0470446B0F860600068B4
:10493000C569D0F800A0D0F80880D4F888102229E2
:1049400005D0816941F008018161BDE8F087B4F8C4
:1049500068704FF000095BE02068406AA16D30404C
:104960000880A06D801CA065B4F85E00401EA4F80D
:104970005E002068C569690730D0E9070AD05FEAA0
:10498000CA5107D501210162D4F88C0040F0010022
:10499000C4F88C00A8070BD55FEAC87008D021685E
:1049A00002200862D4F88C0040F00400C4F88C00A7
:1049B00068070BD55FEAC87008D021680420086238
:1049C000D4F88C0040F00200C4F88C00D4F88C00BD
:1049D00020B12046FEF78DFBC4F88C90B4F85E0041
:1049E000B0B92068016821F4807101602068816895
:1049F000194A114081602020C4F88800C4F87090E2
:104A0000E06E01281CD02046FEF74CFDC4F86C90E7
:104A10000FB1A806A0D4B4F85E00002895D0B4F871
:104A20006810814291D92068816821F080518160AD
:104A30000A4820672068016841F02001016084E78E
:104A40002068016821F010010160B4F85C10204674
:104A5000FEF7FFFADAE70000FEFFFFEFA5480008C7
:104A600070B5B0F86010D0F8882004460068222A9B
:104A700004D0816941F00801816170BD406A08403D
:104A8000A16D0870A06D401CA065B4F85E00401ECA
:104A9000A4F85E00B4F85E000028EED1206801683A
:104AA00021F4907101602068816821F0010181602A
:104AB0002020C4F8880000252567E06E012804D076
:104AC0002046FEF7EFFCE56670BD2068016821F026
:104AD00010010160B4F85C102046FEF7BAFAF2E764
:104AE0002DE9F0470446B0F860600068C569D0F869
:104AF00000A0D0F80880D4F88810222905D0816958
:104B000041F008018161BDE8F087B4F868704FF0AA
:104B100000095BE02068406AA16D30400870A06D1C
:104B2000401CA065B4F85E00401EA4F85E0020683A
:104B3000C569690730D0E9070AD05FEACA5107D5CD
:104B400001210162D4F88C0040F00100C4F88C000F
:104B5000A8070BD55FEAC87008D021680220086258
:104B6000D4F88C0040F00400C4F88C0068070BD522
:104B70005FEAC87008D0216804200862D4F88C006D
:104B800040F00200C4F88C00D4F88C0020B120461C
:104B9000FEF7AFFAC4F88C90B4F85E00B0B92068A4
:104BA000016821F48071016020688168194A114010
:104BB00081602020C4F88800C4F87090E06E01285D
:104BC0001CD02046FEF76EFCC4F86C900FB1A8060E
:104BD000A0D4B4F85E00002895D0B4F868108142E3
:104BE00091D92068816821F0805181600A4820674E
:104BF0002068016841F02001016084E720680168B5
:104C000021F010010160B4F85C102046FEF721FA93
:104C1000DAE70000FEFFFFEF614A00082DE9F041EE
:104C20000446016880682269E369104362690025CF
:104C30001A431043DFF82CC20A688B4B1A40024318
:104C40000A6020684168E26821F4405111434160E4
:104C50002168A069614501D0226A10438A68834BAC
:104C60001A4002438A602068C16A626A21F00F011B
:104C70001143C1627E4923687E488B420DD1D0F832
:104C8000880010F0030006D0012855D0022842D039
:104C900003283FD152E001203DE077498B420BD100
:104CA000D0F8880010F00C0035D0042833D0082844
:104CB00040D00C282ED141E070498B420BD1D0F866
:104CC000880010F0300026D0102835D0202831D0B0
:104CD00030281FD132E06A498B420BD1D0F88800CE
:104CE00010F0C00017D0402826D0802822D0C0283D
:104CF00010D123E063450DD1D0F8880010F4406056
:104D000009D0B0F5806F17D0B0F5006F12D0B0F5B4
:104D1000406F13D010205B4A5B4F00264FF40041D8
:104D2000634539D160B102280DD004280DD0082880
:104D300031D10EE00220EEE70420ECE70820EAE79C
:104D4000FDF770FD03E0114603E0FDF78FFD010064
:104D50007DD0606A37F810206768B1FBF2F007EB8E
:104D6000470383426CD8B0EB073F69D8002308465D
:104D70001946FBF7B1FA090241EA1061020278080C
:104D8000101871413A460023FBF7A6FA3F4AA0F5F6
:104D90004071914259D953E0E3694FF6EF788B4265
:104DA0002DD109284CD2DFE800F005080D4B274B28
:104DB0004B4B0E00FDF736FD01E0FDF745FD010010
:104DC00001D144E01146606A37F81000B1FBF0F001
:104DD0004100606801EB5001B1FBF0F080B2A0F13E
:104DE000100141452CD84FF6F0710140C0F342004C
:104DF00001432068C1602AE0FDF738FDDFE709289C
:104E00001ED2DFE800F005080D1D1F1D1D1D0E0040
:104E1000FDF708FD01E0FDF717FD010001D116E0E7
:104E20001146606A37F81000B1FBF0F1606801EBE1
:104E30005001B1FBF0F080B2A0F11001414504D95E
:104E4000012504E0FDF712FDE7E72168C8600120B5
:104E5000A4F86A0024F8680F2846A660E660BDE85A
:104E6000F081000000800040F369FFCFFFF4FF11E4
:104E7000003801400010024000440040004800405B
:104E8000004C00400024F40072690008FFFC0F0091
:104E900070B58165A0F85C20A0F85E200021016754
:104EA00083684FF48056FF24B34204D10369D3B919
:104EB00040F2FF131DE07F259BB1B3F1805F15D059
:104EC000A0F86010C0F88C102223C0F88830036866
:104ED0009C6844F001049C60436EB3F1005F0ED007
:104EE00027E0036943B9A0F86040EBE703691BB111
:104EF0003F23A0F86030E5E7A0F86050E2E7B0F8A3
:104F00006830934215D88268B24201D1026972B109
:104F1000114A026780F8801001680A6842F48072C2
:104F20000A600068816841F0805181600FE00B4A9F
:104F3000EFE78268B24201D1026952B1084A0267C2
:104F400080F880100068016841F4907101600020D1
:104F500070BD044AF3E70000E14A00082549000853
:104F6000614A0008A54800082DE9F0479A4617460F
:104F70000E4604464FF000094FF02008089D39E026
:104F8000681C37D0FDF71EF9A0EB0A00A84222D812
:104F90000DB32068016849072CD5C069C0430005DE
:104FA00028D421684FF4006008622068016821F469
:104FB000D07101602068816821F001018160C4F82E
:104FC0008480C4F88880C4F88C8000BF84F8809006
:104FD0000320BDE8F0872068016821F4D0710160EA
:104FE0002068816821F001018160C4F88480C4F8E0
:104FF0008880EBE72068C06936EA000004D0002012
:10500000B842BDD00020E4E70120F9E70148FEF7EF
:1050100071B80000E4010020FEE700002DE9F04F28
:10502000484885B00168484C226A891A1E297DD3F8
:10503000824600682062454804F110014FF0000BE1
:1050400002780B7891469A4233D142784B78904659
:105050009A422ED18778887887422AD1207938BB26
:1050600001202071607800F09CF99FED391B53EC12
:10507000112B00F0E5F905460E46606B00F014FBBD
:105080008DE8600241EC100B3048CDE9038753EC0A
:10509000102B31A18F38FBF797F92C488F38FBF78D
:1050A000A7FA2A4982B232238F393248FEF71CFA16
:1050B00001E084F804B0DAF800105046A26A891AB8
:1050C000B1F5967F3BD80068A16A401AC82836D34C
:1050D000207806282FD11D48673801786B292AD1FE
:1050E0004178302927D181782E2924D101795C2972
:1050F00021D141796E291ED1C078A0F13101082952
:1051000019D83038607011481BA18F38FBF75CF953
:105110000E488F38FBF76CFA0C4982B232238F3974
:105120001448FEF7E1F90122002100E007E00648FB
:10513000401C00F08FF884F800B084F80CB005B083
:10514000BDE8F08F4C00002000000020F800002097
:105150009A9999999999B93F25342E32662B25331E
:105160002E31662B2530326425303264253032648E
:105170000A000000E40100204F4B0A0003B401982C
:105180004100009850EAC12018BF04204A0D18BF02
:1051900040F0010040F2FF72B2EB515F08BF40F0F7
:1051A0000200012808BF052002B070470907090E58
:1051B000002804DB00F1E02080F80014704700F0C4
:1051C0000F0000F1E02080F8141D704730380A28E5
:1051D00001D20120704700207047002100E0491CE7
:1051E0008142FCD37047000010B50448FCF7FEFD77
:1051F0000248FCF7A7FC80B210BD00007801002037
:1052000070B515460E460446FEF762FAA020FEF77A
:1052100020FAFEF793FA3046FEF71BFAFEF78EFAF5
:10522000FEF756FAA120FEF714FAFEF787FA09E016
:10523000FEF7D0F904F8010B15B1FEF7F2F901E021
:10524000FEF72EFA6D1EEDB2F2D2BDE87040FEF709
:105250005ABA000070B515460E460446FEF738FAF5
:10526000A020FEF7F6F9FEF769FA304602E000BF2B
:1052700014F8010BFEF7EDF9FEF760FA6D1EEDB2C2
:10528000F6D2FEF740FABDE870404FF4FA70FFF72F
:10529000A4BF0000FCF7A4FFFFF79AF9FEF776FA27
:1052A000FEF758FC4FF6FF742046FEF7ABFB204696
:1052B000FEF7AAFC1F20FEF7BBFCFFF7E3F9FEF7A1
:1052C00073F9FCF7A3F9FFF7E3F80122002109487D
:1052D000FFF796FF0749012209310748FEF7BCF89E
:1052E000FEF7D0FAFEF794FEFEF78AFDFFF796FE72
:1052F000F6E7000001000020E401002010B50029BD
:105300000AD00878002807D005487844FBF76EFDDE
:10531000002801D0002010BD0248784410BD0000D4
:105320006E1700006617000021F00042A2F16052E3
:10533000B2F5801F01F0004328BFD2F17F6C0BD97A
:105340005FEA001C43EAC20242EB507018BF70478C
:1053500028BF20F001007047B2F5801FBCBF18467F
:1053600070474FEA410C1CF5001F02D2084600F0BE
:1053700011BA70B500F00EF900000089FFF7F6BF12
:105380004FF00040A0F580007047491058BFC1F1B0
:1053900040415B1058BFC3F140438B42EFF30080A4
:1053A0007047B0FA80F310FA03F10AD0C3F11D037D
:1053B00003F580634FEA41504FEA035202EBD121DB
:1053C00070474FF00000704751EA030C17D41CF5EA
:1053D000801F58BFBCF5801F00F10680994218BF9E
:1053E000704708BF9042704707D711F5801F58BF1C
:1053F00013F5801F19D499427047894270471CF5F4
:10540000801F08D5BCF5801FF7D58B4218BF7047A9
:1054100008BF824270474FF4001C1CEB410F38BF9D
:105420001CEB430F01D28B42704770B500F0B2F80D
:10543000922449004FF000514FF08053FFF7A5BF71
:10544000DFF848C170B51CEA111E1EBF1CEA131517
:105450009EEA0C0F95EA0C0F00F06F8081EA0304BE
:1054600023EA4C134EEAD47E21EA4C1141F4801118
:1054700043F48013AE44A1FB024CA0FB0365AEF1E4
:105480007F7E361955EB0C05A1FB034C4CF1000354
:10549000A0FB021C16EB0C06654153F10003094208
:1054A00018BF46F0010613F4007F0BD14FEA033119
:1054B0004FEA0530340341EA155140EA16506FF0C7
:1054C00003020AE04FEAC3214FEAC520F40241EA91
:1054D000555140EA56506FF0020202EB2E4201EBAA
:1054E000025585EACE710AD05FEA440C18BF24F059
:1054F000004450F1000041F1000120EAD47040F274
:10550000FE7C624500D270BDA84214BF4FF08044BB
:105510004FF04044002E08BF0024BEF1806FA8BFAA
:10552000A1F1C041BDE8704080F282804FF00000E0
:1055300001F1C04101F0004170479EEA0C0F0CEAF6
:10554000131518BF95EA0C0F06D04FF0000081EA42
:10555000030E0EF0004170BD00F01CF88900013E02
:1055600000F007B800F009B84FEA430C5FEA5C5C52
:1055700008D081EA030100F05BB84FEA410C5FEA12
:105580005C5CF6D14FF00000014970470000FF0756
:105590000000F87F0EF1020E2EF0030E5EF8046B91
:1055A000364205D4012A43EB030515F5001F12D836
:1055B000012841EB010C1CF5001F0CD80ED14FEA5D
:1055C000D17C15F5001F0CEB4C0C0CF1020C08BF44
:1055D0004CEBD37C04E04FF0080C01E04FEAD37CA5
:1055E0000CEB4C0526FA05F606F00706B6F1040C9E
:1055F00006D20EEB860CBDE870404CF0010C604703
:10560000DFE80CF0090B02024FF000414FF0000000
:10561000A1F5002170BD19461046012851EB010487
:1056200018BFD4F5001484BF002001F0004170BD04
:105630000808A0F500114FEA3101704753EA010C48
:1056400017D41CF5801F58BFBCF5801F00F10680E1
:105650008B4218BF704708BF8242704707D713F5C7
:10566000801F58BF11F5801F19D48B4270479B4291
:1056700070471CF5801F08D5BCF5801FF7D59942EF
:1056800018BF704708BF904270474FF4001C1CEBD6
:10569000430F38BF1CEB410F01D2994270470FB442
:1056A0000CBC03BCFFF7C1BE43004FEAD30C4FEA6A
:1056B0003C0C43401FBF40070CF1605113F0FE4FFC
:1056C00070471CF0006F03D100200CF000417047C0
:1056D0000CF0004343EA507010B540EACC0000F0F3
:1056E0000EF800BF000000924FEA0001FFF7A0BFD4
:1056F0004FF000414FF00000A1F5002170470EF17E
:10570000020E2EF0030E5EF8044B244204D44FEA3E
:105710004102B2F17F4F11D84FEA4003B3F17F4FFE
:105720000CD80ED14FEAD07CB2F17F4F0CEB4C0C71
:105730000CF1020C08BF4CEBD17C04E04FF0080CDC
:1057400001E04FEAD17C0CEB4C0324FA03F404F0A3
:105750000704B4F1040C06D20EEB840CBDE8104033
:105760004CF0010C6047DFE80CF0070802024FF034
:105770000040A0F5800010BD0846420018BFD2F1DD
:10578000807288BF00F0004010BD4FF04070E1EE25
:10579000100A7047FF2141EAD050C0057047FBF75F
:1057A000A2B800000000000000000000000000009F
:1057B00000000000000000000000000000000000E9
:1057C00000000000000000000000000000000000D9
:1057D00000000000800180018001800180018001C3
:1057E0008001800180018001800180018001000032
:1057F00000008001800100000000000000000000A7
:10580000000000000000CC00CC00CC00CC00CC009C
:10581000CC000000000000000000000000000000BC
:105820000000000000000000000000000000000078
:105830000000000000000000000000000000600CFC
:10584000600C600C30063006FE1FFE1F3006380765
:105850001803FE1FFE1F180318038C018C018C0116
:10586000000000008000E003F80F9C0E8C1C8C18D8
:105870008C009800F801E007800E801C8C188C18B2
:105880009C18B80CF00FE0038000800000000000BE
:1058900000000000000000000E181B0C110C110687
:1058A0001106110311039B018E01C038C06C6044C6
:1058B0006044304430441844186C0C380000000038
:1058C00000000000E001F003380718061806300356
:1058D000F001F000F8009C310E33061E061C061C79
:1058E000063FFC73F02100000000000000000000F3
:1058F0000000000000000C000C000C000C000C006C
:105900000C0000000000000000000000000000008B
:105910000000000000000000000000000000000087
:1059200000000000000200038001C000C000600011
:1059300060003000300030003000300030003000B7
:10594000300060006000C000C00080010003000261
:105950000000000020006000C00080018001000302
:10596000000300060006000600060006000600060A
:1059700000060003000380018001C00060002000D9
:105980000000000000000000000000000000C00057
:10599000C000D806F807E001300338070000000017
:1059A00000000000000000000000000000000000F7
:1059B0000000000000000000000000000000800166
:1059C0008001800180018001FC3FFC3F800180015B
:1059D0008001800180010000000000000000000044
:1059E00000000000000000000000000000000000B7
:1059F00000000000000000000000000000000000A7
:105A00000000000080018001000100018000000012
:105A10000000000000000000000000000000000086
:105A200000000000000000000000E007E0070000A8
:105A30000000000000000000000000000000000066
:105A40000000000000000000000000000000000056
:105A50000000000000000000000000000000000046
:105A600000000000C000C0000000000000000000B6
:105A700000000000000C000C0006000600060003F9
:105A8000000300038003800180018001C000C0008A
:105A9000C000600060000000000000000000000086
:105AA00000000000E003F007380E180C0C180C186A
:105AB0000C180C180C180C180C180C180C18180CC6
:105AC000380EF007E00300000000000000000000B6
:105AD0000000000000018001C001F0019801880170
